{
  "_format": "hh-sol-artifact-1",
  "contractName": "AuctionNFTs",
  "sourceName": "contracts/Auctions.sol",
  "abi": [
    {
      "inputs": [],
      "stateMutability": "nonpayable",
      "type": "constructor"
    },
    {
      "anonymous": false,
      "inputs": [
        {
          "indexed": true,
          "internalType": "address",
          "name": "owner",
          "type": "address"
        },
        {
          "indexed": true,
          "internalType": "address",
          "name": "approved",
          "type": "address"
        },
        {
          "indexed": true,
          "internalType": "uint256",
          "name": "tokenId",
          "type": "uint256"
        }
      ],
      "name": "Approval",
      "type": "event"
    },
    {
      "anonymous": false,
      "inputs": [
        {
          "indexed": true,
          "internalType": "address",
          "name": "owner",
          "type": "address"
        },
        {
          "indexed": true,
          "internalType": "address",
          "name": "operator",
          "type": "address"
        },
        {
          "indexed": false,
          "internalType": "bool",
          "name": "approved",
          "type": "bool"
        }
      ],
      "name": "ApprovalForAll",
      "type": "event"
    },
    {
      "anonymous": false,
      "inputs": [
        {
          "indexed": true,
          "internalType": "address",
          "name": "previousOwner",
          "type": "address"
        },
        {
          "indexed": true,
          "internalType": "address",
          "name": "newOwner",
          "type": "address"
        }
      ],
      "name": "OwnershipTransferred",
      "type": "event"
    },
    {
      "anonymous": false,
      "inputs": [
        {
          "indexed": true,
          "internalType": "address",
          "name": "from",
          "type": "address"
        },
        {
          "indexed": true,
          "internalType": "address",
          "name": "to",
          "type": "address"
        },
        {
          "indexed": true,
          "internalType": "uint256",
          "name": "tokenId",
          "type": "uint256"
        }
      ],
      "name": "Transfer",
      "type": "event"
    },
    {
      "inputs": [],
      "name": "ActiveAucs",
      "outputs": [
        {
          "internalType": "uint256[]",
          "name": "",
          "type": "uint256[]"
        }
      ],
      "stateMutability": "view",
      "type": "function"
    },
    {
      "inputs": [
        {
          "internalType": "uint256",
          "name": "tokenId",
          "type": "uint256"
        },
        {
          "internalType": "uint256",
          "name": "auctime",
          "type": "uint256"
        }
      ],
      "name": "AddToAutions",
      "outputs": [],
      "stateMutability": "nonpayable",
      "type": "function"
    },
    {
      "inputs": [
        {
          "internalType": "uint256",
          "name": "",
          "type": "uint256"
        }
      ],
      "name": "AllAucs",
      "outputs": [
        {
          "internalType": "uint256",
          "name": "tokenId",
          "type": "uint256"
        },
        {
          "internalType": "address",
          "name": "aucOwner",
          "type": "address"
        },
        {
          "internalType": "uint256",
          "name": "auctimestamp",
          "type": "uint256"
        },
        {
          "internalType": "uint256",
          "name": "topAucBid",
          "type": "uint256"
        },
        {
          "internalType": "address",
          "name": "topAucBidder",
          "type": "address"
        },
        {
          "internalType": "uint256",
          "name": "biddersCount",
          "type": "uint256"
        },
        {
          "internalType": "uint256",
          "name": "aucIdx",
          "type": "uint256"
        },
        {
          "internalType": "bool",
          "name": "aucOver",
          "type": "bool"
        },
        {
          "internalType": "bool",
          "name": "toPay",
          "type": "bool"
        }
      ],
      "stateMutability": "view",
      "type": "function"
    },
    {
      "inputs": [
        {
          "internalType": "uint256",
          "name": "",
          "type": "uint256"
        },
        {
          "internalType": "address",
          "name": "",
          "type": "address"
        }
      ],
      "name": "AucBidderIdx",
      "outputs": [
        {
          "internalType": "uint256",
          "name": "bidderIdx",
          "type": "uint256"
        },
        {
          "internalType": "address",
          "name": "adr",
          "type": "address"
        },
        {
          "internalType": "uint256",
          "name": "bid",
          "type": "uint256"
        }
      ],
      "stateMutability": "view",
      "type": "function"
    },
    {
      "inputs": [
        {
          "internalType": "uint256",
          "name": "TokenId",
          "type": "uint256"
        }
      ],
      "name": "AucInfo",
      "outputs": [
        {
          "internalType": "uint256",
          "name": "",
          "type": "uint256"
        },
        {
          "internalType": "address",
          "name": "",
          "type": "address"
        }
      ],
      "stateMutability": "view",
      "type": "function"
    },
    {
      "inputs": [
        {
          "internalType": "uint256",
          "name": "tokenId",
          "type": "uint256"
        }
      ],
      "name": "AuctionTopBidder",
      "outputs": [
        {
          "internalType": "address",
          "name": "",
          "type": "address"
        }
      ],
      "stateMutability": "view",
      "type": "function"
    },
    {
      "inputs": [
        {
          "internalType": "uint256",
          "name": "tokenId",
          "type": "uint256"
        },
        {
          "internalType": "uint256",
          "name": "BId",
          "type": "uint256"
        }
      ],
      "name": "BidOnAuc",
      "outputs": [],
      "stateMutability": "nonpayable",
      "type": "function"
    },
    {
      "inputs": [
        {
          "internalType": "uint256",
          "name": "tokenId",
          "type": "uint256"
        }
      ],
      "name": "EndAucByOwner",
      "outputs": [],
      "stateMutability": "nonpayable",
      "type": "function"
    },
    {
      "inputs": [],
      "name": "EndedAucs",
      "outputs": [
        {
          "internalType": "uint256[]",
          "name": "",
          "type": "uint256[]"
        }
      ],
      "stateMutability": "view",
      "type": "function"
    },
    {
      "inputs": [],
      "name": "MAX_SUPPLY",
      "outputs": [
        {
          "internalType": "uint256",
          "name": "",
          "type": "uint256"
        }
      ],
      "stateMutability": "view",
      "type": "function"
    },
    {
      "inputs": [],
      "name": "MINT_PRICE",
      "outputs": [
        {
          "internalType": "uint256",
          "name": "",
          "type": "uint256"
        }
      ],
      "stateMutability": "view",
      "type": "function"
    },
    {
      "inputs": [],
      "name": "OwnWallet",
      "outputs": [
        {
          "internalType": "uint256[]",
          "name": "",
          "type": "uint256[]"
        }
      ],
      "stateMutability": "view",
      "type": "function"
    },
    {
      "inputs": [
        {
          "internalType": "uint256",
          "name": "TokenId",
          "type": "uint256"
        },
        {
          "internalType": "uint256",
          "name": "auctime",
          "type": "uint256"
        }
      ],
      "name": "ReactivateDeadAuc",
      "outputs": [],
      "stateMutability": "nonpayable",
      "type": "function"
    },
    {
      "inputs": [
        {
          "internalType": "uint256",
          "name": "tokenId",
          "type": "uint256"
        }
      ],
      "name": "ToPay",
      "outputs": [
        {
          "internalType": "bool",
          "name": "",
          "type": "bool"
        }
      ],
      "stateMutability": "view",
      "type": "function"
    },
    {
      "inputs": [
        {
          "internalType": "address payable",
          "name": "item_owner",
          "type": "address"
        },
        {
          "internalType": "uint256",
          "name": "tokenId",
          "type": "uint256"
        }
      ],
      "name": "TransferAucToWinner",
      "outputs": [],
      "stateMutability": "payable",
      "type": "function"
    },
    {
      "inputs": [],
      "name": "_ActAucCount",
      "outputs": [
        {
          "internalType": "uint256",
          "name": "_value",
          "type": "uint256"
        }
      ],
      "stateMutability": "view",
      "type": "function"
    },
    {
      "inputs": [
        {
          "internalType": "uint256",
          "name": "tokenId",
          "type": "uint256"
        },
        {
          "internalType": "string",
          "name": "uri",
          "type": "string"
        }
      ],
      "name": "_setURI",
      "outputs": [],
      "stateMutability": "nonpayable",
      "type": "function"
    },
    {
      "inputs": [
        {
          "internalType": "address",
          "name": "to",
          "type": "address"
        },
        {
          "internalType": "uint256",
          "name": "tokenId",
          "type": "uint256"
        }
      ],
      "name": "approve",
      "outputs": [],
      "stateMutability": "nonpayable",
      "type": "function"
    },
    {
      "inputs": [
        {
          "internalType": "address",
          "name": "owner",
          "type": "address"
        }
      ],
      "name": "balanceOf",
      "outputs": [
        {
          "internalType": "uint256",
          "name": "",
          "type": "uint256"
        }
      ],
      "stateMutability": "view",
      "type": "function"
    },
    {
      "inputs": [
        {
          "internalType": "uint256",
          "name": "tokenId",
          "type": "uint256"
        }
      ],
      "name": "getApproved",
      "outputs": [
        {
          "internalType": "address",
          "name": "",
          "type": "address"
        }
      ],
      "stateMutability": "view",
      "type": "function"
    },
    {
      "inputs": [
        {
          "internalType": "address",
          "name": "owner",
          "type": "address"
        },
        {
          "internalType": "address",
          "name": "operator",
          "type": "address"
        }
      ],
      "name": "isApprovedForAll",
      "outputs": [
        {
          "internalType": "bool",
          "name": "",
          "type": "bool"
        }
      ],
      "stateMutability": "view",
      "type": "function"
    },
    {
      "inputs": [],
      "name": "name",
      "outputs": [
        {
          "internalType": "string",
          "name": "",
          "type": "string"
        }
      ],
      "stateMutability": "view",
      "type": "function"
    },
    {
      "inputs": [],
      "name": "owner",
      "outputs": [
        {
          "internalType": "address",
          "name": "",
          "type": "address"
        }
      ],
      "stateMutability": "view",
      "type": "function"
    },
    {
      "inputs": [
        {
          "internalType": "uint256",
          "name": "tokenId",
          "type": "uint256"
        }
      ],
      "name": "ownerOf",
      "outputs": [
        {
          "internalType": "address",
          "name": "",
          "type": "address"
        }
      ],
      "stateMutability": "view",
      "type": "function"
    },
    {
      "inputs": [],
      "name": "renounceOwnership",
      "outputs": [],
      "stateMutability": "nonpayable",
      "type": "function"
    },
    {
      "inputs": [
        {
          "internalType": "string",
          "name": "uri",
          "type": "string"
        }
      ],
      "name": "safeMint",
      "outputs": [],
      "stateMutability": "payable",
      "type": "function"
    },
    {
      "inputs": [
        {
          "internalType": "address",
          "name": "from",
          "type": "address"
        },
        {
          "internalType": "address",
          "name": "to",
          "type": "address"
        },
        {
          "internalType": "uint256",
          "name": "tokenId",
          "type": "uint256"
        }
      ],
      "name": "safeTransferFrom",
      "outputs": [],
      "stateMutability": "nonpayable",
      "type": "function"
    },
    {
      "inputs": [
        {
          "internalType": "address",
          "name": "from",
          "type": "address"
        },
        {
          "internalType": "address",
          "name": "to",
          "type": "address"
        },
        {
          "internalType": "uint256",
          "name": "tokenId",
          "type": "uint256"
        },
        {
          "internalType": "bytes",
          "name": "data",
          "type": "bytes"
        }
      ],
      "name": "safeTransferFrom",
      "outputs": [],
      "stateMutability": "nonpayable",
      "type": "function"
    },
    {
      "inputs": [
        {
          "internalType": "address",
          "name": "operator",
          "type": "address"
        },
        {
          "internalType": "bool",
          "name": "approved",
          "type": "bool"
        }
      ],
      "name": "setApprovalForAll",
      "outputs": [],
      "stateMutability": "nonpayable",
      "type": "function"
    },
    {
      "inputs": [
        {
          "internalType": "uint256",
          "name": "_newCost",
          "type": "uint256"
        }
      ],
      "name": "setCost",
      "outputs": [],
      "stateMutability": "nonpayable",
      "type": "function"
    },
    {
      "inputs": [
        {
          "internalType": "bytes4",
          "name": "interfaceId",
          "type": "bytes4"
        }
      ],
      "name": "supportsInterface",
      "outputs": [
        {
          "internalType": "bool",
          "name": "",
          "type": "bool"
        }
      ],
      "stateMutability": "view",
      "type": "function"
    },
    {
      "inputs": [],
      "name": "symbol",
      "outputs": [
        {
          "internalType": "string",
          "name": "",
          "type": "string"
        }
      ],
      "stateMutability": "view",
      "type": "function"
    },
    {
      "inputs": [
        {
          "internalType": "uint256",
          "name": "index",
          "type": "uint256"
        }
      ],
      "name": "tokenByIndex",
      "outputs": [
        {
          "internalType": "uint256",
          "name": "",
          "type": "uint256"
        }
      ],
      "stateMutability": "view",
      "type": "function"
    },
    {
      "inputs": [
        {
          "internalType": "address",
          "name": "owner",
          "type": "address"
        },
        {
          "internalType": "uint256",
          "name": "index",
          "type": "uint256"
        }
      ],
      "name": "tokenOfOwnerByIndex",
      "outputs": [
        {
          "internalType": "uint256",
          "name": "",
          "type": "uint256"
        }
      ],
      "stateMutability": "view",
      "type": "function"
    },
    {
      "inputs": [
        {
          "internalType": "uint256",
          "name": "tokenId",
          "type": "uint256"
        }
      ],
      "name": "tokenURI",
      "outputs": [
        {
          "internalType": "string",
          "name": "",
          "type": "string"
        }
      ],
      "stateMutability": "view",
      "type": "function"
    },
    {
      "inputs": [],
      "name": "totalSupply",
      "outputs": [
        {
          "internalType": "uint256",
          "name": "",
          "type": "uint256"
        }
      ],
      "stateMutability": "view",
      "type": "function"
    },
    {
      "inputs": [
        {
          "internalType": "address",
          "name": "from",
          "type": "address"
        },
        {
          "internalType": "address",
          "name": "to",
          "type": "address"
        },
        {
          "internalType": "uint256",
          "name": "tokenId",
          "type": "uint256"
        }
      ],
      "name": "transferFrom",
      "outputs": [],
      "stateMutability": "nonpayable",
      "type": "function"
    },
    {
      "inputs": [
        {
          "internalType": "address",
          "name": "newOwner",
          "type": "address"
        }
      ],
      "name": "transferOwnership",
      "outputs": [],
      "stateMutability": "nonpayable",
      "type": "function"
    },
    {
      "inputs": [],
      "name": "withdrawPayments",
      "outputs": [],
      "stateMutability": "nonpayable",
      "type": "function"
    }
  ],
  "bytecode": "0x6080604052620f4240600f5560006010556101686011553480156200002357600080fd5b506040518060400160405280600b81526020017f41756374696f6e4e4654730000000000000000000000000000000000000000008152506040518060400160405280600381526020017f41544e00000000000000000000000000000000000000000000000000000000008152508160009080519060200190620000a8929190620001e5565b508060019080519060200190620000c1929190620001e5565b505050620000e4620000d86200010160201b60201c565b6200010960201b60201c565b620000fb600c620001cf60201b6200270c1760201c565b620002fa565b600033905090565b6000600b60009054906101000a900473ffffffffffffffffffffffffffffffffffffffff16905081600b60006101000a81548173ffffffffffffffffffffffffffffffffffffffff021916908373ffffffffffffffffffffffffffffffffffffffff1602179055508173ffffffffffffffffffffffffffffffffffffffff168173ffffffffffffffffffffffffffffffffffffffff167f8be0079c531659141344cd1fd0a4f28419497f9722a3daafe3b4186f6b6457e060405160405180910390a35050565b6001816000016000828254019250508190555050565b828054620001f39062000295565b90600052602060002090601f01602090048101928262000217576000855562000263565b82601f106200023257805160ff191683800117855562000263565b8280016001018555821562000263579182015b828111156200026257825182559160200191906001019062000245565b5b50905062000272919062000276565b5090565b5b808211156200029157600081600090555060010162000277565b5090565b60006002820490506001821680620002ae57607f821691505b60208210811415620002c557620002c4620002cb565b5b50919050565b7f4e487b7100000000000000000000000000000000000000000000000000000000600052602260045260246000fd5b61622f806200030a6000396000f3fe6080604052600436106102305760003560e01c806363969ebb1161012e578063a22cb465116100ab578063c87b56dd1161006f578063c87b56dd14610839578063de20e9f414610876578063e985e9c5146108b4578063edcd830f146108f1578063f2fde38b1461093057610230565b8063a22cb46514610754578063a23ee8a91461077d578063b2530083146107ba578063b88d4fde146107e5578063c002d23d1461080e57610230565b80638ac0833f116100f25780638ac0833f146106675780638da5cb5b14610690578063900aba1c146106bb57806395d89b41146107005780639ba17a8e1461072b57610230565b806363969ebb146105a1578063695850fb146105cc57806370a08231146105e8578063715018a61461062557806385b7fe7c1461063c57610230565b80632f94eb93116101bc5780634f6ccce7116101805780634f6ccce7146104aa5780635b2da64b146104e75780635cdb7148146105105780636103d70b1461054d5780636352211e1461056457610230565b80632f94eb93146103e857806332cb6b0c146104045780633da3d9dc1461042f57806342842e0e1461045857806344a0d68a1461048157610230565b80630a5e4198116102035780630a5e41981461030357806318160ddd1461032c57806321b8b13c1461035757806323b872dd146103825780632f745c59146103ab57610230565b806301ffc9a71461023557806306fdde0314610272578063081812fc1461029d578063095ea7b3146102da575b600080fd5b34801561024157600080fd5b5061025c60048036038101906102579190614514565b610959565b6040516102699190614df3565b60405180910390f35b34801561027e57600080fd5b5061028761096b565b6040516102949190614e0e565b60405180910390f35b3480156102a957600080fd5b506102c460048036038101906102bf91906145a7565b6109fd565b6040516102d19190614d6a565b60405180910390f35b3480156102e657600080fd5b5061030160048036038101906102fc91906144d8565b610a43565b005b34801561030f57600080fd5b5061032a60048036038101906103259190614660565b610b5b565b005b34801561033857600080fd5b50610341610cfb565b60405161034e9190615310565b60405180910390f35b34801561036357600080fd5b5061036c610d08565b6040516103799190614dd1565b60405180910390f35b34801561038e57600080fd5b506103a960048036038101906103a491906143d2565b610e00565b005b3480156103b757600080fd5b506103d260048036038101906103cd91906144d8565b610e60565b6040516103df9190615310565b60405180910390f35b61040260048036038101906103fd919061435a565b610f05565b005b34801561041057600080fd5b5061041961108d565b6040516104269190615310565b60405180910390f35b34801561043b57600080fd5b5061045660048036038101906104519190614660565b611093565b005b34801561046457600080fd5b5061047f600480360381019061047a91906143d2565b611528565b005b34801561048d57600080fd5b506104a860048036038101906104a391906145a7565b611548565b005b3480156104b657600080fd5b506104d160048036038101906104cc91906145a7565b61155a565b6040516104de9190615310565b60405180910390f35b3480156104f357600080fd5b5061050e60048036038101906105099190614660565b6115f1565b005b34801561051c57600080fd5b50610537600480360381019061053291906145a7565b611803565b6040516105449190614d6a565b60405180910390f35b34801561055957600080fd5b5061056261189b565b005b34801561057057600080fd5b5061058b600480360381019061058691906145a7565b6118f3565b6040516105989190614d6a565b60405180910390f35b3480156105ad57600080fd5b506105b661197a565b6040516105c39190615310565b60405180910390f35b6105e660048036038101906105e19190614566565b611986565b005b3480156105f457600080fd5b5061060f600480360381019061060a9190614331565b611a94565b60405161061c9190615310565b60405180910390f35b34801561063157600080fd5b5061063a611b4c565b005b34801561064857600080fd5b50610651611b60565b60405161065e9190614dd1565b60405180910390f35b34801561067357600080fd5b5061068e600480360381019061068991906145a7565b611ced565b005b34801561069c57600080fd5b506106a5611ef8565b6040516106b29190614d6a565b60405180910390f35b3480156106c757600080fd5b506106e260048036038101906106dd91906145a7565b611f22565b6040516106f79998979695949392919061538b565b60405180910390f35b34801561070c57600080fd5b50610715611fca565b6040516107229190614e0e565b60405180910390f35b34801561073757600080fd5b50610752600480360381019061074d919061460c565b61205c565b005b34801561076057600080fd5b5061077b6004803603810190610776919061449c565b612162565b005b34801561078957600080fd5b506107a4600480360381019061079f91906145a7565b612178565b6040516107b19190614df3565b60405180910390f35b3480156107c657600080fd5b506107cf612249565b6040516107dc9190614dd1565b60405180910390f35b3480156107f157600080fd5b5061080c60048036038101906108079190614421565b612429565b005b34801561081a57600080fd5b5061082361248b565b6040516108309190615310565b60405180910390f35b34801561084557600080fd5b50610860600480360381019061085b91906145a7565b612491565b60405161086d9190614e0e565b60405180910390f35b34801561088257600080fd5b5061089d600480360381019061089891906145a7565b6124eb565b6040516108ab92919061532b565b60405180910390f35b3480156108c057600080fd5b506108db60048036038101906108d69190614396565b61259d565b6040516108e89190614df3565b60405180910390f35b3480156108fd57600080fd5b50610918600480360381019061091391906145d0565b612631565b60405161092793929190615354565b60405180910390f35b34801561093c57600080fd5b5061095760048036038101906109529190614331565b612688565b005b600061096482612722565b9050919050565b60606000805461097a9061566d565b80601f01602080910402602001604051908101604052809291908181526020018280546109a69061566d565b80156109f35780601f106109c8576101008083540402835291602001916109f3565b820191906000526020600020905b8154815290600101906020018083116109d657829003601f168201915b5050505050905090565b6000610a088261279c565b6004600083815260200190815260200160002060009054906101000a900473ffffffffffffffffffffffffffffffffffffffff169050919050565b6000610a4e826118f3565b90508073ffffffffffffffffffffffffffffffffffffffff168373ffffffffffffffffffffffffffffffffffffffff161415610abf576040517f08c379a0000000000000000000000000000000000000000000000000000000008152600401610ab690615230565b60405180910390fd5b8073ffffffffffffffffffffffffffffffffffffffff16610ade6127e7565b73ffffffffffffffffffffffffffffffffffffffff161480610b0d5750610b0c81610b076127e7565b61259d565b5b610b4c576040517f08c379a0000000000000000000000000000000000000000000000000000000008152600401610b4390615270565b60405180910390fd5b610b5683836127ef565b505050565b3373ffffffffffffffffffffffffffffffffffffffff16610b7b836118f3565b73ffffffffffffffffffffffffffffffffffffffff1614610bd1576040517f08c379a0000000000000000000000000000000000000000000000000000000008152600401610bc890615110565b60405180910390fd5b8160126000848152602001908152602001600020600001541415610c2a576040517f08c379a0000000000000000000000000000000000000000000000000000000008152600401610c2190615050565b60405180910390fd5b6000601260008481526020019081526020016000209050828160000181905550338160010160006101000a81548173ffffffffffffffffffffffffffffffffffffffff021916908373ffffffffffffffffffffffffffffffffffffffff16021790555060008160070160006101000a81548160ff02191690831515021790555060008160070160016101000a81548160ff021916908315150217905550818160020181905550610cda600d6128a8565b8160060181905550610cec600e61270c565b610cf6600d61270c565b505050565b6000600880549050905090565b60606000610d1533611a94565b905060008167ffffffffffffffff811115610d59577f4e487b7100000000000000000000000000000000000000000000000000000000600052604160045260246000fd5b604051908082528060200260200182016040528015610d875781602001602082028036833780820191505090505b50905060005b82811015610df757610d9f3382610e60565b828281518110610dd8577f4e487b7100000000000000000000000000000000000000000000000000000000600052603260045260246000fd5b6020026020010181815250508080610def906156d0565b915050610d8d565b50809250505090565b610e11610e0b6127e7565b826128b6565b610e50576040517f08c379a0000000000000000000000000000000000000000000000000000000008152600401610e4790614e90565b60405180910390fd5b610e5b83838361294b565b505050565b6000610e6b83611a94565b8210610eac576040517f08c379a0000000000000000000000000000000000000000000000000000000008152600401610ea390614eb0565b60405180910390fd5b600660008473ffffffffffffffffffffffffffffffffffffffff1673ffffffffffffffffffffffffffffffffffffffff168152602001908152602001600020600083815260200190815260200160002054905092915050565b610f0e81611803565b73ffffffffffffffffffffffffffffffffffffffff163373ffffffffffffffffffffffffffffffffffffffff1614610f7b576040517f08c379a0000000000000000000000000000000000000000000000000000000008152600401610f72906151f0565b60405180910390fd5b6012600082815260200190815260200160002060030154341015610fd4576040517f08c379a0000000000000000000000000000000000000000000000000000000008152600401610fcb90614e30565b60405180910390fd5b6012600082815260200190815260200160002060070160009054906101000a900460ff16611037576040517f08c379a000000000000000000000000000000000000000000000000000000000815260040161102e906150b0565b60405180910390fd5b8173ffffffffffffffffffffffffffffffffffffffff166108fc349081150290604051600060405180830381858888f1935050505015801561107d573d6000803e3d6000fd5b50611089823383611528565b5050565b600f5481565b3373ffffffffffffffffffffffffffffffffffffffff166110b3836118f3565b73ffffffffffffffffffffffffffffffffffffffff16141561110a576040517f08c379a0000000000000000000000000000000000000000000000000000000008152600401611101906151d0565b60405180910390fd5b81601260008481526020019081526020016000206000015414611162576040517f08c379a000000000000000000000000000000000000000000000000000000000815260040161115990614fb0565b60405180910390fd5b426011546012600085815260200190815260200160002060020154611187919061551b565b1180156111a95750426012600084815260200190815260200160002060020154105b80156111d657506012600083815260200190815260200160002060070160009054906101000a900460ff16155b611215576040517f08c379a000000000000000000000000000000000000000000000000000000000815260040161120c90614e50565b60405180910390fd5b3373ffffffffffffffffffffffffffffffffffffffff166013600084815260200190815260200160002060003373ffffffffffffffffffffffffffffffffffffffff1673ffffffffffffffffffffffffffffffffffffffff16815260200190815260200160002060010160009054906101000a900473ffffffffffffffffffffffffffffffffffffffff1673ffffffffffffffffffffffffffffffffffffffff1614156113a857806013600084815260200190815260200160002060003373ffffffffffffffffffffffffffffffffffffffff1673ffffffffffffffffffffffffffffffffffffffff1681526020019081526020016000206002018190555080601260008481526020019081526020016000206003015410156113a357806012600084815260200190815260200160002060030181905550336012600084815260200190815260200160002060040160006101000a81548173ffffffffffffffffffffffffffffffffffffffff021916908373ffffffffffffffffffffffffffffffffffffffff1602179055505b611524565b60006013600084815260200190815260200160002060003373ffffffffffffffffffffffffffffffffffffffff1673ffffffffffffffffffffffffffffffffffffffff1681526020019081526020016000209050338160010160006101000a81548173ffffffffffffffffffffffffffffffffffffffff021916908373ffffffffffffffffffffffffffffffffffffffff1602179055508181600201819055506012600084815260200190815260200160002060050154816000018190555060126000848152602001908152602001600020600501600081548092919061148e906156d0565b9190505550816012600085815260200190815260200160002060030154101561152257816012600085815260200190815260200160002060030181905550336012600085815260200190815260200160002060040160006101000a81548173ffffffffffffffffffffffffffffffffffffffff021916908373ffffffffffffffffffffffffffffffffffffffff1602179055505b505b5050565b61154383838360405180602001604052806000815250612429565b505050565b611550612c45565b8060108190555050565b6000611564610cfb565b82106115a5576040517f08c379a000000000000000000000000000000000000000000000000000000000815260040161159c90615290565b60405180910390fd5b600882815481106115df577f4e487b7100000000000000000000000000000000000000000000000000000000600052603260045260246000fd5b90600052602060002001549050919050565b3373ffffffffffffffffffffffffffffffffffffffff16611611836118f3565b73ffffffffffffffffffffffffffffffffffffffff1614611667576040517f08c379a000000000000000000000000000000000000000000000000000000000815260040161165e90615250565b60405180910390fd5b816012600084815260200190815260200160002060000154146116bf576040517f08c379a00000000000000000000000000000000000000000000000000000000081526004016116b690614f70565b60405180910390fd5b6012600083815260200190815260200160002060070160009054906101000a900460ff16611722576040517f08c379a0000000000000000000000000000000000000000000000000000000008152600401611719906152b0565b60405180910390fd5b60006012600084815260200190815260200160002060030154111561177c576040517f08c379a0000000000000000000000000000000000000000000000000000000008152600401611773906150f0565b60405180910390fd5b60006012600084815260200190815260200160002060070160006101000a81548160ff02191690831515021790555060006012600084815260200190815260200160002060070160016101000a81548160ff0219169083151502179055508060126000848152602001908152602001600020600201819055506117ff600e61270c565b5050565b60008160126000848152602001908152602001600020600001541461185d576040517f08c379a000000000000000000000000000000000000000000000000000000000815260040161185490614fb0565b60405180910390fd5b6012600083815260200190815260200160002060040160009054906101000a900473ffffffffffffffffffffffffffffffffffffffff169050919050565b6118a3612c45565b6118ab611ef8565b73ffffffffffffffffffffffffffffffffffffffff166108fc479081150290604051600060405180830381858888f193505050501580156118f0573d6000803e3d6000fd5b50565b6000806118ff83612cc3565b9050600073ffffffffffffffffffffffffffffffffffffffff168173ffffffffffffffffffffffffffffffffffffffff161415611971576040517f08c379a000000000000000000000000000000000000000000000000000000000815260040161196890615210565b60405180910390fd5b80915050919050565b600e8060000154905081565b600f54611991610cfb565b106119d1576040517f08c379a00000000000000000000000000000000000000000000000000000000081526004016119c890614f90565b60405180910390fd5b601054341015611a16576040517f08c379a0000000000000000000000000000000000000000000000000000000008152600401611a0d906152f0565b60405180910390fd5b6000611a22600c6128a8565b9050611a2e600c61270c565b611a383382612d00565b611a428183612d1e565b611a4a611ef8565b73ffffffffffffffffffffffffffffffffffffffff166108fc349081150290604051600060405180830381858888f19350505050158015611a8f573d6000803e3d6000fd5b505050565b60008073ffffffffffffffffffffffffffffffffffffffff168273ffffffffffffffffffffffffffffffffffffffff161415611b05576040517f08c379a0000000000000000000000000000000000000000000000000000000008152600401611afc90615070565b60405180910390fd5b600360008373ffffffffffffffffffffffffffffffffffffffff1673ffffffffffffffffffffffffffffffffffffffff168152602001908152602001600020549050919050565b611b54612c45565b611b5e6000612d92565b565b60606000611b6e600e6128a8565b67ffffffffffffffff811115611bad577f4e487b7100000000000000000000000000000000000000000000000000000000600052604160045260246000fd5b604051908082528060200260200182016040528015611bdb5781602001602082028036833780820191505090505b5090506000805b611bec600d6128a8565b811015611ce4578060126000600184611c05919061551b565b8152602001908152602001600020600601541415611cd1576000151560126000600184611c32919061551b565b815260200190815260200160002060070160009054906101000a900460ff1615151415611cd05760126000600183611c6a919061551b565b815260200190815260200160002060000154838381518110611cb5577f4e487b7100000000000000000000000000000000000000000000000000000000600052603260045260246000fd5b6020026020010181815250508180611ccc906156d0565b9250505b5b8080611cdc906156d0565b915050611be2565b50819250505090565b611cf6816118f3565b73ffffffffffffffffffffffffffffffffffffffff163373ffffffffffffffffffffffffffffffffffffffff1614611d63576040517f08c379a0000000000000000000000000000000000000000000000000000000008152600401611d5a90615010565b60405180910390fd5b80601260008381526020019081526020016000206000015414611dbb576040517f08c379a0000000000000000000000000000000000000000000000000000000008152600401611db290615090565b60405180910390fd5b426011546012600084815260200190815260200160002060020154611de0919061551b565b108015611e0e57506012600082815260200190815260200160002060070160009054906101000a900460ff16155b611e4d576040517f08c379a0000000000000000000000000000000000000000000000000000000008152600401611e4490615130565b60405180910390fd5b60016012600083815260200190815260200160002060070160006101000a81548160ff02191690831515021790555060016012600083815260200190815260200160002060070160016101000a81548160ff021916908315150217905550611eb5600e612e58565b611ef56012600083815260200190815260200160002060040160009054906101000a900473ffffffffffffffffffffffffffffffffffffffff1682610a43565b50565b6000600b60009054906101000a900473ffffffffffffffffffffffffffffffffffffffff16905090565b60126020528060005260406000206000915090508060000154908060010160009054906101000a900473ffffffffffffffffffffffffffffffffffffffff16908060020154908060030154908060040160009054906101000a900473ffffffffffffffffffffffffffffffffffffffff16908060050154908060060154908060070160009054906101000a900460ff16908060070160019054906101000a900460ff16905089565b606060018054611fd99061566d565b80601f01602080910402602001604051908101604052809291908181526020018280546120059061566d565b80156120525780601f1061202757610100808354040283529160200191612052565b820191906000526020600020905b81548152906001019060200180831161203557829003601f168201915b5050505050905090565b3373ffffffffffffffffffffffffffffffffffffffff1661207c836118f3565b73ffffffffffffffffffffffffffffffffffffffff16146120d2576040517f08c379a00000000000000000000000000000000000000000000000000000000081526004016120c990615150565b60405180910390fd5b8160126000848152602001908152602001600020600001541415612154576012600083815260200190815260200160002060070160009054906101000a900460ff16612153576040517f08c379a000000000000000000000000000000000000000000000000000000000815260040161214a90615030565b60405180910390fd5b5b61215e8282612d1e565b5050565b61217461216d6127e7565b8383612eb4565b5050565b60006012600083815260200190815260200160002060040160009054906101000a900473ffffffffffffffffffffffffffffffffffffffff1673ffffffffffffffffffffffffffffffffffffffff163373ffffffffffffffffffffffffffffffffffffffff161461221e576040517f08c379a000000000000000000000000000000000000000000000000000000000815260040161221590614e70565b60405180910390fd5b6012600083815260200190815260200160002060070160019054906101000a900460ff169050919050565b60606000612257600e6128a8565b612261600d6128a8565b61226b9190615571565b67ffffffffffffffff8111156122aa577f4e487b7100000000000000000000000000000000000000000000000000000000600052604160045260246000fd5b6040519080825280602002602001820160405280156122d85781602001602082028036833780820191505090505b5090506000805b6122e9600d6128a8565b811015612420578060126000600184612302919061551b565b815260200190815260200160002060060154141561240d57600115156012600060018461232f919061551b565b815260200190815260200160002060070160009054906101000a900460ff1615151480156123905750600115156012600060018461236d919061551b565b815260200190815260200160002060070160019054906101000a900460ff161515145b1561240c57601260006001836123a6919061551b565b8152602001908152602001600020600001548383815181106123f1577f4e487b7100000000000000000000000000000000000000000000000000000000600052603260045260246000fd5b6020026020010181815250508180612408906156d0565b9250505b5b8080612418906156d0565b9150506122df565b50819250505090565b61243a6124346127e7565b836128b6565b612479576040517f08c379a000000000000000000000000000000000000000000000000000000000815260040161247090614e90565b60405180910390fd5b61248584848484613021565b50505050565b60105481565b606061249c8261307d565b6124db576040517f08c379a00000000000000000000000000000000000000000000000000000000081526004016124d2906151b0565b60405180910390fd5b6124e4826130be565b9050919050565b60008082601260008581526020019081526020016000206000015414612546576040517f08c379a000000000000000000000000000000000000000000000000000000000815260040161253d90614fb0565b60405180910390fd5b60126000848152602001908152602001600020600301546012600085815260200190815260200160002060040160009054906101000a900473ffffffffffffffffffffffffffffffffffffffff1691509150915091565b6000600560008473ffffffffffffffffffffffffffffffffffffffff1673ffffffffffffffffffffffffffffffffffffffff16815260200190815260200160002060008373ffffffffffffffffffffffffffffffffffffffff1673ffffffffffffffffffffffffffffffffffffffff16815260200190815260200160002060009054906101000a900460ff16905092915050565b6013602052816000526040600020602052806000526040600020600091509150508060000154908060010160009054906101000a900473ffffffffffffffffffffffffffffffffffffffff16908060020154905083565b612690612c45565b600073ffffffffffffffffffffffffffffffffffffffff168173ffffffffffffffffffffffffffffffffffffffff161415612700576040517f08c379a00000000000000000000000000000000000000000000000000000000081526004016126f790614f10565b60405180910390fd5b61270981612d92565b50565b6001816000016000828254019250508190555050565b60007f780e9d63000000000000000000000000000000000000000000000000000000007bffffffffffffffffffffffffffffffffffffffffffffffffffffffff1916827bffffffffffffffffffffffffffffffffffffffffffffffffffffffff191614806127955750612794826131d1565b5b9050919050565b6127a58161307d565b6127e4576040517f08c379a00000000000000000000000000000000000000000000000000000000081526004016127db90615210565b60405180910390fd5b50565b600033905090565b816004600083815260200190815260200160002060006101000a81548173ffffffffffffffffffffffffffffffffffffffff021916908373ffffffffffffffffffffffffffffffffffffffff160217905550808273ffffffffffffffffffffffffffffffffffffffff16612862836118f3565b73ffffffffffffffffffffffffffffffffffffffff167f8c5be1e5ebec7d5bd14f71427d1e84f3dd0314c0f7b2291e5b200ac8c7c3b92560405160405180910390a45050565b600081600001549050919050565b6000806128c2836118f3565b90508073ffffffffffffffffffffffffffffffffffffffff168473ffffffffffffffffffffffffffffffffffffffff1614806129045750612903818561259d565b5b8061294257508373ffffffffffffffffffffffffffffffffffffffff1661292a846109fd565b73ffffffffffffffffffffffffffffffffffffffff16145b91505092915050565b8273ffffffffffffffffffffffffffffffffffffffff1661296b826118f3565b73ffffffffffffffffffffffffffffffffffffffff16146129c1576040517f08c379a00000000000000000000000000000000000000000000000000000000081526004016129b890614f30565b60405180910390fd5b600073ffffffffffffffffffffffffffffffffffffffff168273ffffffffffffffffffffffffffffffffffffffff161415612a31576040517f08c379a0000000000000000000000000000000000000000000000000000000008152600401612a2890614fd0565b60405180910390fd5b612a3e83838360016132b3565b8273ffffffffffffffffffffffffffffffffffffffff16612a5e826118f3565b73ffffffffffffffffffffffffffffffffffffffff1614612ab4576040517f08c379a0000000000000000000000000000000000000000000000000000000008152600401612aab90614f30565b60405180910390fd5b6004600082815260200190815260200160002060006101000a81549073ffffffffffffffffffffffffffffffffffffffff02191690556001600360008573ffffffffffffffffffffffffffffffffffffffff1673ffffffffffffffffffffffffffffffffffffffff168152602001908152602001600020600082825403925050819055506001600360008473ffffffffffffffffffffffffffffffffffffffff1673ffffffffffffffffffffffffffffffffffffffff16815260200190815260200160002060008282540192505081905550816002600083815260200190815260200160002060006101000a81548173ffffffffffffffffffffffffffffffffffffffff021916908373ffffffffffffffffffffffffffffffffffffffff160217905550808273ffffffffffffffffffffffffffffffffffffffff168473ffffffffffffffffffffffffffffffffffffffff167fddf252ad1be2c89b69c2b068fc378daa952ba7f163c4a11628f55a4df523b3ef60405160405180910390a4612c4083838360016132c5565b505050565b612c4d6127e7565b73ffffffffffffffffffffffffffffffffffffffff16612c6b611ef8565b73ffffffffffffffffffffffffffffffffffffffff1614612cc1576040517f08c379a0000000000000000000000000000000000000000000000000000000008152600401612cb890615190565b60405180910390fd5b565b60006002600083815260200190815260200160002060009054906101000a900473ffffffffffffffffffffffffffffffffffffffff169050919050565b612d1a8282604051806020016040528060008152506132cb565b5050565b612d278261307d565b612d66576040517f08c379a0000000000000000000000000000000000000000000000000000000008152600401612d5d906150d0565b60405180910390fd5b80600a60008481526020019081526020016000209080519060200190612d8d929190614140565b505050565b6000600b60009054906101000a900473ffffffffffffffffffffffffffffffffffffffff16905081600b60006101000a81548173ffffffffffffffffffffffffffffffffffffffff021916908373ffffffffffffffffffffffffffffffffffffffff1602179055508173ffffffffffffffffffffffffffffffffffffffff168173ffffffffffffffffffffffffffffffffffffffff167f8be0079c531659141344cd1fd0a4f28419497f9722a3daafe3b4186f6b6457e060405160405180910390a35050565b60008160000154905060008111612ea4576040517f08c379a0000000000000000000000000000000000000000000000000000000008152600401612e9b90614ed0565b60405180910390fd5b6001810382600001819055505050565b8173ffffffffffffffffffffffffffffffffffffffff168373ffffffffffffffffffffffffffffffffffffffff161415612f23576040517f08c379a0000000000000000000000000000000000000000000000000000000008152600401612f1a90614ff0565b60405180910390fd5b80600560008573ffffffffffffffffffffffffffffffffffffffff1673ffffffffffffffffffffffffffffffffffffffff16815260200190815260200160002060008473ffffffffffffffffffffffffffffffffffffffff1673ffffffffffffffffffffffffffffffffffffffff16815260200190815260200160002060006101000a81548160ff0219169083151502179055508173ffffffffffffffffffffffffffffffffffffffff168373ffffffffffffffffffffffffffffffffffffffff167f17307eab39ab6107e8899845ad3d59bd9653f200f220920489ca2b5937696c31836040516130149190614df3565b60405180910390a3505050565b61302c84848461294b565b61303884848484613326565b613077576040517f08c379a000000000000000000000000000000000000000000000000000000000815260040161306e90614ef0565b60405180910390fd5b50505050565b60008073ffffffffffffffffffffffffffffffffffffffff1661309f83612cc3565b73ffffffffffffffffffffffffffffffffffffffff1614159050919050565b60606130c98261279c565b6000600a600084815260200190815260200160002080546130e99061566d565b80601f01602080910402602001604051908101604052809291908181526020018280546131159061566d565b80156131625780601f1061313757610100808354040283529160200191613162565b820191906000526020600020905b81548152906001019060200180831161314557829003601f168201915b5050505050905060006131736134bd565b90506000815114156131895781925050506131cc565b6000825111156131be5780826040516020016131a6929190614d46565b604051602081830303815290604052925050506131cc565b6131c7846134d4565b925050505b919050565b60007f80ac58cd000000000000000000000000000000000000000000000000000000007bffffffffffffffffffffffffffffffffffffffffffffffffffffffff1916827bffffffffffffffffffffffffffffffffffffffffffffffffffffffff1916148061329c57507f5b5e139f000000000000000000000000000000000000000000000000000000007bffffffffffffffffffffffffffffffffffffffffffffffffffffffff1916827bffffffffffffffffffffffffffffffffffffffffffffffffffffffff1916145b806132ac57506132ab8261353c565b5b9050919050565b6132bf848484846135a6565b50505050565b50505050565b6132d58383613706565b6132e26000848484613326565b613321576040517f08c379a000000000000000000000000000000000000000000000000000000000815260040161331890614ef0565b60405180910390fd5b505050565b60006133478473ffffffffffffffffffffffffffffffffffffffff16613924565b156134b0578373ffffffffffffffffffffffffffffffffffffffff1663150b7a026133706127e7565b8786866040518563ffffffff1660e01b81526004016133929493929190614d85565b602060405180830381600087803b1580156133ac57600080fd5b505af19250505080156133dd57506040513d601f19601f820116820180604052508101906133da919061453d565b60015b613460573d806000811461340d576040519150601f19603f3d011682016040523d82523d6000602084013e613412565b606091505b50600081511415613458576040517f08c379a000000000000000000000000000000000000000000000000000000000815260040161344f90614ef0565b60405180910390fd5b805181602001fd5b63150b7a0260e01b7bffffffffffffffffffffffffffffffffffffffffffffffffffffffff1916817bffffffffffffffffffffffffffffffffffffffffffffffffffffffff1916149150506134b5565b600190505b949350505050565b606060405180602001604052806000815250905090565b60606134df8261279c565b60006134e96134bd565b905060008151116135095760405180602001604052806000815250613534565b8061351384613947565b604051602001613524929190614d46565b6040516020818303038152906040525b915050919050565b60007f01ffc9a7000000000000000000000000000000000000000000000000000000007bffffffffffffffffffffffffffffffffffffffffffffffffffffffff1916827bffffffffffffffffffffffffffffffffffffffffffffffffffffffff1916149050919050565b6135b284848484613a6b565b60018111156135f6576040517f08c379a00000000000000000000000000000000000000000000000000000000081526004016135ed906152d0565b60405180910390fd5b6000829050600073ffffffffffffffffffffffffffffffffffffffff168573ffffffffffffffffffffffffffffffffffffffff16141561363e5761363981613b91565b61367d565b8373ffffffffffffffffffffffffffffffffffffffff168573ffffffffffffffffffffffffffffffffffffffff161461367c5761367b8582613bda565b5b5b600073ffffffffffffffffffffffffffffffffffffffff168473ffffffffffffffffffffffffffffffffffffffff1614156136c0576136bb81613d47565b6136ff565b8473ffffffffffffffffffffffffffffffffffffffff168473ffffffffffffffffffffffffffffffffffffffff16146136fe576136fd8482613e8a565b5b5b5050505050565b600073ffffffffffffffffffffffffffffffffffffffff168273ffffffffffffffffffffffffffffffffffffffff161415613776576040517f08c379a000000000000000000000000000000000000000000000000000000000815260040161376d90615170565b60405180910390fd5b61377f8161307d565b156137bf576040517f08c379a00000000000000000000000000000000000000000000000000000000081526004016137b690614f50565b60405180910390fd5b6137cd6000838360016132b3565b6137d68161307d565b15613816576040517f08c379a000000000000000000000000000000000000000000000000000000000815260040161380d90614f50565b60405180910390fd5b6001600360008473ffffffffffffffffffffffffffffffffffffffff1673ffffffffffffffffffffffffffffffffffffffff16815260200190815260200160002060008282540192505081905550816002600083815260200190815260200160002060006101000a81548173ffffffffffffffffffffffffffffffffffffffff021916908373ffffffffffffffffffffffffffffffffffffffff160217905550808273ffffffffffffffffffffffffffffffffffffffff16600073ffffffffffffffffffffffffffffffffffffffff167fddf252ad1be2c89b69c2b068fc378daa952ba7f163c4a11628f55a4df523b3ef60405160405180910390a46139206000838360016132c5565b5050565b6000808273ffffffffffffffffffffffffffffffffffffffff163b119050919050565b60606000600161395684613f09565b01905060008167ffffffffffffffff81111561399b577f4e487b7100000000000000000000000000000000000000000000000000000000600052604160045260246000fd5b6040519080825280601f01601f1916602001820160405280156139cd5781602001600182028036833780820191505090505b509050600082602001820190505b600115613a60578080600190039150507f3031323334353637383961626364656600000000000000000000000000000000600a86061a8153600a8581613a4a577f4e487b7100000000000000000000000000000000000000000000000000000000600052601260045260246000fd5b0494506000851415613a5b57613a60565b6139db565b819350505050919050565b6001811115613b8b57600073ffffffffffffffffffffffffffffffffffffffff168473ffffffffffffffffffffffffffffffffffffffff1614613aff5780600360008673ffffffffffffffffffffffffffffffffffffffff1673ffffffffffffffffffffffffffffffffffffffff1681526020019081526020016000206000828254613af79190615571565b925050819055505b600073ffffffffffffffffffffffffffffffffffffffff168373ffffffffffffffffffffffffffffffffffffffff1614613b8a5780600360008573ffffffffffffffffffffffffffffffffffffffff1673ffffffffffffffffffffffffffffffffffffffff1681526020019081526020016000206000828254613b82919061551b565b925050819055505b5b50505050565b6008805490506009600083815260200190815260200160002081905550600881908060018154018082558091505060019003906000526020600020016000909190919091505550565b60006001613be784611a94565b613bf19190615571565b9050600060076000848152602001908152602001600020549050818114613cd6576000600660008673ffffffffffffffffffffffffffffffffffffffff1673ffffffffffffffffffffffffffffffffffffffff168152602001908152602001600020600084815260200190815260200160002054905080600660008773ffffffffffffffffffffffffffffffffffffffff1673ffffffffffffffffffffffffffffffffffffffff168152602001908152602001600020600084815260200190815260200160002081905550816007600083815260200190815260200160002081905550505b6007600084815260200190815260200160002060009055600660008573ffffffffffffffffffffffffffffffffffffffff1673ffffffffffffffffffffffffffffffffffffffff16815260200190815260200160002060008381526020019081526020016000206000905550505050565b60006001600880549050613d5b9190615571565b9050600060096000848152602001908152602001600020549050600060088381548110613db1577f4e487b7100000000000000000000000000000000000000000000000000000000600052603260045260246000fd5b906000526020600020015490508060088381548110613df9577f4e487b7100000000000000000000000000000000000000000000000000000000600052603260045260246000fd5b906000526020600020018190555081600960008381526020019081526020016000208190555060096000858152602001908152602001600020600090556008805480613e6e577f4e487b7100000000000000000000000000000000000000000000000000000000600052603160045260246000fd5b6001900381819060005260206000200160009055905550505050565b6000613e9583611a94565b905081600660008573ffffffffffffffffffffffffffffffffffffffff1673ffffffffffffffffffffffffffffffffffffffff168152602001908152602001600020600083815260200190815260200160002081905550806007600084815260200190815260200160002081905550505050565b600080600090507a184f03e93ff9f4daa797ed6e38ed64bf6a1f0100000000000000008310613f8d577a184f03e93ff9f4daa797ed6e38ed64bf6a1f0100000000000000008381613f83577f4e487b7100000000000000000000000000000000000000000000000000000000600052601260045260246000fd5b0492506040810190505b6d04ee2d6d415b85acef81000000008310613ff0576d04ee2d6d415b85acef81000000008381613fe6577f4e487b7100000000000000000000000000000000000000000000000000000000600052601260045260246000fd5b0492506020810190505b662386f26fc10000831061404557662386f26fc10000838161403b577f4e487b7100000000000000000000000000000000000000000000000000000000600052601260045260246000fd5b0492506010810190505b6305f5e1008310614094576305f5e100838161408a577f4e487b7100000000000000000000000000000000000000000000000000000000600052601260045260246000fd5b0492506008810190505b61271083106140df5761271083816140d5577f4e487b7100000000000000000000000000000000000000000000000000000000600052601260045260246000fd5b0492506004810190505b60648310614128576064838161411e577f4e487b7100000000000000000000000000000000000000000000000000000000600052601260045260246000fd5b0492506002810190505b600a8310614137576001810190505b80915050919050565b82805461414c9061566d565b90600052602060002090601f01602090048101928261416e57600085556141b5565b82601f1061418757805160ff19168380011785556141b5565b828001600101855582156141b5579182015b828111156141b4578251825591602001919060010190614199565b5b5090506141c291906141c6565b5090565b5b808211156141df5760008160009055506001016141c7565b5090565b60006141f66141f18461543d565b615418565b90508281526020810184848401111561420e57600080fd5b61421984828561562b565b509392505050565b600061423461422f8461546e565b615418565b90508281526020810184848401111561424c57600080fd5b61425784828561562b565b509392505050565b60008135905061426e81616186565b92915050565b6000813590506142838161619d565b92915050565b600081359050614298816161b4565b92915050565b6000813590506142ad816161cb565b92915050565b6000815190506142c2816161cb565b92915050565b600082601f8301126142d957600080fd5b81356142e98482602086016141e3565b91505092915050565b600082601f83011261430357600080fd5b8135614313848260208601614221565b91505092915050565b60008135905061432b816161e2565b92915050565b60006020828403121561434357600080fd5b60006143518482850161425f565b91505092915050565b6000806040838503121561436d57600080fd5b600061437b85828601614274565b925050602061438c8582860161431c565b9150509250929050565b600080604083850312156143a957600080fd5b60006143b78582860161425f565b92505060206143c88582860161425f565b9150509250929050565b6000806000606084860312156143e757600080fd5b60006143f58682870161425f565b93505060206144068682870161425f565b92505060406144178682870161431c565b9150509250925092565b6000806000806080858703121561443757600080fd5b60006144458782880161425f565b94505060206144568782880161425f565b93505060406144678782880161431c565b925050606085013567ffffffffffffffff81111561448457600080fd5b614490878288016142c8565b91505092959194509250565b600080604083850312156144af57600080fd5b60006144bd8582860161425f565b92505060206144ce85828601614289565b9150509250929050565b600080604083850312156144eb57600080fd5b60006144f98582860161425f565b925050602061450a8582860161431c565b9150509250929050565b60006020828403121561452657600080fd5b60006145348482850161429e565b91505092915050565b60006020828403121561454f57600080fd5b600061455d848285016142b3565b91505092915050565b60006020828403121561457857600080fd5b600082013567ffffffffffffffff81111561459257600080fd5b61459e848285016142f2565b91505092915050565b6000602082840312156145b957600080fd5b60006145c78482850161431c565b91505092915050565b600080604083850312156145e357600080fd5b60006145f18582860161431c565b92505060206146028582860161425f565b9150509250929050565b6000806040838503121561461f57600080fd5b600061462d8582860161431c565b925050602083013567ffffffffffffffff81111561464a57600080fd5b614656858286016142f2565b9150509250929050565b6000806040838503121561467357600080fd5b60006146818582860161431c565b92505060206146928582860161431c565b9150509250929050565b60006146a88383614d28565b60208301905092915050565b6146bd816155a5565b82525050565b60006146ce826154af565b6146d881856154dd565b93506146e38361549f565b8060005b838110156147145781516146fb888261469c565b9750614706836154d0565b9250506001810190506146e7565b5085935050505092915050565b61472a816155c9565b82525050565b600061473b826154ba565b61474581856154ee565b935061475581856020860161563a565b61475e816157a6565b840191505092915050565b6000614774826154c5565b61477e81856154ff565b935061478e81856020860161563a565b614797816157a6565b840191505092915050565b60006147ad826154c5565b6147b78185615510565b93506147c781856020860161563a565b80840191505092915050565b60006147e06033836154ff565b91506147eb826157b7565b604082019050919050565b60006148036019836154ff565b915061480e82615806565b602082019050919050565b60006148266029836154ff565b91506148318261582f565b604082019050919050565b6000614849602d836154ff565b91506148548261587e565b604082019050919050565b600061486c602b836154ff565b9150614877826158cd565b604082019050919050565b600061488f601b836154ff565b915061489a8261591c565b602082019050919050565b60006148b26032836154ff565b91506148bd82615945565b604082019050919050565b60006148d56026836154ff565b91506148e082615994565b604082019050919050565b60006148f86025836154ff565b9150614903826159e3565b604082019050919050565b600061491b601c836154ff565b915061492682615a32565b602082019050919050565b600061493e6027836154ff565b915061494982615a5b565b604082019050919050565b60006149616018836154ff565b915061496c82615aaa565b602082019050919050565b60006149846026836154ff565b915061498f82615ad3565b604082019050919050565b60006149a76024836154ff565b91506149b282615b22565b604082019050919050565b60006149ca6019836154ff565b91506149d582615b71565b602082019050919050565b60006149ed6020836154ff565b91506149f882615b9a565b602082019050919050565b6000614a10601b836154ff565b9150614a1b82615bc3565b602082019050919050565b6000614a336041836154ff565b9150614a3e82615bec565b606082019050919050565b6000614a566029836154ff565b9150614a6182615c61565b604082019050919050565b6000614a796020836154ff565b9150614a8482615cb0565b602082019050919050565b6000614a9c6024836154ff565b9150614aa782615cd9565b604082019050919050565b6000614abf602e836154ff565b9150614aca82615d28565b604082019050919050565b6000614ae2601f836154ff565b9150614aed82615d77565b602082019050919050565b6000614b056038836154ff565b9150614b1082615da0565b604082019050919050565b6000614b286036836154ff565b9150614b3382615def565b604082019050919050565b6000614b4b6020836154ff565b9150614b5682615e3e565b602082019050919050565b6000614b6e6020836154ff565b9150614b7982615e67565b602082019050919050565b6000614b916020836154ff565b9150614b9c82615e90565b602082019050919050565b6000614bb4602f836154ff565b9150614bbf82615eb9565b604082019050919050565b6000614bd7601e836154ff565b9150614be282615f08565b602082019050919050565b6000614bfa6032836154ff565b9150614c0582615f31565b604082019050919050565b6000614c1d6018836154ff565b9150614c2882615f80565b602082019050919050565b6000614c406021836154ff565b9150614c4b82615fa9565b604082019050919050565b6000614c636035836154ff565b9150614c6e82615ff8565b604082019050919050565b6000614c86603d836154ff565b9150614c9182616047565b604082019050919050565b6000614ca9602c836154ff565b9150614cb482616096565b604082019050919050565b6000614ccc601e836154ff565b9150614cd7826160e5565b602082019050919050565b6000614cef6035836154ff565b9150614cfa8261610e565b604082019050919050565b6000614d12601c836154ff565b9150614d1d8261615d565b602082019050919050565b614d3181615621565b82525050565b614d4081615621565b82525050565b6000614d5282856147a2565b9150614d5e82846147a2565b91508190509392505050565b6000602082019050614d7f60008301846146b4565b92915050565b6000608082019050614d9a60008301876146b4565b614da760208301866146b4565b614db46040830185614d37565b8181036060830152614dc68184614730565b905095945050505050565b60006020820190508181036000830152614deb81846146c3565b905092915050565b6000602082019050614e086000830184614721565b92915050565b60006020820190508181036000830152614e288184614769565b905092915050565b60006020820190508181036000830152614e49816147d3565b9050919050565b60006020820190508181036000830152614e69816147f6565b9050919050565b60006020820190508181036000830152614e8981614819565b9050919050565b60006020820190508181036000830152614ea98161483c565b9050919050565b60006020820190508181036000830152614ec98161485f565b9050919050565b60006020820190508181036000830152614ee981614882565b9050919050565b60006020820190508181036000830152614f09816148a5565b9050919050565b60006020820190508181036000830152614f29816148c8565b9050919050565b60006020820190508181036000830152614f49816148eb565b9050919050565b60006020820190508181036000830152614f698161490e565b9050919050565b60006020820190508181036000830152614f8981614931565b9050919050565b60006020820190508181036000830152614fa981614954565b9050919050565b60006020820190508181036000830152614fc981614977565b9050919050565b60006020820190508181036000830152614fe98161499a565b9050919050565b60006020820190508181036000830152615009816149bd565b9050919050565b60006020820190508181036000830152615029816149e0565b9050919050565b6000602082019050818103600083015261504981614a03565b9050919050565b6000602082019050818103600083015261506981614a26565b9050919050565b6000602082019050818103600083015261508981614a49565b9050919050565b600060208201905081810360008301526150a981614a6c565b9050919050565b600060208201905081810360008301526150c981614a8f565b9050919050565b600060208201905081810360008301526150e981614ab2565b9050919050565b6000602082019050818103600083015261510981614ad5565b9050919050565b6000602082019050818103600083015261512981614af8565b9050919050565b6000602082019050818103600083015261514981614b1b565b9050919050565b6000602082019050818103600083015261516981614b3e565b9050919050565b6000602082019050818103600083015261518981614b61565b9050919050565b600060208201905081810360008301526151a981614b84565b9050919050565b600060208201905081810360008301526151c981614ba7565b9050919050565b600060208201905081810360008301526151e981614bca565b9050919050565b6000602082019050818103600083015261520981614bed565b9050919050565b6000602082019050818103600083015261522981614c10565b9050919050565b6000602082019050818103600083015261524981614c33565b9050919050565b6000602082019050818103600083015261526981614c56565b9050919050565b6000602082019050818103600083015261528981614c79565b9050919050565b600060208201905081810360008301526152a981614c9c565b9050919050565b600060208201905081810360008301526152c981614cbf565b9050919050565b600060208201905081810360008301526152e981614ce2565b9050919050565b6000602082019050818103600083015261530981614d05565b9050919050565b60006020820190506153256000830184614d37565b92915050565b60006040820190506153406000830185614d37565b61534d60208301846146b4565b9392505050565b60006060820190506153696000830186614d37565b61537660208301856146b4565b6153836040830184614d37565b949350505050565b6000610120820190506153a1600083018c614d37565b6153ae602083018b6146b4565b6153bb604083018a614d37565b6153c86060830189614d37565b6153d560808301886146b4565b6153e260a0830187614d37565b6153ef60c0830186614d37565b6153fc60e0830185614721565b61540a610100830184614721565b9a9950505050505050505050565b6000615422615433565b905061542e828261569f565b919050565b6000604051905090565b600067ffffffffffffffff82111561545857615457615777565b5b615461826157a6565b9050602081019050919050565b600067ffffffffffffffff82111561548957615488615777565b5b615492826157a6565b9050602081019050919050565b6000819050602082019050919050565b600081519050919050565b600081519050919050565b600081519050919050565b6000602082019050919050565b600082825260208201905092915050565b600082825260208201905092915050565b600082825260208201905092915050565b600081905092915050565b600061552682615621565b915061553183615621565b9250827fffffffffffffffffffffffffffffffffffffffffffffffffffffffffffffffff0382111561556657615565615719565b5b828201905092915050565b600061557c82615621565b915061558783615621565b92508282101561559a57615599615719565b5b828203905092915050565b60006155b082615601565b9050919050565b60006155c282615601565b9050919050565b60008115159050919050565b60007fffffffff0000000000000000000000000000000000000000000000000000000082169050919050565b600073ffffffffffffffffffffffffffffffffffffffff82169050919050565b6000819050919050565b82818337600083830152505050565b60005b8381101561565857808201518184015260208101905061563d565b83811115615667576000848401525b50505050565b6000600282049050600182168061568557607f821691505b6020821081141561569957615698615748565b5b50919050565b6156a8826157a6565b810181811067ffffffffffffffff821117156156c7576156c6615777565b5b80604052505050565b60006156db82615621565b91507fffffffffffffffffffffffffffffffffffffffffffffffffffffffffffffffff82141561570e5761570d615719565b5b600182019050919050565b7f4e487b7100000000000000000000000000000000000000000000000000000000600052601160045260246000fd5b7f4e487b7100000000000000000000000000000000000000000000000000000000600052602260045260246000fd5b7f4e487b7100000000000000000000000000000000000000000000000000000000600052604160045260246000fd5b6000601f19601f8301169050919050565b7f496e76616c6964205061796d656e742c2042696420497320446f6573204e6f7460008201527f20457175616c2048696768746573742042696400000000000000000000000000602082015250565b7f696e76616c69642074696d696e67206f72207265717565737400000000000000600082015250565b7f526571756972657320746865206869676865737420426964646572206173207460008201527f68652073656e6465720000000000000000000000000000000000000000000000602082015250565b7f4552433732313a2063616c6c6572206973206e6f7420746f6b656e206f776e6560008201527f72206f7220617070726f76656400000000000000000000000000000000000000602082015250565b7f455243373231456e756d657261626c653a206f776e657220696e646578206f7560008201527f74206f6620626f756e6473000000000000000000000000000000000000000000602082015250565b7f436f756e7465723a2064656372656d656e74206f766572666c6f770000000000600082015250565b7f4552433732313a207472616e7366657220746f206e6f6e20455243373231526560008201527f63656976657220696d706c656d656e7465720000000000000000000000000000602082015250565b7f4f776e61626c653a206e6577206f776e657220697320746865207a65726f206160008201527f6464726573730000000000000000000000000000000000000000000000000000602082015250565b7f4552433732313a207472616e736665722066726f6d20696e636f72726563742060008201527f6f776e6572000000000000000000000000000000000000000000000000000000602082015250565b7f4552433732313a20746f6b656e20616c7265616479206d696e74656400000000600082015250565b7f546f6b656e20486173206e6f74204265656e20416464656420546f205468652060008201527f41756374696f6e00000000000000000000000000000000000000000000000000602082015250565b7f4d617820746f6b656e20737570706c7920726561636865640000000000000000600082015250565b7f496e76616c696420546f6b656e2c204e6f742050617274204f6620546865204160008201527f756374696f6e0000000000000000000000000000000000000000000000000000602082015250565b7f4552433732313a207472616e7366657220746f20746865207a65726f2061646460008201527f7265737300000000000000000000000000000000000000000000000000000000602082015250565b7f4552433732313a20617070726f766520746f2063616c6c657200000000000000600082015250565b7f526571756972657320746865204f776e6572206173207468652073656e646572600082015250565b7f41756374696f6e204f6e205468697320546f6b656e204973204f6e0000000000600082015250565b7f546f6b656e2048617320416c7265616479204265656e20416464656420546f2060008201527f5468652041756374696f6e204f7220486173204265656e2041756374696f6e6560208201527f6400000000000000000000000000000000000000000000000000000000000000604082015250565b7f4552433732313a2061646472657373207a65726f206973206e6f74206120766160008201527f6c6964206f776e65720000000000000000000000000000000000000000000000602082015250565b7f546f6b656e204973204e6f742050617274204f66205468652041756374696f6e600082015250565b7f52657175657374656420546f6b656e204973205374696c6c204f6e204175637460008201527f696f6e7300000000000000000000000000000000000000000000000000000000602082015250565b7f45524337323155524953746f726167653a2055524920736574206f66206e6f6e60008201527f6578697374656e7420746f6b656e000000000000000000000000000000000000602082015250565b7f546865726520576173204120426964204f6e20546869732041756374696f6e00600082015250565b7f2043616c6c6172204d7573742062652074686520746f6b656e206f776e65722060008201527f746f2061646420746f6b656e7320746f20417574696f6e730000000000000000602082015250565b7f696e76616c69642074696d696e67206f722041756374696f6e2048617320546f60008201527f2042652041637469766520546f20426520456e64656400000000000000000000602082015250565b7f43616e204f6e6c7920557064617465204f776e65727320546f6b656e20557269600082015250565b7f4552433732313a206d696e7420746f20746865207a65726f2061646472657373600082015250565b7f4f776e61626c653a2063616c6c6572206973206e6f7420746865206f776e6572600082015250565b7f4552433732314d657461646174613a2055524920717565727920666f72206e6f60008201527f6e6578697374656e7420746f6b656e0000000000000000000000000000000000602082015250565b7f596f752043616e7420626964206f6e20796f7572206f776e20746f6b656e0000600082015250565b7f496e76616c696420416464726573732c2043616c6c6572204953204e6f74205460008201527f6865204869676874657374204249646465720000000000000000000000000000602082015250565b7f4552433732313a20696e76616c696420746f6b656e2049440000000000000000600082015250565b7f4552433732313a20617070726f76616c20746f2063757272656e74206f776e6560008201527f7200000000000000000000000000000000000000000000000000000000000000602082015250565b7f596f75204d7573742042652054686520546f6b656e204f776e657220546f205260008201527f656163746976617465205468652041756374696f6e0000000000000000000000602082015250565b7f4552433732313a20617070726f76652063616c6c6572206973206e6f7420746f60008201527f6b656e206f776e6572206f7220617070726f76656420666f7220616c6c000000602082015250565b7f455243373231456e756d657261626c653a20676c6f62616c20696e646578206f60008201527f7574206f6620626f756e64730000000000000000000000000000000000000000602082015250565b7f5468697320546f6b656e204973205374696c6c204f6e2041756374696f6e0000600082015250565b7f455243373231456e756d657261626c653a20636f6e736563757469766520747260008201527f616e7366657273206e6f7420737570706f727465640000000000000000000000602082015250565b7f496e7375666963656e742066756e647320666f72206d696e74696e6700000000600082015250565b61618f816155a5565b811461619a57600080fd5b50565b6161a6816155b7565b81146161b157600080fd5b50565b6161bd816155c9565b81146161c857600080fd5b50565b6161d4816155d5565b81146161df57600080fd5b50565b6161eb81615621565b81146161f657600080fd5b5056fea2646970667358221220abb46bf05949e8a23f3c10ac61c3fdc9c28f48977adb37baabf8cea00bdc4c4664736f6c63430008040033",
  "linkReferences": {},
  "deployedLinkReferences": {}
}