{
  "_format": "hh-sol-artifact-1",
  "contractName": "AuctionNFTs",
  "sourceName": "contracts/Auctions.sol",
  "abi": [
    {
      "inputs": [],
      "stateMutability": "nonpayable",
      "type": "constructor"
    },
    {
      "anonymous": false,
      "inputs": [
        {
          "indexed": true,
          "internalType": "address",
          "name": "owner",
          "type": "address"
        },
        {
          "indexed": true,
          "internalType": "address",
          "name": "approved",
          "type": "address"
        },
        {
          "indexed": true,
          "internalType": "uint256",
          "name": "tokenId",
          "type": "uint256"
        }
      ],
      "name": "Approval",
      "type": "event"
    },
    {
      "anonymous": false,
      "inputs": [
        {
          "indexed": true,
          "internalType": "address",
          "name": "owner",
          "type": "address"
        },
        {
          "indexed": true,
          "internalType": "address",
          "name": "operator",
          "type": "address"
        },
        {
          "indexed": false,
          "internalType": "bool",
          "name": "approved",
          "type": "bool"
        }
      ],
      "name": "ApprovalForAll",
      "type": "event"
    },
    {
      "anonymous": false,
      "inputs": [
        {
          "indexed": true,
          "internalType": "address",
          "name": "previousOwner",
          "type": "address"
        },
        {
          "indexed": true,
          "internalType": "address",
          "name": "newOwner",
          "type": "address"
        }
      ],
      "name": "OwnershipTransferred",
      "type": "event"
    },
    {
      "anonymous": false,
      "inputs": [
        {
          "indexed": true,
          "internalType": "address",
          "name": "from",
          "type": "address"
        },
        {
          "indexed": true,
          "internalType": "address",
          "name": "to",
          "type": "address"
        },
        {
          "indexed": true,
          "internalType": "uint256",
          "name": "tokenId",
          "type": "uint256"
        }
      ],
      "name": "Transfer",
      "type": "event"
    },
    {
      "inputs": [],
      "name": "ActiveAucs",
      "outputs": [
        {
          "internalType": "uint256[]",
          "name": "",
          "type": "uint256[]"
        }
      ],
      "stateMutability": "view",
      "type": "function"
    },
    {
      "inputs": [
        {
          "internalType": "uint256",
          "name": "tokenId",
          "type": "uint256"
        }
      ],
      "name": "AddToAutions",
      "outputs": [],
      "stateMutability": "nonpayable",
      "type": "function"
    },
    {
      "inputs": [
        {
          "internalType": "uint256",
          "name": "",
          "type": "uint256"
        }
      ],
      "name": "AllAucs",
      "outputs": [
        {
          "internalType": "uint256",
          "name": "tokenId",
          "type": "uint256"
        },
        {
          "internalType": "address",
          "name": "aucOwner",
          "type": "address"
        },
        {
          "internalType": "uint256",
          "name": "topAucBid",
          "type": "uint256"
        },
        {
          "internalType": "address",
          "name": "topAucBidder",
          "type": "address"
        },
        {
          "internalType": "uint256",
          "name": "biddersCount",
          "type": "uint256"
        },
        {
          "internalType": "uint256",
          "name": "aucIdx",
          "type": "uint256"
        },
        {
          "internalType": "bool",
          "name": "aucOver",
          "type": "bool"
        },
        {
          "internalType": "bool",
          "name": "toPay",
          "type": "bool"
        }
      ],
      "stateMutability": "view",
      "type": "function"
    },
    {
      "inputs": [
        {
          "internalType": "uint256",
          "name": "",
          "type": "uint256"
        },
        {
          "internalType": "address",
          "name": "",
          "type": "address"
        }
      ],
      "name": "AucBidderIdx",
      "outputs": [
        {
          "internalType": "uint256",
          "name": "bidderIdx",
          "type": "uint256"
        },
        {
          "internalType": "address",
          "name": "adr",
          "type": "address"
        },
        {
          "internalType": "uint256",
          "name": "bid",
          "type": "uint256"
        }
      ],
      "stateMutability": "view",
      "type": "function"
    },
    {
      "inputs": [
        {
          "internalType": "uint256",
          "name": "TokenId",
          "type": "uint256"
        }
      ],
      "name": "AucInfo",
      "outputs": [
        {
          "internalType": "uint256",
          "name": "",
          "type": "uint256"
        },
        {
          "internalType": "address",
          "name": "",
          "type": "address"
        }
      ],
      "stateMutability": "view",
      "type": "function"
    },
    {
      "inputs": [
        {
          "internalType": "uint256",
          "name": "tokenId",
          "type": "uint256"
        }
      ],
      "name": "AuctionTopBidder",
      "outputs": [
        {
          "internalType": "address",
          "name": "",
          "type": "address"
        }
      ],
      "stateMutability": "view",
      "type": "function"
    },
    {
      "inputs": [
        {
          "internalType": "uint256",
          "name": "tokenId",
          "type": "uint256"
        },
        {
          "internalType": "uint256",
          "name": "BId",
          "type": "uint256"
        }
      ],
      "name": "BidOnAuc",
      "outputs": [],
      "stateMutability": "nonpayable",
      "type": "function"
    },
    {
      "inputs": [
        {
          "internalType": "uint256",
          "name": "tokenId",
          "type": "uint256"
        }
      ],
      "name": "EndAucByOwner",
      "outputs": [],
      "stateMutability": "nonpayable",
      "type": "function"
    },
    {
      "inputs": [],
      "name": "EndedAucs",
      "outputs": [
        {
          "internalType": "uint256[]",
          "name": "",
          "type": "uint256[]"
        }
      ],
      "stateMutability": "view",
      "type": "function"
    },
    {
      "inputs": [],
      "name": "MAX_SUPPLY",
      "outputs": [
        {
          "internalType": "uint256",
          "name": "",
          "type": "uint256"
        }
      ],
      "stateMutability": "view",
      "type": "function"
    },
    {
      "inputs": [],
      "name": "MINT_PRICE",
      "outputs": [
        {
          "internalType": "uint256",
          "name": "",
          "type": "uint256"
        }
      ],
      "stateMutability": "view",
      "type": "function"
    },
    {
      "inputs": [],
      "name": "OwnWallet",
      "outputs": [
        {
          "internalType": "uint256[]",
          "name": "",
          "type": "uint256[]"
        }
      ],
      "stateMutability": "view",
      "type": "function"
    },
    {
      "inputs": [
        {
          "internalType": "uint256",
          "name": "TokenId",
          "type": "uint256"
        }
      ],
      "name": "ReactivateDeadAuc",
      "outputs": [],
      "stateMutability": "nonpayable",
      "type": "function"
    },
    {
      "inputs": [
        {
          "internalType": "uint256",
          "name": "tokenId",
          "type": "uint256"
        }
      ],
      "name": "ToPay",
      "outputs": [
        {
          "internalType": "bool",
          "name": "",
          "type": "bool"
        }
      ],
      "stateMutability": "view",
      "type": "function"
    },
    {
      "inputs": [
        {
          "internalType": "address payable",
          "name": "item_owner",
          "type": "address"
        },
        {
          "internalType": "uint256",
          "name": "tokenId",
          "type": "uint256"
        }
      ],
      "name": "TransferAucToWinner",
      "outputs": [],
      "stateMutability": "payable",
      "type": "function"
    },
    {
      "inputs": [],
      "name": "_ActAucCount",
      "outputs": [
        {
          "internalType": "uint256",
          "name": "_value",
          "type": "uint256"
        }
      ],
      "stateMutability": "view",
      "type": "function"
    },
    {
      "inputs": [
        {
          "internalType": "uint256",
          "name": "tokenId",
          "type": "uint256"
        },
        {
          "internalType": "string",
          "name": "uri",
          "type": "string"
        }
      ],
      "name": "_setURI",
      "outputs": [],
      "stateMutability": "nonpayable",
      "type": "function"
    },
    {
      "inputs": [
        {
          "internalType": "address",
          "name": "to",
          "type": "address"
        },
        {
          "internalType": "uint256",
          "name": "tokenId",
          "type": "uint256"
        }
      ],
      "name": "approve",
      "outputs": [],
      "stateMutability": "nonpayable",
      "type": "function"
    },
    {
      "inputs": [
        {
          "internalType": "address",
          "name": "owner",
          "type": "address"
        }
      ],
      "name": "balanceOf",
      "outputs": [
        {
          "internalType": "uint256",
          "name": "",
          "type": "uint256"
        }
      ],
      "stateMutability": "view",
      "type": "function"
    },
    {
      "inputs": [
        {
          "internalType": "uint256",
          "name": "tokenId",
          "type": "uint256"
        }
      ],
      "name": "getApproved",
      "outputs": [
        {
          "internalType": "address",
          "name": "",
          "type": "address"
        }
      ],
      "stateMutability": "view",
      "type": "function"
    },
    {
      "inputs": [
        {
          "internalType": "address",
          "name": "owner",
          "type": "address"
        },
        {
          "internalType": "address",
          "name": "operator",
          "type": "address"
        }
      ],
      "name": "isApprovedForAll",
      "outputs": [
        {
          "internalType": "bool",
          "name": "",
          "type": "bool"
        }
      ],
      "stateMutability": "view",
      "type": "function"
    },
    {
      "inputs": [],
      "name": "name",
      "outputs": [
        {
          "internalType": "string",
          "name": "",
          "type": "string"
        }
      ],
      "stateMutability": "view",
      "type": "function"
    },
    {
      "inputs": [],
      "name": "owner",
      "outputs": [
        {
          "internalType": "address",
          "name": "",
          "type": "address"
        }
      ],
      "stateMutability": "view",
      "type": "function"
    },
    {
      "inputs": [
        {
          "internalType": "uint256",
          "name": "tokenId",
          "type": "uint256"
        }
      ],
      "name": "ownerOf",
      "outputs": [
        {
          "internalType": "address",
          "name": "",
          "type": "address"
        }
      ],
      "stateMutability": "view",
      "type": "function"
    },
    {
      "inputs": [],
      "name": "renounceOwnership",
      "outputs": [],
      "stateMutability": "nonpayable",
      "type": "function"
    },
    {
      "inputs": [
        {
          "internalType": "string",
          "name": "uri",
          "type": "string"
        }
      ],
      "name": "safeMint",
      "outputs": [],
      "stateMutability": "payable",
      "type": "function"
    },
    {
      "inputs": [
        {
          "internalType": "address",
          "name": "from",
          "type": "address"
        },
        {
          "internalType": "address",
          "name": "to",
          "type": "address"
        },
        {
          "internalType": "uint256",
          "name": "tokenId",
          "type": "uint256"
        }
      ],
      "name": "safeTransferFrom",
      "outputs": [],
      "stateMutability": "nonpayable",
      "type": "function"
    },
    {
      "inputs": [
        {
          "internalType": "address",
          "name": "from",
          "type": "address"
        },
        {
          "internalType": "address",
          "name": "to",
          "type": "address"
        },
        {
          "internalType": "uint256",
          "name": "tokenId",
          "type": "uint256"
        },
        {
          "internalType": "bytes",
          "name": "data",
          "type": "bytes"
        }
      ],
      "name": "safeTransferFrom",
      "outputs": [],
      "stateMutability": "nonpayable",
      "type": "function"
    },
    {
      "inputs": [
        {
          "internalType": "address",
          "name": "operator",
          "type": "address"
        },
        {
          "internalType": "bool",
          "name": "approved",
          "type": "bool"
        }
      ],
      "name": "setApprovalForAll",
      "outputs": [],
      "stateMutability": "nonpayable",
      "type": "function"
    },
    {
      "inputs": [
        {
          "internalType": "uint256",
          "name": "_newCost",
          "type": "uint256"
        }
      ],
      "name": "setCost",
      "outputs": [],
      "stateMutability": "nonpayable",
      "type": "function"
    },
    {
      "inputs": [
        {
          "internalType": "bytes4",
          "name": "interfaceId",
          "type": "bytes4"
        }
      ],
      "name": "supportsInterface",
      "outputs": [
        {
          "internalType": "bool",
          "name": "",
          "type": "bool"
        }
      ],
      "stateMutability": "view",
      "type": "function"
    },
    {
      "inputs": [],
      "name": "symbol",
      "outputs": [
        {
          "internalType": "string",
          "name": "",
          "type": "string"
        }
      ],
      "stateMutability": "view",
      "type": "function"
    },
    {
      "inputs": [
        {
          "internalType": "uint256",
          "name": "index",
          "type": "uint256"
        }
      ],
      "name": "tokenByIndex",
      "outputs": [
        {
          "internalType": "uint256",
          "name": "",
          "type": "uint256"
        }
      ],
      "stateMutability": "view",
      "type": "function"
    },
    {
      "inputs": [
        {
          "internalType": "address",
          "name": "owner",
          "type": "address"
        },
        {
          "internalType": "uint256",
          "name": "index",
          "type": "uint256"
        }
      ],
      "name": "tokenOfOwnerByIndex",
      "outputs": [
        {
          "internalType": "uint256",
          "name": "",
          "type": "uint256"
        }
      ],
      "stateMutability": "view",
      "type": "function"
    },
    {
      "inputs": [
        {
          "internalType": "uint256",
          "name": "tokenId",
          "type": "uint256"
        }
      ],
      "name": "tokenURI",
      "outputs": [
        {
          "internalType": "string",
          "name": "",
          "type": "string"
        }
      ],
      "stateMutability": "view",
      "type": "function"
    },
    {
      "inputs": [],
      "name": "totalSupply",
      "outputs": [
        {
          "internalType": "uint256",
          "name": "",
          "type": "uint256"
        }
      ],
      "stateMutability": "view",
      "type": "function"
    },
    {
      "inputs": [
        {
          "internalType": "address",
          "name": "from",
          "type": "address"
        },
        {
          "internalType": "address",
          "name": "to",
          "type": "address"
        },
        {
          "internalType": "uint256",
          "name": "tokenId",
          "type": "uint256"
        }
      ],
      "name": "transferFrom",
      "outputs": [],
      "stateMutability": "nonpayable",
      "type": "function"
    },
    {
      "inputs": [
        {
          "internalType": "address",
          "name": "newOwner",
          "type": "address"
        }
      ],
      "name": "transferOwnership",
      "outputs": [],
      "stateMutability": "nonpayable",
      "type": "function"
    },
    {
      "inputs": [],
      "name": "withdrawPayments",
      "outputs": [],
      "stateMutability": "nonpayable",
      "type": "function"
    }
  ],
  "bytecode": "0x6080604052620f4240600f5560006010553480156200001d57600080fd5b506040518060400160405280600b81526020017f41756374696f6e4e4654730000000000000000000000000000000000000000008152506040518060400160405280600381526020017f41544e00000000000000000000000000000000000000000000000000000000008152508160009080519060200190620000a2929190620001df565b508060019080519060200190620000bb929190620001df565b505050620000de620000d2620000fb60201b60201c565b6200010360201b60201c565b620000f5600c620001c960201b620025771760201c565b620002f4565b600033905090565b6000600b60009054906101000a900473ffffffffffffffffffffffffffffffffffffffff16905081600b60006101000a81548173ffffffffffffffffffffffffffffffffffffffff021916908373ffffffffffffffffffffffffffffffffffffffff1602179055508173ffffffffffffffffffffffffffffffffffffffff168173ffffffffffffffffffffffffffffffffffffffff167f8be0079c531659141344cd1fd0a4f28419497f9722a3daafe3b4186f6b6457e060405160405180910390a35050565b6001816000016000828254019250508190555050565b828054620001ed906200028f565b90600052602060002090601f0160209004810192826200021157600085556200025d565b82601f106200022c57805160ff19168380011785556200025d565b828001600101855582156200025d579182015b828111156200025c5782518255916020019190600101906200023f565b5b5090506200026c919062000270565b5090565b5b808211156200028b57600081600090555060010162000271565b5090565b60006002820490506001821680620002a857607f821691505b60208210811415620002bf57620002be620002c5565b5b50919050565b7f4e487b7100000000000000000000000000000000000000000000000000000000600052602260045260246000fd5b615f8d80620003046000396000f3fe6080604052600436106102305760003560e01c806370a082311161012e578063b2530083116100ab578063de20e9f41161006f578063de20e9f41461084c578063e985e9c51461088a578063edcd830f146108c7578063f2fde38b14610906578063fd5412d01461092f57610230565b8063b253008314610767578063b88d4fde14610792578063c002d23d146107bb578063c87b56dd146107e6578063ce82407c1461082357610230565b8063900aba1c116100f2578063900aba1c1461066957806395d89b41146106ad5780639ba17a8e146106d8578063a22cb46514610701578063a23ee8a91461072a57610230565b806370a0823114610596578063715018a6146105d357806385b7fe7c146105ea5780638ac0833f146106155780638da5cb5b1461063e57610230565b806332cb6b0c116101bc5780635cdb7148116101805780635cdb7148146104be5780636103d70b146104fb5780636352211e1461051257806363969ebb1461054f578063695850fb1461057a57610230565b806332cb6b0c146103db5780633da3d9dc1461040657806342842e0e1461042f57806344a0d68a146104585780634f6ccce71461048157610230565b806318160ddd1161020357806318160ddd1461030357806321b8b13c1461032e57806323b872dd146103595780632f745c59146103825780632f94eb93146103bf57610230565b806301ffc9a71461023557806306fdde0314610272578063081812fc1461029d578063095ea7b3146102da575b600080fd5b34801561024157600080fd5b5061025c6004803603810190610257919061437f565b610958565b6040516102699190614c18565b60405180910390f35b34801561027e57600080fd5b5061028761096a565b6040516102949190614c33565b60405180910390f35b3480156102a957600080fd5b506102c460048036038101906102bf9190614412565b6109fc565b6040516102d19190614b8f565b60405180910390f35b3480156102e657600080fd5b5061030160048036038101906102fc9190614343565b610a42565b005b34801561030f57600080fd5b50610318610b5a565b60405161032591906150f5565b60405180910390f35b34801561033a57600080fd5b50610343610b67565b6040516103509190614bf6565b60405180910390f35b34801561036557600080fd5b50610380600480360381019061037b919061423d565b610c5f565b005b34801561038e57600080fd5b506103a960048036038101906103a49190614343565b610cbf565b6040516103b691906150f5565b60405180910390f35b6103d960048036038101906103d491906141c5565b610d64565b005b3480156103e757600080fd5b506103f0610e89565b6040516103fd91906150f5565b60405180910390f35b34801561041257600080fd5b5061042d600480360381019061042891906144cb565b610e8f565b005b34801561043b57600080fd5b506104566004803603810190610451919061423d565b6112bb565b005b34801561046457600080fd5b5061047f600480360381019061047a9190614412565b6112db565b005b34801561048d57600080fd5b506104a860048036038101906104a39190614412565b6112ed565b6040516104b591906150f5565b60405180910390f35b3480156104ca57600080fd5b506104e560048036038101906104e09190614412565b611384565b6040516104f29190614b8f565b60405180910390f35b34801561050757600080fd5b5061051061141c565b005b34801561051e57600080fd5b5061053960048036038101906105349190614412565b611474565b6040516105469190614b8f565b60405180910390f35b34801561055b57600080fd5b506105646114fb565b60405161057191906150f5565b60405180910390f35b610594600480360381019061058f91906143d1565b611507565b005b3480156105a257600080fd5b506105bd60048036038101906105b8919061419c565b611615565b6040516105ca91906150f5565b60405180910390f35b3480156105df57600080fd5b506105e86116cd565b005b3480156105f657600080fd5b506105ff6116e1565b60405161060c9190614bf6565b60405180910390f35b34801561062157600080fd5b5061063c60048036038101906106379190614412565b61186e565b005b34801561064a57600080fd5b50610653611a4b565b6040516106609190614b8f565b60405180910390f35b34801561067557600080fd5b50610690600480360381019061068b9190614412565b611a75565b6040516106a4989796959493929190615170565b60405180910390f35b3480156106b957600080fd5b506106c2611b17565b6040516106cf9190614c33565b60405180910390f35b3480156106e457600080fd5b506106ff60048036038101906106fa9190614477565b611ba9565b005b34801561070d57600080fd5b5061072860048036038101906107239190614307565b611c2d565b005b34801561073657600080fd5b50610751600480360381019061074c9190614412565b611c43565b60405161075e9190614c18565b60405180910390f35b34801561077357600080fd5b5061077c611d14565b6040516107899190614bf6565b60405180910390f35b34801561079e57600080fd5b506107b960048036038101906107b4919061428c565b611ef4565b005b3480156107c757600080fd5b506107d0611f56565b6040516107dd91906150f5565b60405180910390f35b3480156107f257600080fd5b5061080d60048036038101906108089190614412565b611f5c565b60405161081a9190614c33565b60405180910390f35b34801561082f57600080fd5b5061084a60048036038101906108459190614412565b611fb6565b005b34801561085857600080fd5b50610873600480360381019061086e9190614412565b6121ac565b604051610881929190615110565b60405180910390f35b34801561089657600080fd5b506108b160048036038101906108ac9190614201565b61225e565b6040516108be9190614c18565b60405180910390f35b3480156108d357600080fd5b506108ee60048036038101906108e9919061443b565b6122f2565b6040516108fd93929190615139565b60405180910390f35b34801561091257600080fd5b5061092d6004803603810190610928919061419c565b612349565b005b34801561093b57600080fd5b5061095660048036038101906109519190614412565b6123cd565b005b60006109638261258d565b9050919050565b60606000805461097990615443565b80601f01602080910402602001604051908101604052809291908181526020018280546109a590615443565b80156109f25780601f106109c7576101008083540402835291602001916109f2565b820191906000526020600020905b8154815290600101906020018083116109d557829003601f168201915b5050505050905090565b6000610a0782612607565b6004600083815260200190815260200160002060009054906101000a900473ffffffffffffffffffffffffffffffffffffffff169050919050565b6000610a4d82611474565b90508073ffffffffffffffffffffffffffffffffffffffff168373ffffffffffffffffffffffffffffffffffffffff161415610abe576040517f08c379a0000000000000000000000000000000000000000000000000000000008152600401610ab590615015565b60405180910390fd5b8073ffffffffffffffffffffffffffffffffffffffff16610add612652565b73ffffffffffffffffffffffffffffffffffffffff161480610b0c5750610b0b81610b06612652565b61225e565b5b610b4b576040517f08c379a0000000000000000000000000000000000000000000000000000000008152600401610b4290615055565b60405180910390fd5b610b55838361265a565b505050565b6000600880549050905090565b60606000610b7433611615565b905060008167ffffffffffffffff811115610bb8577f4e487b7100000000000000000000000000000000000000000000000000000000600052604160045260246000fd5b604051908082528060200260200182016040528015610be65781602001602082028036833780820191505090505b50905060005b82811015610c5657610bfe3382610cbf565b828281518110610c37577f4e487b7100000000000000000000000000000000000000000000000000000000600052603260045260246000fd5b6020026020010181815250508080610c4e906154a6565b915050610bec565b50809250505090565b610c70610c6a612652565b82612713565b610caf576040517f08c379a0000000000000000000000000000000000000000000000000000000008152600401610ca690614c95565b60405180910390fd5b610cba8383836127a8565b505050565b6000610cca83611615565b8210610d0b576040517f08c379a0000000000000000000000000000000000000000000000000000000008152600401610d0290614cb5565b60405180910390fd5b600660008473ffffffffffffffffffffffffffffffffffffffff1673ffffffffffffffffffffffffffffffffffffffff168152602001908152602001600020600083815260200190815260200160002054905092915050565b610d6d81611384565b73ffffffffffffffffffffffffffffffffffffffff163373ffffffffffffffffffffffffffffffffffffffff1614610dda576040517f08c379a0000000000000000000000000000000000000000000000000000000008152600401610dd190614fd5565b60405180910390fd5b6011600082815260200190815260200160002060020154341015610e33576040517f08c379a0000000000000000000000000000000000000000000000000000000008152600401610e2a90614c55565b60405180910390fd5b8173ffffffffffffffffffffffffffffffffffffffff166108fc349081150290604051600060405180830381858888f19350505050158015610e79573d6000803e3d6000fd5b50610e858233836112bb565b5050565b600f5481565b3373ffffffffffffffffffffffffffffffffffffffff16610eaf83611474565b73ffffffffffffffffffffffffffffffffffffffff161415610f06576040517f08c379a0000000000000000000000000000000000000000000000000000000008152600401610efd90614fb5565b60405180910390fd5b81601160008481526020019081526020016000206000015414610f5e576040517f08c379a0000000000000000000000000000000000000000000000000000000008152600401610f5590614dd5565b60405180910390fd5b6011600083815260200190815260200160002060060160009054906101000a900460ff1615610fc2576040517f08c379a0000000000000000000000000000000000000000000000000000000008152600401610fb990614db5565b60405180910390fd5b3373ffffffffffffffffffffffffffffffffffffffff166012600084815260200190815260200160002060003373ffffffffffffffffffffffffffffffffffffffff1673ffffffffffffffffffffffffffffffffffffffff16815260200190815260200160002060010160009054906101000a900473ffffffffffffffffffffffffffffffffffffffff1673ffffffffffffffffffffffffffffffffffffffff16141561115557806012600084815260200190815260200160002060003373ffffffffffffffffffffffffffffffffffffffff1673ffffffffffffffffffffffffffffffffffffffff16815260200190815260200160002060020181905550806011600084815260200190815260200160002060020154101561115057806011600084815260200190815260200160002060020181905550336011600084815260200190815260200160002060030160006101000a81548173ffffffffffffffffffffffffffffffffffffffff021916908373ffffffffffffffffffffffffffffffffffffffff1602179055505b6112b7565b60006001601160008581526020019081526020016000206004015461117a91906152f1565b905060006012600085815260200190815260200160002060003373ffffffffffffffffffffffffffffffffffffffff1673ffffffffffffffffffffffffffffffffffffffff1681526020019081526020016000209050338160010160006101000a81548173ffffffffffffffffffffffffffffffffffffffff021916908373ffffffffffffffffffffffffffffffffffffffff16021790555082816002018190555081816000018190555082601160008681526020019081526020016000206002015410156112b457826011600086815260200190815260200160002060020181905550336011600086815260200190815260200160002060030160006101000a81548173ffffffffffffffffffffffffffffffffffffffff021916908373ffffffffffffffffffffffffffffffffffffffff1602179055505b50505b5050565b6112d683838360405180602001604052806000815250611ef4565b505050565b6112e3612aa2565b8060108190555050565b60006112f7610b5a565b8210611338576040517f08c379a000000000000000000000000000000000000000000000000000000000815260040161132f90615075565b60405180910390fd5b60088281548110611372577f4e487b7100000000000000000000000000000000000000000000000000000000600052603260045260246000fd5b90600052602060002001549050919050565b6000816011600084815260200190815260200160002060000154146113de576040517f08c379a00000000000000000000000000000000000000000000000000000000081526004016113d590614dd5565b60405180910390fd5b6011600083815260200190815260200160002060030160009054906101000a900473ffffffffffffffffffffffffffffffffffffffff169050919050565b611424612aa2565b61142c611a4b565b73ffffffffffffffffffffffffffffffffffffffff166108fc479081150290604051600060405180830381858888f19350505050158015611471573d6000803e3d6000fd5b50565b60008061148083612b20565b9050600073ffffffffffffffffffffffffffffffffffffffff168173ffffffffffffffffffffffffffffffffffffffff1614156114f2576040517f08c379a00000000000000000000000000000000000000000000000000000000081526004016114e990614ff5565b60405180910390fd5b80915050919050565b600e8060000154905081565b600f54611512610b5a565b10611552576040517f08c379a000000000000000000000000000000000000000000000000000000000815260040161154990614d95565b60405180910390fd5b601054341015611597576040517f08c379a000000000000000000000000000000000000000000000000000000000815260040161158e906150d5565b60405180910390fd5b60006115a3600c612b5d565b90506115af600c612577565b6115b93382612b6b565b6115c38183612b89565b6115cb611a4b565b73ffffffffffffffffffffffffffffffffffffffff166108fc349081150290604051600060405180830381858888f19350505050158015611610573d6000803e3d6000fd5b505050565b60008073ffffffffffffffffffffffffffffffffffffffff168273ffffffffffffffffffffffffffffffffffffffff161415611686576040517f08c379a000000000000000000000000000000000000000000000000000000000815260040161167d90614e75565b60405180910390fd5b600360008373ffffffffffffffffffffffffffffffffffffffff1673ffffffffffffffffffffffffffffffffffffffff168152602001908152602001600020549050919050565b6116d5612aa2565b6116df6000612bfd565b565b606060006116ef600e612b5d565b67ffffffffffffffff81111561172e577f4e487b7100000000000000000000000000000000000000000000000000000000600052604160045260246000fd5b60405190808252806020026020018201604052801561175c5781602001602082028036833780820191505090505b5090506000805b61176d600d612b5d565b81101561186557806011600060018461178691906152f1565b81526020019081526020016000206005015414156118525760001515601160006001846117b391906152f1565b815260200190815260200160002060060160009054906101000a900460ff161515141561185157601160006001836117eb91906152f1565b815260200190815260200160002060000154838381518110611836577f4e487b7100000000000000000000000000000000000000000000000000000000600052603260045260246000fd5b602002602001018181525050818061184d906154a6565b9250505b5b808061185d906154a6565b915050611763565b50819250505090565b61187781611474565b73ffffffffffffffffffffffffffffffffffffffff163373ffffffffffffffffffffffffffffffffffffffff16146118e4576040517f08c379a00000000000000000000000000000000000000000000000000000000081526004016118db90614e35565b60405180910390fd5b8060116000838152602001908152602001600020600001541461193c576040517f08c379a000000000000000000000000000000000000000000000000000000000815260040161193390614e95565b60405180910390fd5b6011600082815260200190815260200160002060060160009054906101000a900460ff16156119a0576040517f08c379a000000000000000000000000000000000000000000000000000000000815260040161199790614f15565b60405180910390fd5b60016011600083815260200190815260200160002060060160006101000a81548160ff02191690831515021790555060016011600083815260200190815260200160002060060160016101000a81548160ff021916908315150217905550611a08600e612cc3565b611a486011600083815260200190815260200160002060030160009054906101000a900473ffffffffffffffffffffffffffffffffffffffff1682610a42565b50565b6000600b60009054906101000a900473ffffffffffffffffffffffffffffffffffffffff16905090565b60116020528060005260406000206000915090508060000154908060010160009054906101000a900473ffffffffffffffffffffffffffffffffffffffff16908060020154908060030160009054906101000a900473ffffffffffffffffffffffffffffffffffffffff16908060040154908060050154908060060160009054906101000a900460ff16908060060160019054906101000a900460ff16905088565b606060018054611b2690615443565b80601f0160208091040260200160405190810160405280929190818152602001828054611b5290615443565b8015611b9f5780601f10611b7457610100808354040283529160200191611b9f565b820191906000526020600020905b815481529060010190602001808311611b8257829003601f168201915b5050505050905090565b3373ffffffffffffffffffffffffffffffffffffffff16611bc983611474565b73ffffffffffffffffffffffffffffffffffffffff1614611c1f576040517f08c379a0000000000000000000000000000000000000000000000000000000008152600401611c1690614f35565b60405180910390fd5b611c298282612b89565b5050565b611c3f611c38612652565b8383612d1f565b5050565b60006011600083815260200190815260200160002060030160009054906101000a900473ffffffffffffffffffffffffffffffffffffffff1673ffffffffffffffffffffffffffffffffffffffff163373ffffffffffffffffffffffffffffffffffffffff1614611ce9576040517f08c379a0000000000000000000000000000000000000000000000000000000008152600401611ce090614c75565b60405180910390fd5b6011600083815260200190815260200160002060060160019054906101000a900460ff169050919050565b60606000611d22600e612b5d565b611d2c600d612b5d565b611d369190615347565b67ffffffffffffffff811115611d75577f4e487b7100000000000000000000000000000000000000000000000000000000600052604160045260246000fd5b604051908082528060200260200182016040528015611da35781602001602082028036833780820191505090505b5090506000805b611db4600d612b5d565b811015611eeb578060116000600184611dcd91906152f1565b8152602001908152602001600020600501541415611ed8576001151560116000600184611dfa91906152f1565b815260200190815260200160002060060160009054906101000a900460ff161515148015611e5b57506001151560116000600184611e3891906152f1565b815260200190815260200160002060060160019054906101000a900460ff161515145b15611ed75760116000600183611e7191906152f1565b815260200190815260200160002060000154838381518110611ebc577f4e487b7100000000000000000000000000000000000000000000000000000000600052603260045260246000fd5b6020026020010181815250508180611ed3906154a6565b9250505b5b8080611ee3906154a6565b915050611daa565b50819250505090565b611f05611eff612652565b83612713565b611f44576040517f08c379a0000000000000000000000000000000000000000000000000000000008152600401611f3b90614c95565b60405180910390fd5b611f5084848484612e8c565b50505050565b60105481565b6060611f6782612ee8565b611fa6576040517f08c379a0000000000000000000000000000000000000000000000000000000008152600401611f9d90614f95565b60405180910390fd5b611faf82612f29565b9050919050565b3373ffffffffffffffffffffffffffffffffffffffff16611fd682611474565b73ffffffffffffffffffffffffffffffffffffffff161461202c576040517f08c379a000000000000000000000000000000000000000000000000000000000815260040161202390615035565b60405180910390fd5b80601160008381526020019081526020016000206000015414612084576040517f08c379a000000000000000000000000000000000000000000000000000000000815260040161207b90614d75565b60405180910390fd5b6011600082815260200190815260200160002060060160009054906101000a900460ff166120e7576040517f08c379a00000000000000000000000000000000000000000000000000000000081526004016120de90615095565b60405180910390fd5b600060116000838152602001908152602001600020600201541115612141576040517f08c379a000000000000000000000000000000000000000000000000000000000815260040161213890614ed5565b60405180910390fd5b60006011600083815260200190815260200160002060060160006101000a81548160ff02191690831515021790555060006011600083815260200190815260200160002060060160016101000a81548160ff0219169083151502179055506121a9600e612577565b50565b60008082601160008581526020019081526020016000206000015414612207576040517f08c379a00000000000000000000000000000000000000000000000000000000081526004016121fe90614dd5565b60405180910390fd5b60116000848152602001908152602001600020600201546011600085815260200190815260200160002060030160009054906101000a900473ffffffffffffffffffffffffffffffffffffffff1691509150915091565b6000600560008473ffffffffffffffffffffffffffffffffffffffff1673ffffffffffffffffffffffffffffffffffffffff16815260200190815260200160002060008373ffffffffffffffffffffffffffffffffffffffff1673ffffffffffffffffffffffffffffffffffffffff16815260200190815260200160002060009054906101000a900460ff16905092915050565b6012602052816000526040600020602052806000526040600020600091509150508060000154908060010160009054906101000a900473ffffffffffffffffffffffffffffffffffffffff16908060020154905083565b612351612aa2565b600073ffffffffffffffffffffffffffffffffffffffff168173ffffffffffffffffffffffffffffffffffffffff1614156123c1576040517f08c379a00000000000000000000000000000000000000000000000000000000081526004016123b890614d15565b60405180910390fd5b6123ca81612bfd565b50565b3373ffffffffffffffffffffffffffffffffffffffff166123ed82611474565b73ffffffffffffffffffffffffffffffffffffffff1614612443576040517f08c379a000000000000000000000000000000000000000000000000000000000815260040161243a90614ef5565b60405180910390fd5b806011600083815260200190815260200160002060000154141561249c576040517f08c379a000000000000000000000000000000000000000000000000000000000815260040161249390614e55565b60405180910390fd5b6000601160008381526020019081526020016000209050818160000181905550338160010160006101000a81548173ffffffffffffffffffffffffffffffffffffffff021916908373ffffffffffffffffffffffffffffffffffffffff160217905550600081600401819055506000816002018190555060008160060160006101000a81548160ff02191690831515021790555060008160060160016101000a81548160ff021916908315150217905550612557600d612b5d565b8160050181905550612569600e612577565b612573600d612577565b5050565b6001816000016000828254019250508190555050565b60007f780e9d63000000000000000000000000000000000000000000000000000000007bffffffffffffffffffffffffffffffffffffffffffffffffffffffff1916827bffffffffffffffffffffffffffffffffffffffffffffffffffffffff1916148061260057506125ff8261303c565b5b9050919050565b61261081612ee8565b61264f576040517f08c379a000000000000000000000000000000000000000000000000000000000815260040161264690614ff5565b60405180910390fd5b50565b600033905090565b816004600083815260200190815260200160002060006101000a81548173ffffffffffffffffffffffffffffffffffffffff021916908373ffffffffffffffffffffffffffffffffffffffff160217905550808273ffffffffffffffffffffffffffffffffffffffff166126cd83611474565b73ffffffffffffffffffffffffffffffffffffffff167f8c5be1e5ebec7d5bd14f71427d1e84f3dd0314c0f7b2291e5b200ac8c7c3b92560405160405180910390a45050565b60008061271f83611474565b90508073ffffffffffffffffffffffffffffffffffffffff168473ffffffffffffffffffffffffffffffffffffffff1614806127615750612760818561225e565b5b8061279f57508373ffffffffffffffffffffffffffffffffffffffff16612787846109fc565b73ffffffffffffffffffffffffffffffffffffffff16145b91505092915050565b8273ffffffffffffffffffffffffffffffffffffffff166127c882611474565b73ffffffffffffffffffffffffffffffffffffffff161461281e576040517f08c379a000000000000000000000000000000000000000000000000000000000815260040161281590614d35565b60405180910390fd5b600073ffffffffffffffffffffffffffffffffffffffff168273ffffffffffffffffffffffffffffffffffffffff16141561288e576040517f08c379a000000000000000000000000000000000000000000000000000000000815260040161288590614df5565b60405180910390fd5b61289b838383600161311e565b8273ffffffffffffffffffffffffffffffffffffffff166128bb82611474565b73ffffffffffffffffffffffffffffffffffffffff1614612911576040517f08c379a000000000000000000000000000000000000000000000000000000000815260040161290890614d35565b60405180910390fd5b6004600082815260200190815260200160002060006101000a81549073ffffffffffffffffffffffffffffffffffffffff02191690556001600360008573ffffffffffffffffffffffffffffffffffffffff1673ffffffffffffffffffffffffffffffffffffffff168152602001908152602001600020600082825403925050819055506001600360008473ffffffffffffffffffffffffffffffffffffffff1673ffffffffffffffffffffffffffffffffffffffff16815260200190815260200160002060008282540192505081905550816002600083815260200190815260200160002060006101000a81548173ffffffffffffffffffffffffffffffffffffffff021916908373ffffffffffffffffffffffffffffffffffffffff160217905550808273ffffffffffffffffffffffffffffffffffffffff168473ffffffffffffffffffffffffffffffffffffffff167fddf252ad1be2c89b69c2b068fc378daa952ba7f163c4a11628f55a4df523b3ef60405160405180910390a4612a9d8383836001613130565b505050565b612aaa612652565b73ffffffffffffffffffffffffffffffffffffffff16612ac8611a4b565b73ffffffffffffffffffffffffffffffffffffffff1614612b1e576040517f08c379a0000000000000000000000000000000000000000000000000000000008152600401612b1590614f75565b60405180910390fd5b565b60006002600083815260200190815260200160002060009054906101000a900473ffffffffffffffffffffffffffffffffffffffff169050919050565b600081600001549050919050565b612b85828260405180602001604052806000815250613136565b5050565b612b9282612ee8565b612bd1576040517f08c379a0000000000000000000000000000000000000000000000000000000008152600401612bc890614eb5565b60405180910390fd5b80600a60008481526020019081526020016000209080519060200190612bf8929190613fab565b505050565b6000600b60009054906101000a900473ffffffffffffffffffffffffffffffffffffffff16905081600b60006101000a81548173ffffffffffffffffffffffffffffffffffffffff021916908373ffffffffffffffffffffffffffffffffffffffff1602179055508173ffffffffffffffffffffffffffffffffffffffff168173ffffffffffffffffffffffffffffffffffffffff167f8be0079c531659141344cd1fd0a4f28419497f9722a3daafe3b4186f6b6457e060405160405180910390a35050565b60008160000154905060008111612d0f576040517f08c379a0000000000000000000000000000000000000000000000000000000008152600401612d0690614cd5565b60405180910390fd5b6001810382600001819055505050565b8173ffffffffffffffffffffffffffffffffffffffff168373ffffffffffffffffffffffffffffffffffffffff161415612d8e576040517f08c379a0000000000000000000000000000000000000000000000000000000008152600401612d8590614e15565b60405180910390fd5b80600560008573ffffffffffffffffffffffffffffffffffffffff1673ffffffffffffffffffffffffffffffffffffffff16815260200190815260200160002060008473ffffffffffffffffffffffffffffffffffffffff1673ffffffffffffffffffffffffffffffffffffffff16815260200190815260200160002060006101000a81548160ff0219169083151502179055508173ffffffffffffffffffffffffffffffffffffffff168373ffffffffffffffffffffffffffffffffffffffff167f17307eab39ab6107e8899845ad3d59bd9653f200f220920489ca2b5937696c3183604051612e7f9190614c18565b60405180910390a3505050565b612e978484846127a8565b612ea384848484613191565b612ee2576040517f08c379a0000000000000000000000000000000000000000000000000000000008152600401612ed990614cf5565b60405180910390fd5b50505050565b60008073ffffffffffffffffffffffffffffffffffffffff16612f0a83612b20565b73ffffffffffffffffffffffffffffffffffffffff1614159050919050565b6060612f3482612607565b6000600a60008481526020019081526020016000208054612f5490615443565b80601f0160208091040260200160405190810160405280929190818152602001828054612f8090615443565b8015612fcd5780601f10612fa257610100808354040283529160200191612fcd565b820191906000526020600020905b815481529060010190602001808311612fb057829003601f168201915b505050505090506000612fde613328565b9050600081511415612ff4578192505050613037565b600082511115613029578082604051602001613011929190614b6b565b60405160208183030381529060405292505050613037565b6130328461333f565b925050505b919050565b60007f80ac58cd000000000000000000000000000000000000000000000000000000007bffffffffffffffffffffffffffffffffffffffffffffffffffffffff1916827bffffffffffffffffffffffffffffffffffffffffffffffffffffffff1916148061310757507f5b5e139f000000000000000000000000000000000000000000000000000000007bffffffffffffffffffffffffffffffffffffffffffffffffffffffff1916827bffffffffffffffffffffffffffffffffffffffffffffffffffffffff1916145b806131175750613116826133a7565b5b9050919050565b61312a84848484613411565b50505050565b50505050565b6131408383613571565b61314d6000848484613191565b61318c576040517f08c379a000000000000000000000000000000000000000000000000000000000815260040161318390614cf5565b60405180910390fd5b505050565b60006131b28473ffffffffffffffffffffffffffffffffffffffff1661378f565b1561331b578373ffffffffffffffffffffffffffffffffffffffff1663150b7a026131db612652565b8786866040518563ffffffff1660e01b81526004016131fd9493929190614baa565b602060405180830381600087803b15801561321757600080fd5b505af192505050801561324857506040513d601f19601f8201168201806040525081019061324591906143a8565b60015b6132cb573d8060008114613278576040519150601f19603f3d011682016040523d82523d6000602084013e61327d565b606091505b506000815114156132c3576040517f08c379a00000000000000000000000000000000000000000000000000000000081526004016132ba90614cf5565b60405180910390fd5b805181602001fd5b63150b7a0260e01b7bffffffffffffffffffffffffffffffffffffffffffffffffffffffff1916817bffffffffffffffffffffffffffffffffffffffffffffffffffffffff191614915050613320565b600190505b949350505050565b606060405180602001604052806000815250905090565b606061334a82612607565b6000613354613328565b90506000815111613374576040518060200160405280600081525061339f565b8061337e846137b2565b60405160200161338f929190614b6b565b6040516020818303038152906040525b915050919050565b60007f01ffc9a7000000000000000000000000000000000000000000000000000000007bffffffffffffffffffffffffffffffffffffffffffffffffffffffff1916827bffffffffffffffffffffffffffffffffffffffffffffffffffffffff1916149050919050565b61341d848484846138d6565b6001811115613461576040517f08c379a0000000000000000000000000000000000000000000000000000000008152600401613458906150b5565b60405180910390fd5b6000829050600073ffffffffffffffffffffffffffffffffffffffff168573ffffffffffffffffffffffffffffffffffffffff1614156134a9576134a4816139fc565b6134e8565b8373ffffffffffffffffffffffffffffffffffffffff168573ffffffffffffffffffffffffffffffffffffffff16146134e7576134e68582613a45565b5b5b600073ffffffffffffffffffffffffffffffffffffffff168473ffffffffffffffffffffffffffffffffffffffff16141561352b5761352681613bb2565b61356a565b8473ffffffffffffffffffffffffffffffffffffffff168473ffffffffffffffffffffffffffffffffffffffff1614613569576135688482613cf5565b5b5b5050505050565b600073ffffffffffffffffffffffffffffffffffffffff168273ffffffffffffffffffffffffffffffffffffffff1614156135e1576040517f08c379a00000000000000000000000000000000000000000000000000000000081526004016135d890614f55565b60405180910390fd5b6135ea81612ee8565b1561362a576040517f08c379a000000000000000000000000000000000000000000000000000000000815260040161362190614d55565b60405180910390fd5b61363860008383600161311e565b61364181612ee8565b15613681576040517f08c379a000000000000000000000000000000000000000000000000000000000815260040161367890614d55565b60405180910390fd5b6001600360008473ffffffffffffffffffffffffffffffffffffffff1673ffffffffffffffffffffffffffffffffffffffff16815260200190815260200160002060008282540192505081905550816002600083815260200190815260200160002060006101000a81548173ffffffffffffffffffffffffffffffffffffffff021916908373ffffffffffffffffffffffffffffffffffffffff160217905550808273ffffffffffffffffffffffffffffffffffffffff16600073ffffffffffffffffffffffffffffffffffffffff167fddf252ad1be2c89b69c2b068fc378daa952ba7f163c4a11628f55a4df523b3ef60405160405180910390a461378b600083836001613130565b5050565b6000808273ffffffffffffffffffffffffffffffffffffffff163b119050919050565b6060600060016137c184613d74565b01905060008167ffffffffffffffff811115613806577f4e487b7100000000000000000000000000000000000000000000000000000000600052604160045260246000fd5b6040519080825280601f01601f1916602001820160405280156138385781602001600182028036833780820191505090505b509050600082602001820190505b6001156138cb578080600190039150507f3031323334353637383961626364656600000000000000000000000000000000600a86061a8153600a85816138b5577f4e487b7100000000000000000000000000000000000000000000000000000000600052601260045260246000fd5b04945060008514156138c6576138cb565b613846565b819350505050919050565b60018111156139f657600073ffffffffffffffffffffffffffffffffffffffff168473ffffffffffffffffffffffffffffffffffffffff161461396a5780600360008673ffffffffffffffffffffffffffffffffffffffff1673ffffffffffffffffffffffffffffffffffffffff16815260200190815260200160002060008282546139629190615347565b925050819055505b600073ffffffffffffffffffffffffffffffffffffffff168373ffffffffffffffffffffffffffffffffffffffff16146139f55780600360008573ffffffffffffffffffffffffffffffffffffffff1673ffffffffffffffffffffffffffffffffffffffff16815260200190815260200160002060008282546139ed91906152f1565b925050819055505b5b50505050565b6008805490506009600083815260200190815260200160002081905550600881908060018154018082558091505060019003906000526020600020016000909190919091505550565b60006001613a5284611615565b613a5c9190615347565b9050600060076000848152602001908152602001600020549050818114613b41576000600660008673ffffffffffffffffffffffffffffffffffffffff1673ffffffffffffffffffffffffffffffffffffffff168152602001908152602001600020600084815260200190815260200160002054905080600660008773ffffffffffffffffffffffffffffffffffffffff1673ffffffffffffffffffffffffffffffffffffffff168152602001908152602001600020600084815260200190815260200160002081905550816007600083815260200190815260200160002081905550505b6007600084815260200190815260200160002060009055600660008573ffffffffffffffffffffffffffffffffffffffff1673ffffffffffffffffffffffffffffffffffffffff16815260200190815260200160002060008381526020019081526020016000206000905550505050565b60006001600880549050613bc69190615347565b9050600060096000848152602001908152602001600020549050600060088381548110613c1c577f4e487b7100000000000000000000000000000000000000000000000000000000600052603260045260246000fd5b906000526020600020015490508060088381548110613c64577f4e487b7100000000000000000000000000000000000000000000000000000000600052603260045260246000fd5b906000526020600020018190555081600960008381526020019081526020016000208190555060096000858152602001908152602001600020600090556008805480613cd9577f4e487b7100000000000000000000000000000000000000000000000000000000600052603160045260246000fd5b6001900381819060005260206000200160009055905550505050565b6000613d0083611615565b905081600660008573ffffffffffffffffffffffffffffffffffffffff1673ffffffffffffffffffffffffffffffffffffffff168152602001908152602001600020600083815260200190815260200160002081905550806007600084815260200190815260200160002081905550505050565b600080600090507a184f03e93ff9f4daa797ed6e38ed64bf6a1f0100000000000000008310613df8577a184f03e93ff9f4daa797ed6e38ed64bf6a1f0100000000000000008381613dee577f4e487b7100000000000000000000000000000000000000000000000000000000600052601260045260246000fd5b0492506040810190505b6d04ee2d6d415b85acef81000000008310613e5b576d04ee2d6d415b85acef81000000008381613e51577f4e487b7100000000000000000000000000000000000000000000000000000000600052601260045260246000fd5b0492506020810190505b662386f26fc100008310613eb057662386f26fc100008381613ea6577f4e487b7100000000000000000000000000000000000000000000000000000000600052601260045260246000fd5b0492506010810190505b6305f5e1008310613eff576305f5e1008381613ef5577f4e487b7100000000000000000000000000000000000000000000000000000000600052601260045260246000fd5b0492506008810190505b6127108310613f4a576127108381613f40577f4e487b7100000000000000000000000000000000000000000000000000000000600052601260045260246000fd5b0492506004810190505b60648310613f935760648381613f89577f4e487b7100000000000000000000000000000000000000000000000000000000600052601260045260246000fd5b0492506002810190505b600a8310613fa2576001810190505b80915050919050565b828054613fb790615443565b90600052602060002090601f016020900481019282613fd95760008555614020565b82601f10613ff257805160ff1916838001178555614020565b82800160010185558215614020579182015b8281111561401f578251825591602001919060010190614004565b5b50905061402d9190614031565b5090565b5b8082111561404a576000816000905550600101614032565b5090565b600061406161405c84615213565b6151ee565b90508281526020810184848401111561407957600080fd5b614084848285615401565b509392505050565b600061409f61409a84615244565b6151ee565b9050828152602081018484840111156140b757600080fd5b6140c2848285615401565b509392505050565b6000813590506140d981615ee4565b92915050565b6000813590506140ee81615efb565b92915050565b60008135905061410381615f12565b92915050565b60008135905061411881615f29565b92915050565b60008151905061412d81615f29565b92915050565b600082601f83011261414457600080fd5b813561415484826020860161404e565b91505092915050565b600082601f83011261416e57600080fd5b813561417e84826020860161408c565b91505092915050565b60008135905061419681615f40565b92915050565b6000602082840312156141ae57600080fd5b60006141bc848285016140ca565b91505092915050565b600080604083850312156141d857600080fd5b60006141e6858286016140df565b92505060206141f785828601614187565b9150509250929050565b6000806040838503121561421457600080fd5b6000614222858286016140ca565b9250506020614233858286016140ca565b9150509250929050565b60008060006060848603121561425257600080fd5b6000614260868287016140ca565b9350506020614271868287016140ca565b925050604061428286828701614187565b9150509250925092565b600080600080608085870312156142a257600080fd5b60006142b0878288016140ca565b94505060206142c1878288016140ca565b93505060406142d287828801614187565b925050606085013567ffffffffffffffff8111156142ef57600080fd5b6142fb87828801614133565b91505092959194509250565b6000806040838503121561431a57600080fd5b6000614328858286016140ca565b9250506020614339858286016140f4565b9150509250929050565b6000806040838503121561435657600080fd5b6000614364858286016140ca565b925050602061437585828601614187565b9150509250929050565b60006020828403121561439157600080fd5b600061439f84828501614109565b91505092915050565b6000602082840312156143ba57600080fd5b60006143c88482850161411e565b91505092915050565b6000602082840312156143e357600080fd5b600082013567ffffffffffffffff8111156143fd57600080fd5b6144098482850161415d565b91505092915050565b60006020828403121561442457600080fd5b600061443284828501614187565b91505092915050565b6000806040838503121561444e57600080fd5b600061445c85828601614187565b925050602061446d858286016140ca565b9150509250929050565b6000806040838503121561448a57600080fd5b600061449885828601614187565b925050602083013567ffffffffffffffff8111156144b557600080fd5b6144c18582860161415d565b9150509250929050565b600080604083850312156144de57600080fd5b60006144ec85828601614187565b92505060206144fd85828601614187565b9150509250929050565b60006145138383614b4d565b60208301905092915050565b6145288161537b565b82525050565b600061453982615285565b61454381856152b3565b935061454e83615275565b8060005b8381101561457f5781516145668882614507565b9750614571836152a6565b925050600181019050614552565b5085935050505092915050565b6145958161539f565b82525050565b60006145a682615290565b6145b081856152c4565b93506145c0818560208601615410565b6145c98161557c565b840191505092915050565b60006145df8261529b565b6145e981856152d5565b93506145f9818560208601615410565b6146028161557c565b840191505092915050565b60006146188261529b565b61462281856152e6565b9350614632818560208601615410565b80840191505092915050565b600061464b6033836152d5565b91506146568261558d565b604082019050919050565b600061466e6029836152d5565b9150614679826155dc565b604082019050919050565b6000614691602d836152d5565b915061469c8261562b565b604082019050919050565b60006146b4602b836152d5565b91506146bf8261567a565b604082019050919050565b60006146d7601b836152d5565b91506146e2826156c9565b602082019050919050565b60006146fa6032836152d5565b9150614705826156f2565b604082019050919050565b600061471d6026836152d5565b915061472882615741565b604082019050919050565b60006147406025836152d5565b915061474b82615790565b604082019050919050565b6000614763601c836152d5565b915061476e826157df565b602082019050919050565b60006147866027836152d5565b915061479182615808565b604082019050919050565b60006147a96018836152d5565b91506147b482615857565b602082019050919050565b60006147cc601d836152d5565b91506147d782615880565b602082019050919050565b60006147ef6026836152d5565b91506147fa826158a9565b604082019050919050565b60006148126024836152d5565b915061481d826158f8565b604082019050919050565b60006148356019836152d5565b915061484082615947565b602082019050919050565b60006148586020836152d5565b915061486382615970565b602082019050919050565b600061487b6041836152d5565b915061488682615999565b606082019050919050565b600061489e6029836152d5565b91506148a982615a0e565b604082019050919050565b60006148c16020836152d5565b91506148cc82615a5d565b602082019050919050565b60006148e4602e836152d5565b91506148ef82615a86565b604082019050919050565b6000614907601f836152d5565b915061491282615ad5565b602082019050919050565b600061492a6038836152d5565b915061493582615afe565b604082019050919050565b600061494d6024836152d5565b915061495882615b4d565b604082019050919050565b60006149706020836152d5565b915061497b82615b9c565b602082019050919050565b60006149936020836152d5565b915061499e82615bc5565b602082019050919050565b60006149b66020836152d5565b91506149c182615bee565b602082019050919050565b60006149d9602f836152d5565b91506149e482615c17565b604082019050919050565b60006149fc601e836152d5565b9150614a0782615c66565b602082019050919050565b6000614a1f6032836152d5565b9150614a2a82615c8f565b604082019050919050565b6000614a426018836152d5565b9150614a4d82615cde565b602082019050919050565b6000614a656021836152d5565b9150614a7082615d07565b604082019050919050565b6000614a886035836152d5565b9150614a9382615d56565b604082019050919050565b6000614aab603d836152d5565b9150614ab682615da5565b604082019050919050565b6000614ace602c836152d5565b9150614ad982615df4565b604082019050919050565b6000614af1601e836152d5565b9150614afc82615e43565b602082019050919050565b6000614b146035836152d5565b9150614b1f82615e6c565b604082019050919050565b6000614b37601c836152d5565b9150614b4282615ebb565b602082019050919050565b614b56816153f7565b82525050565b614b65816153f7565b82525050565b6000614b77828561460d565b9150614b83828461460d565b91508190509392505050565b6000602082019050614ba4600083018461451f565b92915050565b6000608082019050614bbf600083018761451f565b614bcc602083018661451f565b614bd96040830185614b5c565b8181036060830152614beb818461459b565b905095945050505050565b60006020820190508181036000830152614c10818461452e565b905092915050565b6000602082019050614c2d600083018461458c565b92915050565b60006020820190508181036000830152614c4d81846145d4565b905092915050565b60006020820190508181036000830152614c6e8161463e565b9050919050565b60006020820190508181036000830152614c8e81614661565b9050919050565b60006020820190508181036000830152614cae81614684565b9050919050565b60006020820190508181036000830152614cce816146a7565b9050919050565b60006020820190508181036000830152614cee816146ca565b9050919050565b60006020820190508181036000830152614d0e816146ed565b9050919050565b60006020820190508181036000830152614d2e81614710565b9050919050565b60006020820190508181036000830152614d4e81614733565b9050919050565b60006020820190508181036000830152614d6e81614756565b9050919050565b60006020820190508181036000830152614d8e81614779565b9050919050565b60006020820190508181036000830152614dae8161479c565b9050919050565b60006020820190508181036000830152614dce816147bf565b9050919050565b60006020820190508181036000830152614dee816147e2565b9050919050565b60006020820190508181036000830152614e0e81614805565b9050919050565b60006020820190508181036000830152614e2e81614828565b9050919050565b60006020820190508181036000830152614e4e8161484b565b9050919050565b60006020820190508181036000830152614e6e8161486e565b9050919050565b60006020820190508181036000830152614e8e81614891565b9050919050565b60006020820190508181036000830152614eae816148b4565b9050919050565b60006020820190508181036000830152614ece816148d7565b9050919050565b60006020820190508181036000830152614eee816148fa565b9050919050565b60006020820190508181036000830152614f0e8161491d565b9050919050565b60006020820190508181036000830152614f2e81614940565b9050919050565b60006020820190508181036000830152614f4e81614963565b9050919050565b60006020820190508181036000830152614f6e81614986565b9050919050565b60006020820190508181036000830152614f8e816149a9565b9050919050565b60006020820190508181036000830152614fae816149cc565b9050919050565b60006020820190508181036000830152614fce816149ef565b9050919050565b60006020820190508181036000830152614fee81614a12565b9050919050565b6000602082019050818103600083015261500e81614a35565b9050919050565b6000602082019050818103600083015261502e81614a58565b9050919050565b6000602082019050818103600083015261504e81614a7b565b9050919050565b6000602082019050818103600083015261506e81614a9e565b9050919050565b6000602082019050818103600083015261508e81614ac1565b9050919050565b600060208201905081810360008301526150ae81614ae4565b9050919050565b600060208201905081810360008301526150ce81614b07565b9050919050565b600060208201905081810360008301526150ee81614b2a565b9050919050565b600060208201905061510a6000830184614b5c565b92915050565b60006040820190506151256000830185614b5c565b615132602083018461451f565b9392505050565b600060608201905061514e6000830186614b5c565b61515b602083018561451f565b6151686040830184614b5c565b949350505050565b600061010082019050615186600083018b614b5c565b615193602083018a61451f565b6151a06040830189614b5c565b6151ad606083018861451f565b6151ba6080830187614b5c565b6151c760a0830186614b5c565b6151d460c083018561458c565b6151e160e083018461458c565b9998505050505050505050565b60006151f8615209565b90506152048282615475565b919050565b6000604051905090565b600067ffffffffffffffff82111561522e5761522d61554d565b5b6152378261557c565b9050602081019050919050565b600067ffffffffffffffff82111561525f5761525e61554d565b5b6152688261557c565b9050602081019050919050565b6000819050602082019050919050565b600081519050919050565b600081519050919050565b600081519050919050565b6000602082019050919050565b600082825260208201905092915050565b600082825260208201905092915050565b600082825260208201905092915050565b600081905092915050565b60006152fc826153f7565b9150615307836153f7565b9250827fffffffffffffffffffffffffffffffffffffffffffffffffffffffffffffffff0382111561533c5761533b6154ef565b5b828201905092915050565b6000615352826153f7565b915061535d836153f7565b9250828210156153705761536f6154ef565b5b828203905092915050565b6000615386826153d7565b9050919050565b6000615398826153d7565b9050919050565b60008115159050919050565b60007fffffffff0000000000000000000000000000000000000000000000000000000082169050919050565b600073ffffffffffffffffffffffffffffffffffffffff82169050919050565b6000819050919050565b82818337600083830152505050565b60005b8381101561542e578082015181840152602081019050615413565b8381111561543d576000848401525b50505050565b6000600282049050600182168061545b57607f821691505b6020821081141561546f5761546e61551e565b5b50919050565b61547e8261557c565b810181811067ffffffffffffffff8211171561549d5761549c61554d565b5b80604052505050565b60006154b1826153f7565b91507fffffffffffffffffffffffffffffffffffffffffffffffffffffffffffffffff8214156154e4576154e36154ef565b5b600182019050919050565b7f4e487b7100000000000000000000000000000000000000000000000000000000600052601160045260246000fd5b7f4e487b7100000000000000000000000000000000000000000000000000000000600052602260045260246000fd5b7f4e487b7100000000000000000000000000000000000000000000000000000000600052604160045260246000fd5b6000601f19601f8301169050919050565b7f496e76616c6964205061796d656e742c2042696420497320446f6573204e6f7460008201527f20457175616c2048696768746573742042696400000000000000000000000000602082015250565b7f526571756972657320746865206869676865737420426964646572206173207460008201527f68652073656e6465720000000000000000000000000000000000000000000000602082015250565b7f4552433732313a2063616c6c6572206973206e6f7420746f6b656e206f776e6560008201527f72206f7220617070726f76656400000000000000000000000000000000000000602082015250565b7f455243373231456e756d657261626c653a206f776e657220696e646578206f7560008201527f74206f6620626f756e6473000000000000000000000000000000000000000000602082015250565b7f436f756e7465723a2064656372656d656e74206f766572666c6f770000000000600082015250565b7f4552433732313a207472616e7366657220746f206e6f6e20455243373231526560008201527f63656976657220696d706c656d656e7465720000000000000000000000000000602082015250565b7f4f776e61626c653a206e6577206f776e657220697320746865207a65726f206160008201527f6464726573730000000000000000000000000000000000000000000000000000602082015250565b7f4552433732313a207472616e736665722066726f6d20696e636f72726563742060008201527f6f776e6572000000000000000000000000000000000000000000000000000000602082015250565b7f4552433732313a20746f6b656e20616c7265616479206d696e74656400000000600082015250565b7f546f6b656e20486173206e6f74204265656e20416464656420546f205468652060008201527f41756374696f6e00000000000000000000000000000000000000000000000000602082015250565b7f4d617820746f6b656e20737570706c7920726561636865640000000000000000600082015250565b7f41756374696f6e204f6e205468697320546f6b656e204973204f766572000000600082015250565b7f496e76616c696420546f6b656e2c204e6f742050617274204f6620546865204160008201527f756374696f6e0000000000000000000000000000000000000000000000000000602082015250565b7f4552433732313a207472616e7366657220746f20746865207a65726f2061646460008201527f7265737300000000000000000000000000000000000000000000000000000000602082015250565b7f4552433732313a20617070726f766520746f2063616c6c657200000000000000600082015250565b7f526571756972657320746865204f776e6572206173207468652073656e646572600082015250565b7f546f6b656e2048617320416c7265616479204265656e20416464656420546f2060008201527f5468652041756374696f6e204f7220486173204265656e2041756374696f6e6560208201527f6400000000000000000000000000000000000000000000000000000000000000604082015250565b7f4552433732313a2061646472657373207a65726f206973206e6f74206120766160008201527f6c6964206f776e65720000000000000000000000000000000000000000000000602082015250565b7f546f6b656e204973204e6f742050617274204f66205468652041756374696f6e600082015250565b7f45524337323155524953746f726167653a2055524920736574206f66206e6f6e60008201527f6578697374656e7420746f6b656e000000000000000000000000000000000000602082015250565b7f546865726520576173204120426964204f6e20546869732041756374696f6e00600082015250565b7f2043616c6c6172204d7573742062652074686520746f6b656e206f776e65722060008201527f746f2061646420746f6b656e7320746f20417574696f6e730000000000000000602082015250565b7f41756374696f6e2048617320546f2042652041637469766520546f204265204560008201527f6e64656400000000000000000000000000000000000000000000000000000000602082015250565b7f43616e204f6e6c7920557064617465204f776e65727320546f6b656e20557269600082015250565b7f4552433732313a206d696e7420746f20746865207a65726f2061646472657373600082015250565b7f4f776e61626c653a2063616c6c6572206973206e6f7420746865206f776e6572600082015250565b7f4552433732314d657461646174613a2055524920717565727920666f72206e6f60008201527f6e6578697374656e7420746f6b656e0000000000000000000000000000000000602082015250565b7f596f752043616e7420626964206f6e20796f7572206f776e20746f6b656e0000600082015250565b7f496e76616c696420416464726573732c2043616c6c6572204953204e6f74205460008201527f6865204869676874657374204249646465720000000000000000000000000000602082015250565b7f4552433732313a20696e76616c696420746f6b656e2049440000000000000000600082015250565b7f4552433732313a20617070726f76616c20746f2063757272656e74206f776e6560008201527f7200000000000000000000000000000000000000000000000000000000000000602082015250565b7f596f75204d7573742042652054686520546f6b656e204f776e657220546f205260008201527f656163746976617465205468652041756374696f6e0000000000000000000000602082015250565b7f4552433732313a20617070726f76652063616c6c6572206973206e6f7420746f60008201527f6b656e206f776e6572206f7220617070726f76656420666f7220616c6c000000602082015250565b7f455243373231456e756d657261626c653a20676c6f62616c20696e646578206f60008201527f7574206f6620626f756e64730000000000000000000000000000000000000000602082015250565b7f5468697320546f6b656e204973205374696c6c204f6e2041756374696f6e0000600082015250565b7f455243373231456e756d657261626c653a20636f6e736563757469766520747260008201527f616e7366657273206e6f7420737570706f727465640000000000000000000000602082015250565b7f496e7375666963656e742066756e647320666f72206d696e74696e6700000000600082015250565b615eed8161537b565b8114615ef857600080fd5b50565b615f048161538d565b8114615f0f57600080fd5b50565b615f1b8161539f565b8114615f2657600080fd5b50565b615f32816153ab565b8114615f3d57600080fd5b50565b615f49816153f7565b8114615f5457600080fd5b5056fea2646970667358221220851d8367bfadea1f0e9b64743a8e9c96d5087cec67796047e413734137ab87e964736f6c63430008040033",
  "linkReferences": {},
  "deployedLinkReferences": {}
}