{
  "_format": "hh-sol-artifact-1",
  "contractName": "AuctionNFTs",
  "sourceName": "contracts/Auctions.sol",
  "abi": [
    {
      "inputs": [],
      "stateMutability": "nonpayable",
      "type": "constructor"
    },
    {
      "anonymous": false,
      "inputs": [
        {
          "indexed": true,
          "internalType": "address",
          "name": "owner",
          "type": "address"
        },
        {
          "indexed": true,
          "internalType": "address",
          "name": "approved",
          "type": "address"
        },
        {
          "indexed": true,
          "internalType": "uint256",
          "name": "tokenId",
          "type": "uint256"
        }
      ],
      "name": "Approval",
      "type": "event"
    },
    {
      "anonymous": false,
      "inputs": [
        {
          "indexed": true,
          "internalType": "address",
          "name": "owner",
          "type": "address"
        },
        {
          "indexed": true,
          "internalType": "address",
          "name": "operator",
          "type": "address"
        },
        {
          "indexed": false,
          "internalType": "bool",
          "name": "approved",
          "type": "bool"
        }
      ],
      "name": "ApprovalForAll",
      "type": "event"
    },
    {
      "anonymous": false,
      "inputs": [
        {
          "indexed": true,
          "internalType": "address",
          "name": "previousOwner",
          "type": "address"
        },
        {
          "indexed": true,
          "internalType": "address",
          "name": "newOwner",
          "type": "address"
        }
      ],
      "name": "OwnershipTransferred",
      "type": "event"
    },
    {
      "anonymous": false,
      "inputs": [
        {
          "indexed": true,
          "internalType": "address",
          "name": "from",
          "type": "address"
        },
        {
          "indexed": true,
          "internalType": "address",
          "name": "to",
          "type": "address"
        },
        {
          "indexed": true,
          "internalType": "uint256",
          "name": "tokenId",
          "type": "uint256"
        }
      ],
      "name": "Transfer",
      "type": "event"
    },
    {
      "inputs": [],
      "name": "ActiveAucs",
      "outputs": [
        {
          "internalType": "uint256[]",
          "name": "",
          "type": "uint256[]"
        }
      ],
      "stateMutability": "view",
      "type": "function"
    },
    {
      "inputs": [
        {
          "internalType": "uint256",
          "name": "tokenId",
          "type": "uint256"
        },
        {
          "internalType": "uint256",
          "name": "auctime",
          "type": "uint256"
        }
      ],
      "name": "AddToAutions",
      "outputs": [],
      "stateMutability": "nonpayable",
      "type": "function"
    },
    {
      "inputs": [
        {
          "internalType": "uint256",
          "name": "",
          "type": "uint256"
        }
      ],
      "name": "AllAucs",
      "outputs": [
        {
          "internalType": "uint256",
          "name": "tokenId",
          "type": "uint256"
        },
        {
          "internalType": "uint256",
          "name": "auctimestamp",
          "type": "uint256"
        },
        {
          "internalType": "address",
          "name": "aucOwner",
          "type": "address"
        },
        {
          "internalType": "uint256",
          "name": "topAucBid",
          "type": "uint256"
        },
        {
          "internalType": "address",
          "name": "topAucBidder",
          "type": "address"
        },
        {
          "internalType": "uint256",
          "name": "biddersCount",
          "type": "uint256"
        },
        {
          "internalType": "uint256",
          "name": "aucIdx",
          "type": "uint256"
        },
        {
          "internalType": "bool",
          "name": "aucOver",
          "type": "bool"
        },
        {
          "internalType": "bool",
          "name": "toPay",
          "type": "bool"
        }
      ],
      "stateMutability": "view",
      "type": "function"
    },
    {
      "inputs": [
        {
          "internalType": "uint256",
          "name": "",
          "type": "uint256"
        },
        {
          "internalType": "address",
          "name": "",
          "type": "address"
        }
      ],
      "name": "AucBidderIdx",
      "outputs": [
        {
          "internalType": "uint256",
          "name": "bidderIdx",
          "type": "uint256"
        },
        {
          "internalType": "address",
          "name": "adr",
          "type": "address"
        },
        {
          "internalType": "uint256",
          "name": "bid",
          "type": "uint256"
        }
      ],
      "stateMutability": "view",
      "type": "function"
    },
    {
      "inputs": [
        {
          "internalType": "uint256",
          "name": "TokenId",
          "type": "uint256"
        }
      ],
      "name": "AucInfo",
      "outputs": [
        {
          "internalType": "uint256",
          "name": "",
          "type": "uint256"
        },
        {
          "internalType": "address",
          "name": "",
          "type": "address"
        }
      ],
      "stateMutability": "view",
      "type": "function"
    },
    {
      "inputs": [
        {
          "internalType": "uint256",
          "name": "tokenId",
          "type": "uint256"
        }
      ],
      "name": "AuctionTopBidder",
      "outputs": [
        {
          "internalType": "address",
          "name": "",
          "type": "address"
        }
      ],
      "stateMutability": "view",
      "type": "function"
    },
    {
      "inputs": [
        {
          "internalType": "uint256",
          "name": "tokenId",
          "type": "uint256"
        },
        {
          "internalType": "uint256",
          "name": "BId",
          "type": "uint256"
        }
      ],
      "name": "BidOnAuc",
      "outputs": [],
      "stateMutability": "nonpayable",
      "type": "function"
    },
    {
      "inputs": [
        {
          "internalType": "uint256",
          "name": "tokenId",
          "type": "uint256"
        }
      ],
      "name": "EndAucByOwner",
      "outputs": [],
      "stateMutability": "nonpayable",
      "type": "function"
    },
    {
      "inputs": [],
      "name": "EndedAucs",
      "outputs": [
        {
          "internalType": "uint256[]",
          "name": "",
          "type": "uint256[]"
        }
      ],
      "stateMutability": "view",
      "type": "function"
    },
    {
      "inputs": [],
      "name": "MAX_SUPPLY",
      "outputs": [
        {
          "internalType": "uint256",
          "name": "",
          "type": "uint256"
        }
      ],
      "stateMutability": "view",
      "type": "function"
    },
    {
      "inputs": [],
      "name": "MINT_PRICE",
      "outputs": [
        {
          "internalType": "uint256",
          "name": "",
          "type": "uint256"
        }
      ],
      "stateMutability": "view",
      "type": "function"
    },
    {
      "inputs": [],
      "name": "OwnWallet",
      "outputs": [
        {
          "internalType": "uint256[]",
          "name": "",
          "type": "uint256[]"
        }
      ],
      "stateMutability": "view",
      "type": "function"
    },
    {
      "inputs": [
        {
          "internalType": "uint256",
          "name": "TokenId",
          "type": "uint256"
        },
        {
          "internalType": "uint256",
          "name": "auctime",
          "type": "uint256"
        }
      ],
      "name": "ReactivateDeadAuc",
      "outputs": [],
      "stateMutability": "nonpayable",
      "type": "function"
    },
    {
      "inputs": [
        {
          "internalType": "uint256",
          "name": "tokenId",
          "type": "uint256"
        }
      ],
      "name": "ToPay",
      "outputs": [
        {
          "internalType": "bool",
          "name": "",
          "type": "bool"
        }
      ],
      "stateMutability": "view",
      "type": "function"
    },
    {
      "inputs": [
        {
          "internalType": "address payable",
          "name": "item_owner",
          "type": "address"
        },
        {
          "internalType": "uint256",
          "name": "tokenId",
          "type": "uint256"
        }
      ],
      "name": "TransferAucToWinner",
      "outputs": [],
      "stateMutability": "payable",
      "type": "function"
    },
    {
      "inputs": [],
      "name": "_ActAucCount",
      "outputs": [
        {
          "internalType": "uint256",
          "name": "_value",
          "type": "uint256"
        }
      ],
      "stateMutability": "view",
      "type": "function"
    },
    {
      "inputs": [
        {
          "internalType": "uint256",
          "name": "tokenId",
          "type": "uint256"
        },
        {
          "internalType": "string",
          "name": "uri",
          "type": "string"
        }
      ],
      "name": "_setURI",
      "outputs": [],
      "stateMutability": "nonpayable",
      "type": "function"
    },
    {
      "inputs": [
        {
          "internalType": "address",
          "name": "to",
          "type": "address"
        },
        {
          "internalType": "uint256",
          "name": "tokenId",
          "type": "uint256"
        }
      ],
      "name": "approve",
      "outputs": [],
      "stateMutability": "nonpayable",
      "type": "function"
    },
    {
      "inputs": [
        {
          "internalType": "address",
          "name": "owner",
          "type": "address"
        }
      ],
      "name": "balanceOf",
      "outputs": [
        {
          "internalType": "uint256",
          "name": "",
          "type": "uint256"
        }
      ],
      "stateMutability": "view",
      "type": "function"
    },
    {
      "inputs": [
        {
          "internalType": "uint256",
          "name": "tokenId",
          "type": "uint256"
        }
      ],
      "name": "getApproved",
      "outputs": [
        {
          "internalType": "address",
          "name": "",
          "type": "address"
        }
      ],
      "stateMutability": "view",
      "type": "function"
    },
    {
      "inputs": [
        {
          "internalType": "address",
          "name": "owner",
          "type": "address"
        },
        {
          "internalType": "address",
          "name": "operator",
          "type": "address"
        }
      ],
      "name": "isApprovedForAll",
      "outputs": [
        {
          "internalType": "bool",
          "name": "",
          "type": "bool"
        }
      ],
      "stateMutability": "view",
      "type": "function"
    },
    {
      "inputs": [],
      "name": "name",
      "outputs": [
        {
          "internalType": "string",
          "name": "",
          "type": "string"
        }
      ],
      "stateMutability": "view",
      "type": "function"
    },
    {
      "inputs": [],
      "name": "owner",
      "outputs": [
        {
          "internalType": "address",
          "name": "",
          "type": "address"
        }
      ],
      "stateMutability": "view",
      "type": "function"
    },
    {
      "inputs": [
        {
          "internalType": "uint256",
          "name": "tokenId",
          "type": "uint256"
        }
      ],
      "name": "ownerOf",
      "outputs": [
        {
          "internalType": "address",
          "name": "",
          "type": "address"
        }
      ],
      "stateMutability": "view",
      "type": "function"
    },
    {
      "inputs": [],
      "name": "renounceOwnership",
      "outputs": [],
      "stateMutability": "nonpayable",
      "type": "function"
    },
    {
      "inputs": [
        {
          "internalType": "string",
          "name": "uri",
          "type": "string"
        }
      ],
      "name": "safeMint",
      "outputs": [],
      "stateMutability": "payable",
      "type": "function"
    },
    {
      "inputs": [
        {
          "internalType": "address",
          "name": "from",
          "type": "address"
        },
        {
          "internalType": "address",
          "name": "to",
          "type": "address"
        },
        {
          "internalType": "uint256",
          "name": "tokenId",
          "type": "uint256"
        }
      ],
      "name": "safeTransferFrom",
      "outputs": [],
      "stateMutability": "nonpayable",
      "type": "function"
    },
    {
      "inputs": [
        {
          "internalType": "address",
          "name": "from",
          "type": "address"
        },
        {
          "internalType": "address",
          "name": "to",
          "type": "address"
        },
        {
          "internalType": "uint256",
          "name": "tokenId",
          "type": "uint256"
        },
        {
          "internalType": "bytes",
          "name": "data",
          "type": "bytes"
        }
      ],
      "name": "safeTransferFrom",
      "outputs": [],
      "stateMutability": "nonpayable",
      "type": "function"
    },
    {
      "inputs": [
        {
          "internalType": "address",
          "name": "operator",
          "type": "address"
        },
        {
          "internalType": "bool",
          "name": "approved",
          "type": "bool"
        }
      ],
      "name": "setApprovalForAll",
      "outputs": [],
      "stateMutability": "nonpayable",
      "type": "function"
    },
    {
      "inputs": [
        {
          "internalType": "uint256",
          "name": "_newCost",
          "type": "uint256"
        }
      ],
      "name": "setCost",
      "outputs": [],
      "stateMutability": "nonpayable",
      "type": "function"
    },
    {
      "inputs": [
        {
          "internalType": "bytes4",
          "name": "interfaceId",
          "type": "bytes4"
        }
      ],
      "name": "supportsInterface",
      "outputs": [
        {
          "internalType": "bool",
          "name": "",
          "type": "bool"
        }
      ],
      "stateMutability": "view",
      "type": "function"
    },
    {
      "inputs": [],
      "name": "symbol",
      "outputs": [
        {
          "internalType": "string",
          "name": "",
          "type": "string"
        }
      ],
      "stateMutability": "view",
      "type": "function"
    },
    {
      "inputs": [
        {
          "internalType": "uint256",
          "name": "index",
          "type": "uint256"
        }
      ],
      "name": "tokenByIndex",
      "outputs": [
        {
          "internalType": "uint256",
          "name": "",
          "type": "uint256"
        }
      ],
      "stateMutability": "view",
      "type": "function"
    },
    {
      "inputs": [
        {
          "internalType": "address",
          "name": "owner",
          "type": "address"
        },
        {
          "internalType": "uint256",
          "name": "index",
          "type": "uint256"
        }
      ],
      "name": "tokenOfOwnerByIndex",
      "outputs": [
        {
          "internalType": "uint256",
          "name": "",
          "type": "uint256"
        }
      ],
      "stateMutability": "view",
      "type": "function"
    },
    {
      "inputs": [
        {
          "internalType": "uint256",
          "name": "tokenId",
          "type": "uint256"
        }
      ],
      "name": "tokenURI",
      "outputs": [
        {
          "internalType": "string",
          "name": "",
          "type": "string"
        }
      ],
      "stateMutability": "view",
      "type": "function"
    },
    {
      "inputs": [],
      "name": "totalSupply",
      "outputs": [
        {
          "internalType": "uint256",
          "name": "",
          "type": "uint256"
        }
      ],
      "stateMutability": "view",
      "type": "function"
    },
    {
      "inputs": [
        {
          "internalType": "address",
          "name": "from",
          "type": "address"
        },
        {
          "internalType": "address",
          "name": "to",
          "type": "address"
        },
        {
          "internalType": "uint256",
          "name": "tokenId",
          "type": "uint256"
        }
      ],
      "name": "transferFrom",
      "outputs": [],
      "stateMutability": "nonpayable",
      "type": "function"
    },
    {
      "inputs": [
        {
          "internalType": "address",
          "name": "newOwner",
          "type": "address"
        }
      ],
      "name": "transferOwnership",
      "outputs": [],
      "stateMutability": "nonpayable",
      "type": "function"
    },
    {
      "inputs": [],
      "name": "withdrawPayments",
      "outputs": [],
      "stateMutability": "nonpayable",
      "type": "function"
    }
  ],
  "bytecode": "0x6080604052620f4240600f5560006010556101686011553480156200002357600080fd5b506040518060400160405280600b81526020017f41756374696f6e4e4654730000000000000000000000000000000000000000008152506040518060400160405280600381526020017f41544e00000000000000000000000000000000000000000000000000000000008152508160009080519060200190620000a8929190620001e5565b508060019080519060200190620000c1929190620001e5565b505050620000e4620000d86200010160201b60201c565b6200010960201b60201c565b620000fb600c620001cf60201b6200263b1760201c565b620002fa565b600033905090565b6000600b60009054906101000a900473ffffffffffffffffffffffffffffffffffffffff16905081600b60006101000a81548173ffffffffffffffffffffffffffffffffffffffff021916908373ffffffffffffffffffffffffffffffffffffffff1602179055508173ffffffffffffffffffffffffffffffffffffffff168173ffffffffffffffffffffffffffffffffffffffff167f8be0079c531659141344cd1fd0a4f28419497f9722a3daafe3b4186f6b6457e060405160405180910390a35050565b6001816000016000828254019250508190555050565b828054620001f39062000295565b90600052602060002090601f01602090048101928262000217576000855562000263565b82601f106200023257805160ff191683800117855562000263565b8280016001018555821562000263579182015b828111156200026257825182559160200191906001019062000245565b5b50905062000272919062000276565b5090565b5b808211156200029157600081600090555060010162000277565b5090565b60006002820490506001821680620002ae57607f821691505b60208210811415620002c557620002c4620002cb565b5b50919050565b7f4e487b7100000000000000000000000000000000000000000000000000000000600052602260045260246000fd5b615fce806200030a6000396000f3fe6080604052600436106102305760003560e01c806363969ebb1161012e578063a22cb465116100ab578063c87b56dd1161006f578063c87b56dd14610839578063de20e9f414610876578063e985e9c5146108b4578063edcd830f146108f1578063f2fde38b1461093057610230565b8063a22cb46514610754578063a23ee8a91461077d578063b2530083146107ba578063b88d4fde146107e5578063c002d23d1461080e57610230565b80638ac0833f116100f25780638ac0833f146106675780638da5cb5b14610690578063900aba1c146106bb57806395d89b41146107005780639ba17a8e1461072b57610230565b806363969ebb146105a1578063695850fb146105cc57806370a08231146105e8578063715018a61461062557806385b7fe7c1461063c57610230565b80632f94eb93116101bc5780634f6ccce7116101805780634f6ccce7146104aa5780635b2da64b146104e75780635cdb7148146105105780636103d70b1461054d5780636352211e1461056457610230565b80632f94eb93146103e857806332cb6b0c146104045780633da3d9dc1461042f57806342842e0e1461045857806344a0d68a1461048157610230565b80630a5e4198116102035780630a5e41981461030357806318160ddd1461032c57806321b8b13c1461035757806323b872dd146103825780632f745c59146103ab57610230565b806301ffc9a71461023557806306fdde0314610272578063081812fc1461029d578063095ea7b3146102da575b600080fd5b34801561024157600080fd5b5061025c60048036038101906102579190614443565b610959565b6040516102699190614cb9565b60405180910390f35b34801561027e57600080fd5b5061028761096b565b6040516102949190614cd4565b60405180910390f35b3480156102a957600080fd5b506102c460048036038101906102bf91906144d6565b6109fd565b6040516102d19190614c30565b60405180910390f35b3480156102e657600080fd5b5061030160048036038101906102fc9190614407565b610a43565b005b34801561030f57600080fd5b5061032a6004803603810190610325919061458f565b610b5b565b005b34801561033857600080fd5b50610341610d0f565b60405161034e9190615176565b60405180910390f35b34801561036357600080fd5b5061036c610d1c565b6040516103799190614c97565b60405180910390f35b34801561038e57600080fd5b506103a960048036038101906103a49190614301565b610e14565b005b3480156103b757600080fd5b506103d260048036038101906103cd9190614407565b610e74565b6040516103df9190615176565b60405180910390f35b61040260048036038101906103fd9190614289565b610f19565b005b34801561041057600080fd5b5061041961103e565b6040516104269190615176565b60405180910390f35b34801561043b57600080fd5b506104566004803603810190610451919061458f565b611044565b005b34801561046457600080fd5b5061047f600480360381019061047a9190614301565b6114d9565b005b34801561048d57600080fd5b506104a860048036038101906104a391906144d6565b6114f9565b005b3480156104b657600080fd5b506104d160048036038101906104cc91906144d6565b61150b565b6040516104de9190615176565b60405180910390f35b3480156104f357600080fd5b5061050e6004803603810190610509919061458f565b6115a2565b005b34801561051c57600080fd5b50610537600480360381019061053291906144d6565b6117b4565b6040516105449190614c30565b60405180910390f35b34801561055957600080fd5b5061056261184c565b005b34801561057057600080fd5b5061058b600480360381019061058691906144d6565b6118a4565b6040516105989190614c30565b60405180910390f35b3480156105ad57600080fd5b506105b661192b565b6040516105c39190615176565b60405180910390f35b6105e660048036038101906105e19190614495565b611937565b005b3480156105f457600080fd5b5061060f600480360381019061060a9190614260565b611a45565b60405161061c9190615176565b60405180910390f35b34801561063157600080fd5b5061063a611afd565b005b34801561064857600080fd5b50610651611b11565b60405161065e9190614c97565b60405180910390f35b34801561067357600080fd5b5061068e600480360381019061068991906144d6565b611c9e565b005b34801561069c57600080fd5b506106a5611ea9565b6040516106b29190614c30565b60405180910390f35b3480156106c757600080fd5b506106e260048036038101906106dd91906144d6565b611ed3565b6040516106f7999897969594939291906151f1565b60405180910390f35b34801561070c57600080fd5b50610715611f7b565b6040516107229190614cd4565b60405180910390f35b34801561073757600080fd5b50610752600480360381019061074d919061453b565b61200d565b005b34801561076057600080fd5b5061077b600480360381019061077691906143cb565b612091565b005b34801561078957600080fd5b506107a4600480360381019061079f91906144d6565b6120a7565b6040516107b19190614cb9565b60405180910390f35b3480156107c657600080fd5b506107cf612178565b6040516107dc9190614c97565b60405180910390f35b3480156107f157600080fd5b5061080c60048036038101906108079190614350565b612358565b005b34801561081a57600080fd5b506108236123ba565b6040516108309190615176565b60405180910390f35b34801561084557600080fd5b50610860600480360381019061085b91906144d6565b6123c0565b60405161086d9190614cd4565b60405180910390f35b34801561088257600080fd5b5061089d600480360381019061089891906144d6565b61241a565b6040516108ab929190615191565b60405180910390f35b3480156108c057600080fd5b506108db60048036038101906108d691906142c5565b6124cc565b6040516108e89190614cb9565b60405180910390f35b3480156108fd57600080fd5b50610918600480360381019061091391906144ff565b612560565b604051610927939291906151ba565b60405180910390f35b34801561093c57600080fd5b5061095760048036038101906109529190614260565b6125b7565b005b600061096482612651565b9050919050565b60606000805461097a906154d3565b80601f01602080910402602001604051908101604052809291908181526020018280546109a6906154d3565b80156109f35780601f106109c8576101008083540402835291602001916109f3565b820191906000526020600020905b8154815290600101906020018083116109d657829003601f168201915b5050505050905090565b6000610a08826126cb565b6004600083815260200190815260200160002060009054906101000a900473ffffffffffffffffffffffffffffffffffffffff169050919050565b6000610a4e826118a4565b90508073ffffffffffffffffffffffffffffffffffffffff168373ffffffffffffffffffffffffffffffffffffffff161415610abf576040517f08c379a0000000000000000000000000000000000000000000000000000000008152600401610ab690615076565b60405180910390fd5b8073ffffffffffffffffffffffffffffffffffffffff16610ade612716565b73ffffffffffffffffffffffffffffffffffffffff161480610b0d5750610b0c81610b07612716565b6124cc565b5b610b4c576040517f08c379a0000000000000000000000000000000000000000000000000000000008152600401610b43906150b6565b60405180910390fd5b610b56838361271e565b505050565b3373ffffffffffffffffffffffffffffffffffffffff16610b7b836118a4565b73ffffffffffffffffffffffffffffffffffffffff1614610bd1576040517f08c379a0000000000000000000000000000000000000000000000000000000008152600401610bc890614f76565b60405180910390fd5b8160126000848152602001908152602001600020600001541415610c2a576040517f08c379a0000000000000000000000000000000000000000000000000000000008152600401610c2190614ed6565b60405180910390fd5b6000601260008481526020019081526020016000209050828160000181905550338160020160006101000a81548173ffffffffffffffffffffffffffffffffffffffff021916908373ffffffffffffffffffffffffffffffffffffffff160217905550600081600501819055506000816003018190555060008160070160006101000a81548160ff02191690831515021790555060008160070160016101000a81548160ff021916908315150217905550818160010181905550610cee600d6127d7565b8160060181905550610d00600e61263b565b610d0a600d61263b565b505050565b6000600880549050905090565b60606000610d2933611a45565b905060008167ffffffffffffffff811115610d6d577f4e487b7100000000000000000000000000000000000000000000000000000000600052604160045260246000fd5b604051908082528060200260200182016040528015610d9b5781602001602082028036833780820191505090505b50905060005b82811015610e0b57610db33382610e74565b828281518110610dec577f4e487b7100000000000000000000000000000000000000000000000000000000600052603260045260246000fd5b6020026020010181815250508080610e0390615536565b915050610da1565b50809250505090565b610e25610e1f612716565b826127e5565b610e64576040517f08c379a0000000000000000000000000000000000000000000000000000000008152600401610e5b90614d36565b60405180910390fd5b610e6f83838361287a565b505050565b6000610e7f83611a45565b8210610ec0576040517f08c379a0000000000000000000000000000000000000000000000000000000008152600401610eb790614d56565b60405180910390fd5b600660008473ffffffffffffffffffffffffffffffffffffffff1673ffffffffffffffffffffffffffffffffffffffff168152602001908152602001600020600083815260200190815260200160002054905092915050565b610f22816117b4565b73ffffffffffffffffffffffffffffffffffffffff163373ffffffffffffffffffffffffffffffffffffffff1614610f8f576040517f08c379a0000000000000000000000000000000000000000000000000000000008152600401610f8690615036565b60405180910390fd5b6012600082815260200190815260200160002060030154341015610fe8576040517f08c379a0000000000000000000000000000000000000000000000000000000008152600401610fdf90614cf6565b60405180910390fd5b8173ffffffffffffffffffffffffffffffffffffffff166108fc349081150290604051600060405180830381858888f1935050505015801561102e573d6000803e3d6000fd5b5061103a8233836114d9565b5050565b600f5481565b3373ffffffffffffffffffffffffffffffffffffffff16611064836118a4565b73ffffffffffffffffffffffffffffffffffffffff1614156110bb576040517f08c379a00000000000000000000000000000000000000000000000000000000081526004016110b290615016565b60405180910390fd5b81601260008481526020019081526020016000206000015414611113576040517f08c379a000000000000000000000000000000000000000000000000000000000815260040161110a90614e56565b60405180910390fd5b4260115460126000858152602001908152602001600020600101546111389190615381565b11801561115a5750426012600084815260200190815260200160002060010154105b801561118757506012600083815260200190815260200160002060070160009054906101000a900460ff16155b6111c6576040517f08c379a00000000000000000000000000000000000000000000000000000000081526004016111bd90615156565b60405180910390fd5b3373ffffffffffffffffffffffffffffffffffffffff166013600084815260200190815260200160002060003373ffffffffffffffffffffffffffffffffffffffff1673ffffffffffffffffffffffffffffffffffffffff16815260200190815260200160002060010160009054906101000a900473ffffffffffffffffffffffffffffffffffffffff1673ffffffffffffffffffffffffffffffffffffffff16141561135957806013600084815260200190815260200160002060003373ffffffffffffffffffffffffffffffffffffffff1673ffffffffffffffffffffffffffffffffffffffff16815260200190815260200160002060020181905550806012600084815260200190815260200160002060030154101561135457806012600084815260200190815260200160002060030181905550336012600084815260200190815260200160002060040160006101000a81548173ffffffffffffffffffffffffffffffffffffffff021916908373ffffffffffffffffffffffffffffffffffffffff1602179055505b6114d5565b60006013600084815260200190815260200160002060003373ffffffffffffffffffffffffffffffffffffffff1673ffffffffffffffffffffffffffffffffffffffff1681526020019081526020016000209050338160010160006101000a81548173ffffffffffffffffffffffffffffffffffffffff021916908373ffffffffffffffffffffffffffffffffffffffff1602179055508181600201819055506012600084815260200190815260200160002060050154816000018190555060126000848152602001908152602001600020600501600081548092919061143f90615536565b919050555081601260008581526020019081526020016000206003015410156114d357816012600085815260200190815260200160002060030181905550336012600085815260200190815260200160002060040160006101000a81548173ffffffffffffffffffffffffffffffffffffffff021916908373ffffffffffffffffffffffffffffffffffffffff1602179055505b505b5050565b6114f483838360405180602001604052806000815250612358565b505050565b611501612b74565b8060108190555050565b6000611515610d0f565b8210611556576040517f08c379a000000000000000000000000000000000000000000000000000000000815260040161154d906150d6565b60405180910390fd5b60088281548110611590577f4e487b7100000000000000000000000000000000000000000000000000000000600052603260045260246000fd5b90600052602060002001549050919050565b3373ffffffffffffffffffffffffffffffffffffffff166115c2836118a4565b73ffffffffffffffffffffffffffffffffffffffff1614611618576040517f08c379a000000000000000000000000000000000000000000000000000000000815260040161160f90615096565b60405180910390fd5b81601260008481526020019081526020016000206000015414611670576040517f08c379a000000000000000000000000000000000000000000000000000000000815260040161166790614e16565b60405180910390fd5b6012600083815260200190815260200160002060070160009054906101000a900460ff166116d3576040517f08c379a00000000000000000000000000000000000000000000000000000000081526004016116ca906150f6565b60405180910390fd5b60006012600084815260200190815260200160002060030154111561172d576040517f08c379a000000000000000000000000000000000000000000000000000000000815260040161172490614f56565b60405180910390fd5b60006012600084815260200190815260200160002060070160006101000a81548160ff02191690831515021790555060006012600084815260200190815260200160002060070160016101000a81548160ff0219169083151502179055508060126000848152602001908152602001600020600101819055506117b0600e61263b565b5050565b60008160126000848152602001908152602001600020600001541461180e576040517f08c379a000000000000000000000000000000000000000000000000000000000815260040161180590614e56565b60405180910390fd5b6012600083815260200190815260200160002060040160009054906101000a900473ffffffffffffffffffffffffffffffffffffffff169050919050565b611854612b74565b61185c611ea9565b73ffffffffffffffffffffffffffffffffffffffff166108fc479081150290604051600060405180830381858888f193505050501580156118a1573d6000803e3d6000fd5b50565b6000806118b083612bf2565b9050600073ffffffffffffffffffffffffffffffffffffffff168173ffffffffffffffffffffffffffffffffffffffff161415611922576040517f08c379a000000000000000000000000000000000000000000000000000000000815260040161191990615056565b60405180910390fd5b80915050919050565b600e8060000154905081565b600f54611942610d0f565b10611982576040517f08c379a000000000000000000000000000000000000000000000000000000000815260040161197990614e36565b60405180910390fd5b6010543410156119c7576040517f08c379a00000000000000000000000000000000000000000000000000000000081526004016119be90615136565b60405180910390fd5b60006119d3600c6127d7565b90506119df600c61263b565b6119e93382612c2f565b6119f38183612c4d565b6119fb611ea9565b73ffffffffffffffffffffffffffffffffffffffff166108fc349081150290604051600060405180830381858888f19350505050158015611a40573d6000803e3d6000fd5b505050565b60008073ffffffffffffffffffffffffffffffffffffffff168273ffffffffffffffffffffffffffffffffffffffff161415611ab6576040517f08c379a0000000000000000000000000000000000000000000000000000000008152600401611aad90614ef6565b60405180910390fd5b600360008373ffffffffffffffffffffffffffffffffffffffff1673ffffffffffffffffffffffffffffffffffffffff168152602001908152602001600020549050919050565b611b05612b74565b611b0f6000612cc1565b565b60606000611b1f600e6127d7565b67ffffffffffffffff811115611b5e577f4e487b7100000000000000000000000000000000000000000000000000000000600052604160045260246000fd5b604051908082528060200260200182016040528015611b8c5781602001602082028036833780820191505090505b5090506000805b611b9d600d6127d7565b811015611c95578060126000600184611bb69190615381565b8152602001908152602001600020600601541415611c82576000151560126000600184611be39190615381565b815260200190815260200160002060070160009054906101000a900460ff1615151415611c815760126000600183611c1b9190615381565b815260200190815260200160002060000154838381518110611c66577f4e487b7100000000000000000000000000000000000000000000000000000000600052603260045260246000fd5b6020026020010181815250508180611c7d90615536565b9250505b5b8080611c8d90615536565b915050611b93565b50819250505090565b611ca7816118a4565b73ffffffffffffffffffffffffffffffffffffffff163373ffffffffffffffffffffffffffffffffffffffff1614611d14576040517f08c379a0000000000000000000000000000000000000000000000000000000008152600401611d0b90614eb6565b60405180910390fd5b80601260008381526020019081526020016000206000015414611d6c576040517f08c379a0000000000000000000000000000000000000000000000000000000008152600401611d6390614f16565b60405180910390fd5b426011546012600084815260200190815260200160002060010154611d919190615381565b108015611dbf57506012600082815260200190815260200160002060070160009054906101000a900460ff16155b611dfe576040517f08c379a0000000000000000000000000000000000000000000000000000000008152600401611df590615156565b60405180910390fd5b60016012600083815260200190815260200160002060070160006101000a81548160ff02191690831515021790555060016012600083815260200190815260200160002060070160016101000a81548160ff021916908315150217905550611e66600e612d87565b611ea66012600083815260200190815260200160002060040160009054906101000a900473ffffffffffffffffffffffffffffffffffffffff1682610a43565b50565b6000600b60009054906101000a900473ffffffffffffffffffffffffffffffffffffffff16905090565b60126020528060005260406000206000915090508060000154908060010154908060020160009054906101000a900473ffffffffffffffffffffffffffffffffffffffff16908060030154908060040160009054906101000a900473ffffffffffffffffffffffffffffffffffffffff16908060050154908060060154908060070160009054906101000a900460ff16908060070160019054906101000a900460ff16905089565b606060018054611f8a906154d3565b80601f0160208091040260200160405190810160405280929190818152602001828054611fb6906154d3565b80156120035780601f10611fd857610100808354040283529160200191612003565b820191906000526020600020905b815481529060010190602001808311611fe657829003601f168201915b5050505050905090565b3373ffffffffffffffffffffffffffffffffffffffff1661202d836118a4565b73ffffffffffffffffffffffffffffffffffffffff1614612083576040517f08c379a000000000000000000000000000000000000000000000000000000000815260040161207a90614f96565b60405180910390fd5b61208d8282612c4d565b5050565b6120a361209c612716565b8383612de3565b5050565b60006012600083815260200190815260200160002060040160009054906101000a900473ffffffffffffffffffffffffffffffffffffffff1673ffffffffffffffffffffffffffffffffffffffff163373ffffffffffffffffffffffffffffffffffffffff161461214d576040517f08c379a000000000000000000000000000000000000000000000000000000000815260040161214490614d16565b60405180910390fd5b6012600083815260200190815260200160002060070160019054906101000a900460ff169050919050565b60606000612186600e6127d7565b612190600d6127d7565b61219a91906153d7565b67ffffffffffffffff8111156121d9577f4e487b7100000000000000000000000000000000000000000000000000000000600052604160045260246000fd5b6040519080825280602002602001820160405280156122075781602001602082028036833780820191505090505b5090506000805b612218600d6127d7565b81101561234f5780601260006001846122319190615381565b815260200190815260200160002060060154141561233c57600115156012600060018461225e9190615381565b815260200190815260200160002060070160009054906101000a900460ff1615151480156122bf5750600115156012600060018461229c9190615381565b815260200190815260200160002060070160019054906101000a900460ff161515145b1561233b57601260006001836122d59190615381565b815260200190815260200160002060000154838381518110612320577f4e487b7100000000000000000000000000000000000000000000000000000000600052603260045260246000fd5b602002602001018181525050818061233790615536565b9250505b5b808061234790615536565b91505061220e565b50819250505090565b612369612363612716565b836127e5565b6123a8576040517f08c379a000000000000000000000000000000000000000000000000000000000815260040161239f90614d36565b60405180910390fd5b6123b484848484612f50565b50505050565b60105481565b60606123cb82612fac565b61240a576040517f08c379a000000000000000000000000000000000000000000000000000000000815260040161240190614ff6565b60405180910390fd5b61241382612fed565b9050919050565b60008082601260008581526020019081526020016000206000015414612475576040517f08c379a000000000000000000000000000000000000000000000000000000000815260040161246c90614e56565b60405180910390fd5b60126000848152602001908152602001600020600301546012600085815260200190815260200160002060040160009054906101000a900473ffffffffffffffffffffffffffffffffffffffff1691509150915091565b6000600560008473ffffffffffffffffffffffffffffffffffffffff1673ffffffffffffffffffffffffffffffffffffffff16815260200190815260200160002060008373ffffffffffffffffffffffffffffffffffffffff1673ffffffffffffffffffffffffffffffffffffffff16815260200190815260200160002060009054906101000a900460ff16905092915050565b6013602052816000526040600020602052806000526040600020600091509150508060000154908060010160009054906101000a900473ffffffffffffffffffffffffffffffffffffffff16908060020154905083565b6125bf612b74565b600073ffffffffffffffffffffffffffffffffffffffff168173ffffffffffffffffffffffffffffffffffffffff16141561262f576040517f08c379a000000000000000000000000000000000000000000000000000000000815260040161262690614db6565b60405180910390fd5b61263881612cc1565b50565b6001816000016000828254019250508190555050565b60007f780e9d63000000000000000000000000000000000000000000000000000000007bffffffffffffffffffffffffffffffffffffffffffffffffffffffff1916827bffffffffffffffffffffffffffffffffffffffffffffffffffffffff191614806126c457506126c382613100565b5b9050919050565b6126d481612fac565b612713576040517f08c379a000000000000000000000000000000000000000000000000000000000815260040161270a90615056565b60405180910390fd5b50565b600033905090565b816004600083815260200190815260200160002060006101000a81548173ffffffffffffffffffffffffffffffffffffffff021916908373ffffffffffffffffffffffffffffffffffffffff160217905550808273ffffffffffffffffffffffffffffffffffffffff16612791836118a4565b73ffffffffffffffffffffffffffffffffffffffff167f8c5be1e5ebec7d5bd14f71427d1e84f3dd0314c0f7b2291e5b200ac8c7c3b92560405160405180910390a45050565b600081600001549050919050565b6000806127f1836118a4565b90508073ffffffffffffffffffffffffffffffffffffffff168473ffffffffffffffffffffffffffffffffffffffff161480612833575061283281856124cc565b5b8061287157508373ffffffffffffffffffffffffffffffffffffffff16612859846109fd565b73ffffffffffffffffffffffffffffffffffffffff16145b91505092915050565b8273ffffffffffffffffffffffffffffffffffffffff1661289a826118a4565b73ffffffffffffffffffffffffffffffffffffffff16146128f0576040517f08c379a00000000000000000000000000000000000000000000000000000000081526004016128e790614dd6565b60405180910390fd5b600073ffffffffffffffffffffffffffffffffffffffff168273ffffffffffffffffffffffffffffffffffffffff161415612960576040517f08c379a000000000000000000000000000000000000000000000000000000000815260040161295790614e76565b60405180910390fd5b61296d83838360016131e2565b8273ffffffffffffffffffffffffffffffffffffffff1661298d826118a4565b73ffffffffffffffffffffffffffffffffffffffff16146129e3576040517f08c379a00000000000000000000000000000000000000000000000000000000081526004016129da90614dd6565b60405180910390fd5b6004600082815260200190815260200160002060006101000a81549073ffffffffffffffffffffffffffffffffffffffff02191690556001600360008573ffffffffffffffffffffffffffffffffffffffff1673ffffffffffffffffffffffffffffffffffffffff168152602001908152602001600020600082825403925050819055506001600360008473ffffffffffffffffffffffffffffffffffffffff1673ffffffffffffffffffffffffffffffffffffffff16815260200190815260200160002060008282540192505081905550816002600083815260200190815260200160002060006101000a81548173ffffffffffffffffffffffffffffffffffffffff021916908373ffffffffffffffffffffffffffffffffffffffff160217905550808273ffffffffffffffffffffffffffffffffffffffff168473ffffffffffffffffffffffffffffffffffffffff167fddf252ad1be2c89b69c2b068fc378daa952ba7f163c4a11628f55a4df523b3ef60405160405180910390a4612b6f83838360016131f4565b505050565b612b7c612716565b73ffffffffffffffffffffffffffffffffffffffff16612b9a611ea9565b73ffffffffffffffffffffffffffffffffffffffff1614612bf0576040517f08c379a0000000000000000000000000000000000000000000000000000000008152600401612be790614fd6565b60405180910390fd5b565b60006002600083815260200190815260200160002060009054906101000a900473ffffffffffffffffffffffffffffffffffffffff169050919050565b612c498282604051806020016040528060008152506131fa565b5050565b612c5682612fac565b612c95576040517f08c379a0000000000000000000000000000000000000000000000000000000008152600401612c8c90614f36565b60405180910390fd5b80600a60008481526020019081526020016000209080519060200190612cbc92919061406f565b505050565b6000600b60009054906101000a900473ffffffffffffffffffffffffffffffffffffffff16905081600b60006101000a81548173ffffffffffffffffffffffffffffffffffffffff021916908373ffffffffffffffffffffffffffffffffffffffff1602179055508173ffffffffffffffffffffffffffffffffffffffff168173ffffffffffffffffffffffffffffffffffffffff167f8be0079c531659141344cd1fd0a4f28419497f9722a3daafe3b4186f6b6457e060405160405180910390a35050565b60008160000154905060008111612dd3576040517f08c379a0000000000000000000000000000000000000000000000000000000008152600401612dca90614d76565b60405180910390fd5b6001810382600001819055505050565b8173ffffffffffffffffffffffffffffffffffffffff168373ffffffffffffffffffffffffffffffffffffffff161415612e52576040517f08c379a0000000000000000000000000000000000000000000000000000000008152600401612e4990614e96565b60405180910390fd5b80600560008573ffffffffffffffffffffffffffffffffffffffff1673ffffffffffffffffffffffffffffffffffffffff16815260200190815260200160002060008473ffffffffffffffffffffffffffffffffffffffff1673ffffffffffffffffffffffffffffffffffffffff16815260200190815260200160002060006101000a81548160ff0219169083151502179055508173ffffffffffffffffffffffffffffffffffffffff168373ffffffffffffffffffffffffffffffffffffffff167f17307eab39ab6107e8899845ad3d59bd9653f200f220920489ca2b5937696c3183604051612f439190614cb9565b60405180910390a3505050565b612f5b84848461287a565b612f6784848484613255565b612fa6576040517f08c379a0000000000000000000000000000000000000000000000000000000008152600401612f9d90614d96565b60405180910390fd5b50505050565b60008073ffffffffffffffffffffffffffffffffffffffff16612fce83612bf2565b73ffffffffffffffffffffffffffffffffffffffff1614159050919050565b6060612ff8826126cb565b6000600a60008481526020019081526020016000208054613018906154d3565b80601f0160208091040260200160405190810160405280929190818152602001828054613044906154d3565b80156130915780601f1061306657610100808354040283529160200191613091565b820191906000526020600020905b81548152906001019060200180831161307457829003601f168201915b5050505050905060006130a26133ec565b90506000815114156130b85781925050506130fb565b6000825111156130ed5780826040516020016130d5929190614c0c565b604051602081830303815290604052925050506130fb565b6130f684613403565b925050505b919050565b60007f80ac58cd000000000000000000000000000000000000000000000000000000007bffffffffffffffffffffffffffffffffffffffffffffffffffffffff1916827bffffffffffffffffffffffffffffffffffffffffffffffffffffffff191614806131cb57507f5b5e139f000000000000000000000000000000000000000000000000000000007bffffffffffffffffffffffffffffffffffffffffffffffffffffffff1916827bffffffffffffffffffffffffffffffffffffffffffffffffffffffff1916145b806131db57506131da8261346b565b5b9050919050565b6131ee848484846134d5565b50505050565b50505050565b6132048383613635565b6132116000848484613255565b613250576040517f08c379a000000000000000000000000000000000000000000000000000000000815260040161324790614d96565b60405180910390fd5b505050565b60006132768473ffffffffffffffffffffffffffffffffffffffff16613853565b156133df578373ffffffffffffffffffffffffffffffffffffffff1663150b7a0261329f612716565b8786866040518563ffffffff1660e01b81526004016132c19493929190614c4b565b602060405180830381600087803b1580156132db57600080fd5b505af192505050801561330c57506040513d601f19601f82011682018060405250810190613309919061446c565b60015b61338f573d806000811461333c576040519150601f19603f3d011682016040523d82523d6000602084013e613341565b606091505b50600081511415613387576040517f08c379a000000000000000000000000000000000000000000000000000000000815260040161337e90614d96565b60405180910390fd5b805181602001fd5b63150b7a0260e01b7bffffffffffffffffffffffffffffffffffffffffffffffffffffffff1916817bffffffffffffffffffffffffffffffffffffffffffffffffffffffff1916149150506133e4565b600190505b949350505050565b606060405180602001604052806000815250905090565b606061340e826126cb565b60006134186133ec565b905060008151116134385760405180602001604052806000815250613463565b8061344284613876565b604051602001613453929190614c0c565b6040516020818303038152906040525b915050919050565b60007f01ffc9a7000000000000000000000000000000000000000000000000000000007bffffffffffffffffffffffffffffffffffffffffffffffffffffffff1916827bffffffffffffffffffffffffffffffffffffffffffffffffffffffff1916149050919050565b6134e18484848461399a565b6001811115613525576040517f08c379a000000000000000000000000000000000000000000000000000000000815260040161351c90615116565b60405180910390fd5b6000829050600073ffffffffffffffffffffffffffffffffffffffff168573ffffffffffffffffffffffffffffffffffffffff16141561356d5761356881613ac0565b6135ac565b8373ffffffffffffffffffffffffffffffffffffffff168573ffffffffffffffffffffffffffffffffffffffff16146135ab576135aa8582613b09565b5b5b600073ffffffffffffffffffffffffffffffffffffffff168473ffffffffffffffffffffffffffffffffffffffff1614156135ef576135ea81613c76565b61362e565b8473ffffffffffffffffffffffffffffffffffffffff168473ffffffffffffffffffffffffffffffffffffffff161461362d5761362c8482613db9565b5b5b5050505050565b600073ffffffffffffffffffffffffffffffffffffffff168273ffffffffffffffffffffffffffffffffffffffff1614156136a5576040517f08c379a000000000000000000000000000000000000000000000000000000000815260040161369c90614fb6565b60405180910390fd5b6136ae81612fac565b156136ee576040517f08c379a00000000000000000000000000000000000000000000000000000000081526004016136e590614df6565b60405180910390fd5b6136fc6000838360016131e2565b61370581612fac565b15613745576040517f08c379a000000000000000000000000000000000000000000000000000000000815260040161373c90614df6565b60405180910390fd5b6001600360008473ffffffffffffffffffffffffffffffffffffffff1673ffffffffffffffffffffffffffffffffffffffff16815260200190815260200160002060008282540192505081905550816002600083815260200190815260200160002060006101000a81548173ffffffffffffffffffffffffffffffffffffffff021916908373ffffffffffffffffffffffffffffffffffffffff160217905550808273ffffffffffffffffffffffffffffffffffffffff16600073ffffffffffffffffffffffffffffffffffffffff167fddf252ad1be2c89b69c2b068fc378daa952ba7f163c4a11628f55a4df523b3ef60405160405180910390a461384f6000838360016131f4565b5050565b6000808273ffffffffffffffffffffffffffffffffffffffff163b119050919050565b60606000600161388584613e38565b01905060008167ffffffffffffffff8111156138ca577f4e487b7100000000000000000000000000000000000000000000000000000000600052604160045260246000fd5b6040519080825280601f01601f1916602001820160405280156138fc5781602001600182028036833780820191505090505b509050600082602001820190505b60011561398f578080600190039150507f3031323334353637383961626364656600000000000000000000000000000000600a86061a8153600a8581613979577f4e487b7100000000000000000000000000000000000000000000000000000000600052601260045260246000fd5b049450600085141561398a5761398f565b61390a565b819350505050919050565b6001811115613aba57600073ffffffffffffffffffffffffffffffffffffffff168473ffffffffffffffffffffffffffffffffffffffff1614613a2e5780600360008673ffffffffffffffffffffffffffffffffffffffff1673ffffffffffffffffffffffffffffffffffffffff1681526020019081526020016000206000828254613a2691906153d7565b925050819055505b600073ffffffffffffffffffffffffffffffffffffffff168373ffffffffffffffffffffffffffffffffffffffff1614613ab95780600360008573ffffffffffffffffffffffffffffffffffffffff1673ffffffffffffffffffffffffffffffffffffffff1681526020019081526020016000206000828254613ab19190615381565b925050819055505b5b50505050565b6008805490506009600083815260200190815260200160002081905550600881908060018154018082558091505060019003906000526020600020016000909190919091505550565b60006001613b1684611a45565b613b2091906153d7565b9050600060076000848152602001908152602001600020549050818114613c05576000600660008673ffffffffffffffffffffffffffffffffffffffff1673ffffffffffffffffffffffffffffffffffffffff168152602001908152602001600020600084815260200190815260200160002054905080600660008773ffffffffffffffffffffffffffffffffffffffff1673ffffffffffffffffffffffffffffffffffffffff168152602001908152602001600020600084815260200190815260200160002081905550816007600083815260200190815260200160002081905550505b6007600084815260200190815260200160002060009055600660008573ffffffffffffffffffffffffffffffffffffffff1673ffffffffffffffffffffffffffffffffffffffff16815260200190815260200160002060008381526020019081526020016000206000905550505050565b60006001600880549050613c8a91906153d7565b9050600060096000848152602001908152602001600020549050600060088381548110613ce0577f4e487b7100000000000000000000000000000000000000000000000000000000600052603260045260246000fd5b906000526020600020015490508060088381548110613d28577f4e487b7100000000000000000000000000000000000000000000000000000000600052603260045260246000fd5b906000526020600020018190555081600960008381526020019081526020016000208190555060096000858152602001908152602001600020600090556008805480613d9d577f4e487b7100000000000000000000000000000000000000000000000000000000600052603160045260246000fd5b6001900381819060005260206000200160009055905550505050565b6000613dc483611a45565b905081600660008573ffffffffffffffffffffffffffffffffffffffff1673ffffffffffffffffffffffffffffffffffffffff168152602001908152602001600020600083815260200190815260200160002081905550806007600084815260200190815260200160002081905550505050565b600080600090507a184f03e93ff9f4daa797ed6e38ed64bf6a1f0100000000000000008310613ebc577a184f03e93ff9f4daa797ed6e38ed64bf6a1f0100000000000000008381613eb2577f4e487b7100000000000000000000000000000000000000000000000000000000600052601260045260246000fd5b0492506040810190505b6d04ee2d6d415b85acef81000000008310613f1f576d04ee2d6d415b85acef81000000008381613f15577f4e487b7100000000000000000000000000000000000000000000000000000000600052601260045260246000fd5b0492506020810190505b662386f26fc100008310613f7457662386f26fc100008381613f6a577f4e487b7100000000000000000000000000000000000000000000000000000000600052601260045260246000fd5b0492506010810190505b6305f5e1008310613fc3576305f5e1008381613fb9577f4e487b7100000000000000000000000000000000000000000000000000000000600052601260045260246000fd5b0492506008810190505b612710831061400e576127108381614004577f4e487b7100000000000000000000000000000000000000000000000000000000600052601260045260246000fd5b0492506004810190505b60648310614057576064838161404d577f4e487b7100000000000000000000000000000000000000000000000000000000600052601260045260246000fd5b0492506002810190505b600a8310614066576001810190505b80915050919050565b82805461407b906154d3565b90600052602060002090601f01602090048101928261409d57600085556140e4565b82601f106140b657805160ff19168380011785556140e4565b828001600101855582156140e4579182015b828111156140e35782518255916020019190600101906140c8565b5b5090506140f191906140f5565b5090565b5b8082111561410e5760008160009055506001016140f6565b5090565b6000614125614120846152a3565b61527e565b90508281526020810184848401111561413d57600080fd5b614148848285615491565b509392505050565b600061416361415e846152d4565b61527e565b90508281526020810184848401111561417b57600080fd5b614186848285615491565b509392505050565b60008135905061419d81615f25565b92915050565b6000813590506141b281615f3c565b92915050565b6000813590506141c781615f53565b92915050565b6000813590506141dc81615f6a565b92915050565b6000815190506141f181615f6a565b92915050565b600082601f83011261420857600080fd5b8135614218848260208601614112565b91505092915050565b600082601f83011261423257600080fd5b8135614242848260208601614150565b91505092915050565b60008135905061425a81615f81565b92915050565b60006020828403121561427257600080fd5b60006142808482850161418e565b91505092915050565b6000806040838503121561429c57600080fd5b60006142aa858286016141a3565b92505060206142bb8582860161424b565b9150509250929050565b600080604083850312156142d857600080fd5b60006142e68582860161418e565b92505060206142f78582860161418e565b9150509250929050565b60008060006060848603121561431657600080fd5b60006143248682870161418e565b93505060206143358682870161418e565b92505060406143468682870161424b565b9150509250925092565b6000806000806080858703121561436657600080fd5b60006143748782880161418e565b94505060206143858782880161418e565b93505060406143968782880161424b565b925050606085013567ffffffffffffffff8111156143b357600080fd5b6143bf878288016141f7565b91505092959194509250565b600080604083850312156143de57600080fd5b60006143ec8582860161418e565b92505060206143fd858286016141b8565b9150509250929050565b6000806040838503121561441a57600080fd5b60006144288582860161418e565b92505060206144398582860161424b565b9150509250929050565b60006020828403121561445557600080fd5b6000614463848285016141cd565b91505092915050565b60006020828403121561447e57600080fd5b600061448c848285016141e2565b91505092915050565b6000602082840312156144a757600080fd5b600082013567ffffffffffffffff8111156144c157600080fd5b6144cd84828501614221565b91505092915050565b6000602082840312156144e857600080fd5b60006144f68482850161424b565b91505092915050565b6000806040838503121561451257600080fd5b60006145208582860161424b565b92505060206145318582860161418e565b9150509250929050565b6000806040838503121561454e57600080fd5b600061455c8582860161424b565b925050602083013567ffffffffffffffff81111561457957600080fd5b61458585828601614221565b9150509250929050565b600080604083850312156145a257600080fd5b60006145b08582860161424b565b92505060206145c18582860161424b565b9150509250929050565b60006145d78383614bee565b60208301905092915050565b6145ec8161540b565b82525050565b60006145fd82615315565b6146078185615343565b935061461283615305565b8060005b8381101561464357815161462a88826145cb565b975061463583615336565b925050600181019050614616565b5085935050505092915050565b6146598161542f565b82525050565b600061466a82615320565b6146748185615354565b93506146848185602086016154a0565b61468d8161560c565b840191505092915050565b60006146a38261532b565b6146ad8185615365565b93506146bd8185602086016154a0565b6146c68161560c565b840191505092915050565b60006146dc8261532b565b6146e68185615376565b93506146f68185602086016154a0565b80840191505092915050565b600061470f603383615365565b915061471a8261561d565b604082019050919050565b6000614732602983615365565b915061473d8261566c565b604082019050919050565b6000614755602d83615365565b9150614760826156bb565b604082019050919050565b6000614778602b83615365565b91506147838261570a565b604082019050919050565b600061479b601b83615365565b91506147a682615759565b602082019050919050565b60006147be603283615365565b91506147c982615782565b604082019050919050565b60006147e1602683615365565b91506147ec826157d1565b604082019050919050565b6000614804602583615365565b915061480f82615820565b604082019050919050565b6000614827601c83615365565b91506148328261586f565b602082019050919050565b600061484a602783615365565b915061485582615898565b604082019050919050565b600061486d601883615365565b9150614878826158e7565b602082019050919050565b6000614890602683615365565b915061489b82615910565b604082019050919050565b60006148b3602483615365565b91506148be8261595f565b604082019050919050565b60006148d6601983615365565b91506148e1826159ae565b602082019050919050565b60006148f9602083615365565b9150614904826159d7565b602082019050919050565b600061491c604183615365565b915061492782615a00565b606082019050919050565b600061493f602983615365565b915061494a82615a75565b604082019050919050565b6000614962602083615365565b915061496d82615ac4565b602082019050919050565b6000614985602e83615365565b915061499082615aed565b604082019050919050565b60006149a8601f83615365565b91506149b382615b3c565b602082019050919050565b60006149cb603883615365565b91506149d682615b65565b604082019050919050565b60006149ee602083615365565b91506149f982615bb4565b602082019050919050565b6000614a11602083615365565b9150614a1c82615bdd565b602082019050919050565b6000614a34602083615365565b9150614a3f82615c06565b602082019050919050565b6000614a57602f83615365565b9150614a6282615c2f565b604082019050919050565b6000614a7a601e83615365565b9150614a8582615c7e565b602082019050919050565b6000614a9d603283615365565b9150614aa882615ca7565b604082019050919050565b6000614ac0601883615365565b9150614acb82615cf6565b602082019050919050565b6000614ae3602183615365565b9150614aee82615d1f565b604082019050919050565b6000614b06603583615365565b9150614b1182615d6e565b604082019050919050565b6000614b29603d83615365565b9150614b3482615dbd565b604082019050919050565b6000614b4c602c83615365565b9150614b5782615e0c565b604082019050919050565b6000614b6f601e83615365565b9150614b7a82615e5b565b602082019050919050565b6000614b92603583615365565b9150614b9d82615e84565b604082019050919050565b6000614bb5601c83615365565b9150614bc082615ed3565b602082019050919050565b6000614bd8600e83615365565b9150614be382615efc565b602082019050919050565b614bf781615487565b82525050565b614c0681615487565b82525050565b6000614c1882856146d1565b9150614c2482846146d1565b91508190509392505050565b6000602082019050614c4560008301846145e3565b92915050565b6000608082019050614c6060008301876145e3565b614c6d60208301866145e3565b614c7a6040830185614bfd565b8181036060830152614c8c818461465f565b905095945050505050565b60006020820190508181036000830152614cb181846145f2565b905092915050565b6000602082019050614cce6000830184614650565b92915050565b60006020820190508181036000830152614cee8184614698565b905092915050565b60006020820190508181036000830152614d0f81614702565b9050919050565b60006020820190508181036000830152614d2f81614725565b9050919050565b60006020820190508181036000830152614d4f81614748565b9050919050565b60006020820190508181036000830152614d6f8161476b565b9050919050565b60006020820190508181036000830152614d8f8161478e565b9050919050565b60006020820190508181036000830152614daf816147b1565b9050919050565b60006020820190508181036000830152614dcf816147d4565b9050919050565b60006020820190508181036000830152614def816147f7565b9050919050565b60006020820190508181036000830152614e0f8161481a565b9050919050565b60006020820190508181036000830152614e2f8161483d565b9050919050565b60006020820190508181036000830152614e4f81614860565b9050919050565b60006020820190508181036000830152614e6f81614883565b9050919050565b60006020820190508181036000830152614e8f816148a6565b9050919050565b60006020820190508181036000830152614eaf816148c9565b9050919050565b60006020820190508181036000830152614ecf816148ec565b9050919050565b60006020820190508181036000830152614eef8161490f565b9050919050565b60006020820190508181036000830152614f0f81614932565b9050919050565b60006020820190508181036000830152614f2f81614955565b9050919050565b60006020820190508181036000830152614f4f81614978565b9050919050565b60006020820190508181036000830152614f6f8161499b565b9050919050565b60006020820190508181036000830152614f8f816149be565b9050919050565b60006020820190508181036000830152614faf816149e1565b9050919050565b60006020820190508181036000830152614fcf81614a04565b9050919050565b60006020820190508181036000830152614fef81614a27565b9050919050565b6000602082019050818103600083015261500f81614a4a565b9050919050565b6000602082019050818103600083015261502f81614a6d565b9050919050565b6000602082019050818103600083015261504f81614a90565b9050919050565b6000602082019050818103600083015261506f81614ab3565b9050919050565b6000602082019050818103600083015261508f81614ad6565b9050919050565b600060208201905081810360008301526150af81614af9565b9050919050565b600060208201905081810360008301526150cf81614b1c565b9050919050565b600060208201905081810360008301526150ef81614b3f565b9050919050565b6000602082019050818103600083015261510f81614b62565b9050919050565b6000602082019050818103600083015261512f81614b85565b9050919050565b6000602082019050818103600083015261514f81614ba8565b9050919050565b6000602082019050818103600083015261516f81614bcb565b9050919050565b600060208201905061518b6000830184614bfd565b92915050565b60006040820190506151a66000830185614bfd565b6151b360208301846145e3565b9392505050565b60006060820190506151cf6000830186614bfd565b6151dc60208301856145e3565b6151e96040830184614bfd565b949350505050565b600061012082019050615207600083018c614bfd565b615214602083018b614bfd565b615221604083018a6145e3565b61522e6060830189614bfd565b61523b60808301886145e3565b61524860a0830187614bfd565b61525560c0830186614bfd565b61526260e0830185614650565b615270610100830184614650565b9a9950505050505050505050565b6000615288615299565b90506152948282615505565b919050565b6000604051905090565b600067ffffffffffffffff8211156152be576152bd6155dd565b5b6152c78261560c565b9050602081019050919050565b600067ffffffffffffffff8211156152ef576152ee6155dd565b5b6152f88261560c565b9050602081019050919050565b6000819050602082019050919050565b600081519050919050565b600081519050919050565b600081519050919050565b6000602082019050919050565b600082825260208201905092915050565b600082825260208201905092915050565b600082825260208201905092915050565b600081905092915050565b600061538c82615487565b915061539783615487565b9250827fffffffffffffffffffffffffffffffffffffffffffffffffffffffffffffffff038211156153cc576153cb61557f565b5b828201905092915050565b60006153e282615487565b91506153ed83615487565b925082821015615400576153ff61557f565b5b828203905092915050565b600061541682615467565b9050919050565b600061542882615467565b9050919050565b60008115159050919050565b60007fffffffff0000000000000000000000000000000000000000000000000000000082169050919050565b600073ffffffffffffffffffffffffffffffffffffffff82169050919050565b6000819050919050565b82818337600083830152505050565b60005b838110156154be5780820151818401526020810190506154a3565b838111156154cd576000848401525b50505050565b600060028204905060018216806154eb57607f821691505b602082108114156154ff576154fe6155ae565b5b50919050565b61550e8261560c565b810181811067ffffffffffffffff8211171561552d5761552c6155dd565b5b80604052505050565b600061554182615487565b91507fffffffffffffffffffffffffffffffffffffffffffffffffffffffffffffffff8214156155745761557361557f565b5b600182019050919050565b7f4e487b7100000000000000000000000000000000000000000000000000000000600052601160045260246000fd5b7f4e487b7100000000000000000000000000000000000000000000000000000000600052602260045260246000fd5b7f4e487b7100000000000000000000000000000000000000000000000000000000600052604160045260246000fd5b6000601f19601f8301169050919050565b7f496e76616c6964205061796d656e742c2042696420497320446f6573204e6f7460008201527f20457175616c2048696768746573742042696400000000000000000000000000602082015250565b7f526571756972657320746865206869676865737420426964646572206173207460008201527f68652073656e6465720000000000000000000000000000000000000000000000602082015250565b7f4552433732313a2063616c6c6572206973206e6f7420746f6b656e206f776e6560008201527f72206f7220617070726f76656400000000000000000000000000000000000000602082015250565b7f455243373231456e756d657261626c653a206f776e657220696e646578206f7560008201527f74206f6620626f756e6473000000000000000000000000000000000000000000602082015250565b7f436f756e7465723a2064656372656d656e74206f766572666c6f770000000000600082015250565b7f4552433732313a207472616e7366657220746f206e6f6e20455243373231526560008201527f63656976657220696d706c656d656e7465720000000000000000000000000000602082015250565b7f4f776e61626c653a206e6577206f776e657220697320746865207a65726f206160008201527f6464726573730000000000000000000000000000000000000000000000000000602082015250565b7f4552433732313a207472616e736665722066726f6d20696e636f72726563742060008201527f6f776e6572000000000000000000000000000000000000000000000000000000602082015250565b7f4552433732313a20746f6b656e20616c7265616479206d696e74656400000000600082015250565b7f546f6b656e20486173206e6f74204265656e20416464656420546f205468652060008201527f41756374696f6e00000000000000000000000000000000000000000000000000602082015250565b7f4d617820746f6b656e20737570706c7920726561636865640000000000000000600082015250565b7f496e76616c696420546f6b656e2c204e6f742050617274204f6620546865204160008201527f756374696f6e0000000000000000000000000000000000000000000000000000602082015250565b7f4552433732313a207472616e7366657220746f20746865207a65726f2061646460008201527f7265737300000000000000000000000000000000000000000000000000000000602082015250565b7f4552433732313a20617070726f766520746f2063616c6c657200000000000000600082015250565b7f526571756972657320746865204f776e6572206173207468652073656e646572600082015250565b7f546f6b656e2048617320416c7265616479204265656e20416464656420546f2060008201527f5468652041756374696f6e204f7220486173204265656e2041756374696f6e6560208201527f6400000000000000000000000000000000000000000000000000000000000000604082015250565b7f4552433732313a2061646472657373207a65726f206973206e6f74206120766160008201527f6c6964206f776e65720000000000000000000000000000000000000000000000602082015250565b7f546f6b656e204973204e6f742050617274204f66205468652041756374696f6e600082015250565b7f45524337323155524953746f726167653a2055524920736574206f66206e6f6e60008201527f6578697374656e7420746f6b656e000000000000000000000000000000000000602082015250565b7f546865726520576173204120426964204f6e20546869732041756374696f6e00600082015250565b7f2043616c6c6172204d7573742062652074686520746f6b656e206f776e65722060008201527f746f2061646420746f6b656e7320746f20417574696f6e730000000000000000602082015250565b7f43616e204f6e6c7920557064617465204f776e65727320546f6b656e20557269600082015250565b7f4552433732313a206d696e7420746f20746865207a65726f2061646472657373600082015250565b7f4f776e61626c653a2063616c6c6572206973206e6f7420746865206f776e6572600082015250565b7f4552433732314d657461646174613a2055524920717565727920666f72206e6f60008201527f6e6578697374656e7420746f6b656e0000000000000000000000000000000000602082015250565b7f596f752043616e7420626964206f6e20796f7572206f776e20746f6b656e0000600082015250565b7f496e76616c696420416464726573732c2043616c6c6572204953204e6f74205460008201527f6865204869676874657374204249646465720000000000000000000000000000602082015250565b7f4552433732313a20696e76616c696420746f6b656e2049440000000000000000600082015250565b7f4552433732313a20617070726f76616c20746f2063757272656e74206f776e6560008201527f7200000000000000000000000000000000000000000000000000000000000000602082015250565b7f596f75204d7573742042652054686520546f6b656e204f776e657220546f205260008201527f656163746976617465205468652041756374696f6e0000000000000000000000602082015250565b7f4552433732313a20617070726f76652063616c6c6572206973206e6f7420746f60008201527f6b656e206f776e6572206f7220617070726f76656420666f7220616c6c000000602082015250565b7f455243373231456e756d657261626c653a20676c6f62616c20696e646578206f60008201527f7574206f6620626f756e64730000000000000000000000000000000000000000602082015250565b7f5468697320546f6b656e204973205374696c6c204f6e2041756374696f6e0000600082015250565b7f455243373231456e756d657261626c653a20636f6e736563757469766520747260008201527f616e7366657273206e6f7420737570706f727465640000000000000000000000602082015250565b7f496e7375666963656e742066756e647320666f72206d696e74696e6700000000600082015250565b7f696e76616c69642074696d696e67000000000000000000000000000000000000600082015250565b615f2e8161540b565b8114615f3957600080fd5b50565b615f458161541d565b8114615f5057600080fd5b50565b615f5c8161542f565b8114615f6757600080fd5b50565b615f738161543b565b8114615f7e57600080fd5b50565b615f8a81615487565b8114615f9557600080fd5b5056fea2646970667358221220b57c5a1926bc9dcb8815fe78cd5bcbcfe61b135f35dd4191812b157ccef5fa7d64736f6c63430008040033",
  "linkReferences": {},
  "deployedLinkReferences": {}
}