{
  "_format": "hh-sol-artifact-1",
  "contractName": "AuctionNFTs",
  "sourceName": "contracts/Auctions.sol",
  "abi": [
    {
      "inputs": [],
      "stateMutability": "nonpayable",
      "type": "constructor"
    },
    {
      "anonymous": false,
      "inputs": [
        {
          "indexed": true,
          "internalType": "address",
          "name": "owner",
          "type": "address"
        },
        {
          "indexed": true,
          "internalType": "address",
          "name": "approved",
          "type": "address"
        },
        {
          "indexed": true,
          "internalType": "uint256",
          "name": "tokenId",
          "type": "uint256"
        }
      ],
      "name": "Approval",
      "type": "event"
    },
    {
      "anonymous": false,
      "inputs": [
        {
          "indexed": true,
          "internalType": "address",
          "name": "owner",
          "type": "address"
        },
        {
          "indexed": true,
          "internalType": "address",
          "name": "operator",
          "type": "address"
        },
        {
          "indexed": false,
          "internalType": "bool",
          "name": "approved",
          "type": "bool"
        }
      ],
      "name": "ApprovalForAll",
      "type": "event"
    },
    {
      "anonymous": false,
      "inputs": [
        {
          "indexed": true,
          "internalType": "address",
          "name": "previousOwner",
          "type": "address"
        },
        {
          "indexed": true,
          "internalType": "address",
          "name": "newOwner",
          "type": "address"
        }
      ],
      "name": "OwnershipTransferred",
      "type": "event"
    },
    {
      "anonymous": false,
      "inputs": [
        {
          "indexed": true,
          "internalType": "address",
          "name": "from",
          "type": "address"
        },
        {
          "indexed": true,
          "internalType": "address",
          "name": "to",
          "type": "address"
        },
        {
          "indexed": true,
          "internalType": "uint256",
          "name": "tokenId",
          "type": "uint256"
        }
      ],
      "name": "Transfer",
      "type": "event"
    },
    {
      "inputs": [],
      "name": "ActiveAucs",
      "outputs": [
        {
          "internalType": "uint256[]",
          "name": "",
          "type": "uint256[]"
        }
      ],
      "stateMutability": "view",
      "type": "function"
    },
    {
      "inputs": [
        {
          "internalType": "uint256",
          "name": "tokenId",
          "type": "uint256"
        },
        {
          "internalType": "uint256",
          "name": "auctime",
          "type": "uint256"
        }
      ],
      "name": "AddToAutions",
      "outputs": [],
      "stateMutability": "nonpayable",
      "type": "function"
    },
    {
      "inputs": [
        {
          "internalType": "uint256",
          "name": "",
          "type": "uint256"
        }
      ],
      "name": "AllAucs",
      "outputs": [
        {
          "internalType": "uint256",
          "name": "tokenId",
          "type": "uint256"
        },
        {
          "internalType": "uint256",
          "name": "auctimestamp",
          "type": "uint256"
        },
        {
          "internalType": "address",
          "name": "aucOwner",
          "type": "address"
        },
        {
          "internalType": "uint256",
          "name": "topAucBid",
          "type": "uint256"
        },
        {
          "internalType": "address",
          "name": "topAucBidder",
          "type": "address"
        },
        {
          "internalType": "uint256",
          "name": "biddersCount",
          "type": "uint256"
        },
        {
          "internalType": "uint256",
          "name": "aucIdx",
          "type": "uint256"
        },
        {
          "internalType": "bool",
          "name": "aucOver",
          "type": "bool"
        },
        {
          "internalType": "bool",
          "name": "toPay",
          "type": "bool"
        }
      ],
      "stateMutability": "view",
      "type": "function"
    },
    {
      "inputs": [
        {
          "internalType": "uint256",
          "name": "",
          "type": "uint256"
        },
        {
          "internalType": "address",
          "name": "",
          "type": "address"
        }
      ],
      "name": "AucBidderIdx",
      "outputs": [
        {
          "internalType": "uint256",
          "name": "bidderIdx",
          "type": "uint256"
        },
        {
          "internalType": "address",
          "name": "adr",
          "type": "address"
        },
        {
          "internalType": "uint256",
          "name": "bid",
          "type": "uint256"
        }
      ],
      "stateMutability": "view",
      "type": "function"
    },
    {
      "inputs": [
        {
          "internalType": "uint256",
          "name": "TokenId",
          "type": "uint256"
        }
      ],
      "name": "AucInfo",
      "outputs": [
        {
          "internalType": "uint256",
          "name": "",
          "type": "uint256"
        },
        {
          "internalType": "address",
          "name": "",
          "type": "address"
        }
      ],
      "stateMutability": "view",
      "type": "function"
    },
    {
      "inputs": [
        {
          "internalType": "uint256",
          "name": "tokenId",
          "type": "uint256"
        }
      ],
      "name": "AuctionTopBidder",
      "outputs": [
        {
          "internalType": "address",
          "name": "",
          "type": "address"
        }
      ],
      "stateMutability": "view",
      "type": "function"
    },
    {
      "inputs": [
        {
          "internalType": "uint256",
          "name": "tokenId",
          "type": "uint256"
        },
        {
          "internalType": "uint256",
          "name": "BId",
          "type": "uint256"
        }
      ],
      "name": "BidOnAuc",
      "outputs": [],
      "stateMutability": "nonpayable",
      "type": "function"
    },
    {
      "inputs": [
        {
          "internalType": "uint256",
          "name": "tokenId",
          "type": "uint256"
        }
      ],
      "name": "EndAucByOwner",
      "outputs": [],
      "stateMutability": "nonpayable",
      "type": "function"
    },
    {
      "inputs": [],
      "name": "EndedAucs",
      "outputs": [
        {
          "internalType": "uint256[]",
          "name": "",
          "type": "uint256[]"
        }
      ],
      "stateMutability": "view",
      "type": "function"
    },
    {
      "inputs": [],
      "name": "MAX_SUPPLY",
      "outputs": [
        {
          "internalType": "uint256",
          "name": "",
          "type": "uint256"
        }
      ],
      "stateMutability": "view",
      "type": "function"
    },
    {
      "inputs": [],
      "name": "MINT_PRICE",
      "outputs": [
        {
          "internalType": "uint256",
          "name": "",
          "type": "uint256"
        }
      ],
      "stateMutability": "view",
      "type": "function"
    },
    {
      "inputs": [],
      "name": "OwnWallet",
      "outputs": [
        {
          "internalType": "uint256[]",
          "name": "",
          "type": "uint256[]"
        }
      ],
      "stateMutability": "view",
      "type": "function"
    },
    {
      "inputs": [
        {
          "internalType": "uint256",
          "name": "TokenId",
          "type": "uint256"
        }
      ],
      "name": "ReactivateDeadAuc",
      "outputs": [],
      "stateMutability": "nonpayable",
      "type": "function"
    },
    {
      "inputs": [
        {
          "internalType": "uint256",
          "name": "tokenId",
          "type": "uint256"
        }
      ],
      "name": "ToPay",
      "outputs": [
        {
          "internalType": "bool",
          "name": "",
          "type": "bool"
        }
      ],
      "stateMutability": "view",
      "type": "function"
    },
    {
      "inputs": [
        {
          "internalType": "address payable",
          "name": "item_owner",
          "type": "address"
        },
        {
          "internalType": "uint256",
          "name": "tokenId",
          "type": "uint256"
        }
      ],
      "name": "TransferAucToWinner",
      "outputs": [],
      "stateMutability": "payable",
      "type": "function"
    },
    {
      "inputs": [],
      "name": "_ActAucCount",
      "outputs": [
        {
          "internalType": "uint256",
          "name": "_value",
          "type": "uint256"
        }
      ],
      "stateMutability": "view",
      "type": "function"
    },
    {
      "inputs": [
        {
          "internalType": "uint256",
          "name": "tokenId",
          "type": "uint256"
        },
        {
          "internalType": "string",
          "name": "uri",
          "type": "string"
        }
      ],
      "name": "_setURI",
      "outputs": [],
      "stateMutability": "nonpayable",
      "type": "function"
    },
    {
      "inputs": [
        {
          "internalType": "address",
          "name": "to",
          "type": "address"
        },
        {
          "internalType": "uint256",
          "name": "tokenId",
          "type": "uint256"
        }
      ],
      "name": "approve",
      "outputs": [],
      "stateMutability": "nonpayable",
      "type": "function"
    },
    {
      "inputs": [
        {
          "internalType": "address",
          "name": "owner",
          "type": "address"
        }
      ],
      "name": "balanceOf",
      "outputs": [
        {
          "internalType": "uint256",
          "name": "",
          "type": "uint256"
        }
      ],
      "stateMutability": "view",
      "type": "function"
    },
    {
      "inputs": [
        {
          "internalType": "uint256",
          "name": "tokenId",
          "type": "uint256"
        }
      ],
      "name": "getApproved",
      "outputs": [
        {
          "internalType": "address",
          "name": "",
          "type": "address"
        }
      ],
      "stateMutability": "view",
      "type": "function"
    },
    {
      "inputs": [
        {
          "internalType": "address",
          "name": "owner",
          "type": "address"
        },
        {
          "internalType": "address",
          "name": "operator",
          "type": "address"
        }
      ],
      "name": "isApprovedForAll",
      "outputs": [
        {
          "internalType": "bool",
          "name": "",
          "type": "bool"
        }
      ],
      "stateMutability": "view",
      "type": "function"
    },
    {
      "inputs": [],
      "name": "name",
      "outputs": [
        {
          "internalType": "string",
          "name": "",
          "type": "string"
        }
      ],
      "stateMutability": "view",
      "type": "function"
    },
    {
      "inputs": [],
      "name": "owner",
      "outputs": [
        {
          "internalType": "address",
          "name": "",
          "type": "address"
        }
      ],
      "stateMutability": "view",
      "type": "function"
    },
    {
      "inputs": [
        {
          "internalType": "uint256",
          "name": "tokenId",
          "type": "uint256"
        }
      ],
      "name": "ownerOf",
      "outputs": [
        {
          "internalType": "address",
          "name": "",
          "type": "address"
        }
      ],
      "stateMutability": "view",
      "type": "function"
    },
    {
      "inputs": [],
      "name": "renounceOwnership",
      "outputs": [],
      "stateMutability": "nonpayable",
      "type": "function"
    },
    {
      "inputs": [
        {
          "internalType": "string",
          "name": "uri",
          "type": "string"
        }
      ],
      "name": "safeMint",
      "outputs": [],
      "stateMutability": "payable",
      "type": "function"
    },
    {
      "inputs": [
        {
          "internalType": "address",
          "name": "from",
          "type": "address"
        },
        {
          "internalType": "address",
          "name": "to",
          "type": "address"
        },
        {
          "internalType": "uint256",
          "name": "tokenId",
          "type": "uint256"
        }
      ],
      "name": "safeTransferFrom",
      "outputs": [],
      "stateMutability": "nonpayable",
      "type": "function"
    },
    {
      "inputs": [
        {
          "internalType": "address",
          "name": "from",
          "type": "address"
        },
        {
          "internalType": "address",
          "name": "to",
          "type": "address"
        },
        {
          "internalType": "uint256",
          "name": "tokenId",
          "type": "uint256"
        },
        {
          "internalType": "bytes",
          "name": "data",
          "type": "bytes"
        }
      ],
      "name": "safeTransferFrom",
      "outputs": [],
      "stateMutability": "nonpayable",
      "type": "function"
    },
    {
      "inputs": [
        {
          "internalType": "address",
          "name": "operator",
          "type": "address"
        },
        {
          "internalType": "bool",
          "name": "approved",
          "type": "bool"
        }
      ],
      "name": "setApprovalForAll",
      "outputs": [],
      "stateMutability": "nonpayable",
      "type": "function"
    },
    {
      "inputs": [
        {
          "internalType": "uint256",
          "name": "_newCost",
          "type": "uint256"
        }
      ],
      "name": "setCost",
      "outputs": [],
      "stateMutability": "nonpayable",
      "type": "function"
    },
    {
      "inputs": [
        {
          "internalType": "bytes4",
          "name": "interfaceId",
          "type": "bytes4"
        }
      ],
      "name": "supportsInterface",
      "outputs": [
        {
          "internalType": "bool",
          "name": "",
          "type": "bool"
        }
      ],
      "stateMutability": "view",
      "type": "function"
    },
    {
      "inputs": [],
      "name": "symbol",
      "outputs": [
        {
          "internalType": "string",
          "name": "",
          "type": "string"
        }
      ],
      "stateMutability": "view",
      "type": "function"
    },
    {
      "inputs": [
        {
          "internalType": "uint256",
          "name": "index",
          "type": "uint256"
        }
      ],
      "name": "tokenByIndex",
      "outputs": [
        {
          "internalType": "uint256",
          "name": "",
          "type": "uint256"
        }
      ],
      "stateMutability": "view",
      "type": "function"
    },
    {
      "inputs": [
        {
          "internalType": "address",
          "name": "owner",
          "type": "address"
        },
        {
          "internalType": "uint256",
          "name": "index",
          "type": "uint256"
        }
      ],
      "name": "tokenOfOwnerByIndex",
      "outputs": [
        {
          "internalType": "uint256",
          "name": "",
          "type": "uint256"
        }
      ],
      "stateMutability": "view",
      "type": "function"
    },
    {
      "inputs": [
        {
          "internalType": "uint256",
          "name": "tokenId",
          "type": "uint256"
        }
      ],
      "name": "tokenURI",
      "outputs": [
        {
          "internalType": "string",
          "name": "",
          "type": "string"
        }
      ],
      "stateMutability": "view",
      "type": "function"
    },
    {
      "inputs": [],
      "name": "totalSupply",
      "outputs": [
        {
          "internalType": "uint256",
          "name": "",
          "type": "uint256"
        }
      ],
      "stateMutability": "view",
      "type": "function"
    },
    {
      "inputs": [
        {
          "internalType": "address",
          "name": "from",
          "type": "address"
        },
        {
          "internalType": "address",
          "name": "to",
          "type": "address"
        },
        {
          "internalType": "uint256",
          "name": "tokenId",
          "type": "uint256"
        }
      ],
      "name": "transferFrom",
      "outputs": [],
      "stateMutability": "nonpayable",
      "type": "function"
    },
    {
      "inputs": [
        {
          "internalType": "address",
          "name": "newOwner",
          "type": "address"
        }
      ],
      "name": "transferOwnership",
      "outputs": [],
      "stateMutability": "nonpayable",
      "type": "function"
    },
    {
      "inputs": [],
      "name": "withdrawPayments",
      "outputs": [],
      "stateMutability": "nonpayable",
      "type": "function"
    }
  ],
  "bytecode": "0x6080604052620f4240600f5560006010556101686011553480156200002357600080fd5b506040518060400160405280600b81526020017f41756374696f6e4e4654730000000000000000000000000000000000000000008152506040518060400160405280600381526020017f41544e00000000000000000000000000000000000000000000000000000000008152508160009080519060200190620000a8929190620001e5565b508060019080519060200190620000c1929190620001e5565b505050620000e4620000d86200010160201b60201c565b6200010960201b60201c565b620000fb600c620001cf60201b6200261f1760201c565b620002fa565b600033905090565b6000600b60009054906101000a900473ffffffffffffffffffffffffffffffffffffffff16905081600b60006101000a81548173ffffffffffffffffffffffffffffffffffffffff021916908373ffffffffffffffffffffffffffffffffffffffff1602179055508173ffffffffffffffffffffffffffffffffffffffff168173ffffffffffffffffffffffffffffffffffffffff167f8be0079c531659141344cd1fd0a4f28419497f9722a3daafe3b4186f6b6457e060405160405180910390a35050565b6001816000016000828254019250508190555050565b828054620001f39062000295565b90600052602060002090601f01602090048101928262000217576000855562000263565b82601f106200023257805160ff191683800117855562000263565b8280016001018555821562000263579182015b828111156200026257825182559160200191906001019062000245565b5b50905062000272919062000276565b5090565b5b808211156200029157600081600090555060010162000277565b5090565b60006002820490506001821680620002ae57607f821691505b60208210811415620002c557620002c4620002cb565b5b50919050565b7f4e487b7100000000000000000000000000000000000000000000000000000000600052602260045260246000fd5b615fb2806200030a6000396000f3fe6080604052600436106102305760003560e01c8063695850fb1161012e578063a23ee8a9116100ab578063ce82407c1161006f578063ce82407c1461084d578063de20e9f414610876578063e985e9c5146108b4578063edcd830f146108f1578063f2fde38b1461093057610230565b8063a23ee8a914610754578063b253008314610791578063b88d4fde146107bc578063c002d23d146107e5578063c87b56dd1461081057610230565b80638da5cb5b116100f25780638da5cb5b14610667578063900aba1c1461069257806395d89b41146106d75780639ba17a8e14610702578063a22cb4651461072b57610230565b8063695850fb146105a357806370a08231146105bf578063715018a6146105fc57806385b7fe7c146106135780638ac0833f1461063e57610230565b80632f94eb93116101bc5780634f6ccce7116101805780634f6ccce7146104aa5780635cdb7148146104e75780636103d70b146105245780636352211e1461053b57806363969ebb1461057857610230565b80632f94eb93146103e857806332cb6b0c146104045780633da3d9dc1461042f57806342842e0e1461045857806344a0d68a1461048157610230565b80630a5e4198116102035780630a5e41981461030357806318160ddd1461032c57806321b8b13c1461035757806323b872dd146103825780632f745c59146103ab57610230565b806301ffc9a71461023557806306fdde0314610272578063081812fc1461029d578063095ea7b3146102da575b600080fd5b34801561024157600080fd5b5061025c60048036038101906102579190614427565b610959565b6040516102699190614c9d565b60405180910390f35b34801561027e57600080fd5b5061028761096b565b6040516102949190614cb8565b60405180910390f35b3480156102a957600080fd5b506102c460048036038101906102bf91906144ba565b6109fd565b6040516102d19190614c14565b60405180910390f35b3480156102e657600080fd5b5061030160048036038101906102fc91906143eb565b610a43565b005b34801561030f57600080fd5b5061032a60048036038101906103259190614573565b610b5b565b005b34801561033857600080fd5b50610341610d0f565b60405161034e919061515a565b60405180910390f35b34801561036357600080fd5b5061036c610d1c565b6040516103799190614c7b565b60405180910390f35b34801561038e57600080fd5b506103a960048036038101906103a491906142e5565b610e14565b005b3480156103b757600080fd5b506103d260048036038101906103cd91906143eb565b610e74565b6040516103df919061515a565b60405180910390f35b61040260048036038101906103fd919061426d565b610f19565b005b34801561041057600080fd5b5061041961103e565b604051610426919061515a565b60405180910390f35b34801561043b57600080fd5b5061045660048036038101906104519190614573565b611044565b005b34801561046457600080fd5b5061047f600480360381019061047a91906142e5565b6114d9565b005b34801561048d57600080fd5b506104a860048036038101906104a391906144ba565b6114f9565b005b3480156104b657600080fd5b506104d160048036038101906104cc91906144ba565b61150b565b6040516104de919061515a565b60405180910390f35b3480156104f357600080fd5b5061050e600480360381019061050991906144ba565b6115a2565b60405161051b9190614c14565b60405180910390f35b34801561053057600080fd5b5061053961163a565b005b34801561054757600080fd5b50610562600480360381019061055d91906144ba565b611692565b60405161056f9190614c14565b60405180910390f35b34801561058457600080fd5b5061058d611719565b60405161059a919061515a565b60405180910390f35b6105bd60048036038101906105b89190614479565b611725565b005b3480156105cb57600080fd5b506105e660048036038101906105e19190614244565b611833565b6040516105f3919061515a565b60405180910390f35b34801561060857600080fd5b506106116118eb565b005b34801561061f57600080fd5b506106286118ff565b6040516106359190614c7b565b60405180910390f35b34801561064a57600080fd5b50610665600480360381019061066091906144ba565b611a8c565b005b34801561067357600080fd5b5061067c611c97565b6040516106899190614c14565b60405180910390f35b34801561069e57600080fd5b506106b960048036038101906106b491906144ba565b611cc1565b6040516106ce999897969594939291906151d5565b60405180910390f35b3480156106e357600080fd5b506106ec611d69565b6040516106f99190614cb8565b60405180910390f35b34801561070e57600080fd5b506107296004803603810190610724919061451f565b611dfb565b005b34801561073757600080fd5b50610752600480360381019061074d91906143af565b611e7f565b005b34801561076057600080fd5b5061077b600480360381019061077691906144ba565b611e95565b6040516107889190614c9d565b60405180910390f35b34801561079d57600080fd5b506107a6611f66565b6040516107b39190614c7b565b60405180910390f35b3480156107c857600080fd5b506107e360048036038101906107de9190614334565b612146565b005b3480156107f157600080fd5b506107fa6121a8565b604051610807919061515a565b60405180910390f35b34801561081c57600080fd5b50610837600480360381019061083291906144ba565b6121ae565b6040516108449190614cb8565b60405180910390f35b34801561085957600080fd5b50610874600480360381019061086f91906144ba565b612208565b005b34801561088257600080fd5b5061089d600480360381019061089891906144ba565b6123fe565b6040516108ab929190615175565b60405180910390f35b3480156108c057600080fd5b506108db60048036038101906108d691906142a9565b6124b0565b6040516108e89190614c9d565b60405180910390f35b3480156108fd57600080fd5b50610918600480360381019061091391906144e3565b612544565b6040516109279392919061519e565b60405180910390f35b34801561093c57600080fd5b5061095760048036038101906109529190614244565b61259b565b005b600061096482612635565b9050919050565b60606000805461097a906154b7565b80601f01602080910402602001604051908101604052809291908181526020018280546109a6906154b7565b80156109f35780601f106109c8576101008083540402835291602001916109f3565b820191906000526020600020905b8154815290600101906020018083116109d657829003601f168201915b5050505050905090565b6000610a08826126af565b6004600083815260200190815260200160002060009054906101000a900473ffffffffffffffffffffffffffffffffffffffff169050919050565b6000610a4e82611692565b90508073ffffffffffffffffffffffffffffffffffffffff168373ffffffffffffffffffffffffffffffffffffffff161415610abf576040517f08c379a0000000000000000000000000000000000000000000000000000000008152600401610ab69061505a565b60405180910390fd5b8073ffffffffffffffffffffffffffffffffffffffff16610ade6126fa565b73ffffffffffffffffffffffffffffffffffffffff161480610b0d5750610b0c81610b076126fa565b6124b0565b5b610b4c576040517f08c379a0000000000000000000000000000000000000000000000000000000008152600401610b439061509a565b60405180910390fd5b610b568383612702565b505050565b3373ffffffffffffffffffffffffffffffffffffffff16610b7b83611692565b73ffffffffffffffffffffffffffffffffffffffff1614610bd1576040517f08c379a0000000000000000000000000000000000000000000000000000000008152600401610bc890614f5a565b60405180910390fd5b8160126000848152602001908152602001600020600001541415610c2a576040517f08c379a0000000000000000000000000000000000000000000000000000000008152600401610c2190614eba565b60405180910390fd5b6000601260008481526020019081526020016000209050828160000181905550338160020160006101000a81548173ffffffffffffffffffffffffffffffffffffffff021916908373ffffffffffffffffffffffffffffffffffffffff160217905550600081600501819055506000816003018190555060008160070160006101000a81548160ff02191690831515021790555060008160070160016101000a81548160ff021916908315150217905550818160010181905550610cee600d6127bb565b8160060181905550610d00600e61261f565b610d0a600d61261f565b505050565b6000600880549050905090565b60606000610d2933611833565b905060008167ffffffffffffffff811115610d6d577f4e487b7100000000000000000000000000000000000000000000000000000000600052604160045260246000fd5b604051908082528060200260200182016040528015610d9b5781602001602082028036833780820191505090505b50905060005b82811015610e0b57610db33382610e74565b828281518110610dec577f4e487b7100000000000000000000000000000000000000000000000000000000600052603260045260246000fd5b6020026020010181815250508080610e039061551a565b915050610da1565b50809250505090565b610e25610e1f6126fa565b826127c9565b610e64576040517f08c379a0000000000000000000000000000000000000000000000000000000008152600401610e5b90614d1a565b60405180910390fd5b610e6f83838361285e565b505050565b6000610e7f83611833565b8210610ec0576040517f08c379a0000000000000000000000000000000000000000000000000000000008152600401610eb790614d3a565b60405180910390fd5b600660008473ffffffffffffffffffffffffffffffffffffffff1673ffffffffffffffffffffffffffffffffffffffff168152602001908152602001600020600083815260200190815260200160002054905092915050565b610f22816115a2565b73ffffffffffffffffffffffffffffffffffffffff163373ffffffffffffffffffffffffffffffffffffffff1614610f8f576040517f08c379a0000000000000000000000000000000000000000000000000000000008152600401610f869061501a565b60405180910390fd5b6012600082815260200190815260200160002060030154341015610fe8576040517f08c379a0000000000000000000000000000000000000000000000000000000008152600401610fdf90614cda565b60405180910390fd5b8173ffffffffffffffffffffffffffffffffffffffff166108fc349081150290604051600060405180830381858888f1935050505015801561102e573d6000803e3d6000fd5b5061103a8233836114d9565b5050565b600f5481565b3373ffffffffffffffffffffffffffffffffffffffff1661106483611692565b73ffffffffffffffffffffffffffffffffffffffff1614156110bb576040517f08c379a00000000000000000000000000000000000000000000000000000000081526004016110b290614ffa565b60405180910390fd5b81601260008481526020019081526020016000206000015414611113576040517f08c379a000000000000000000000000000000000000000000000000000000000815260040161110a90614e3a565b60405180910390fd5b4260115460126000858152602001908152602001600020600101546111389190615365565b11801561115a5750426012600084815260200190815260200160002060010154105b801561118757506012600083815260200190815260200160002060070160009054906101000a900460ff16155b6111c6576040517f08c379a00000000000000000000000000000000000000000000000000000000081526004016111bd9061513a565b60405180910390fd5b3373ffffffffffffffffffffffffffffffffffffffff166013600084815260200190815260200160002060003373ffffffffffffffffffffffffffffffffffffffff1673ffffffffffffffffffffffffffffffffffffffff16815260200190815260200160002060010160009054906101000a900473ffffffffffffffffffffffffffffffffffffffff1673ffffffffffffffffffffffffffffffffffffffff16141561135957806013600084815260200190815260200160002060003373ffffffffffffffffffffffffffffffffffffffff1673ffffffffffffffffffffffffffffffffffffffff16815260200190815260200160002060020181905550806012600084815260200190815260200160002060030154101561135457806012600084815260200190815260200160002060030181905550336012600084815260200190815260200160002060040160006101000a81548173ffffffffffffffffffffffffffffffffffffffff021916908373ffffffffffffffffffffffffffffffffffffffff1602179055505b6114d5565b60006013600084815260200190815260200160002060003373ffffffffffffffffffffffffffffffffffffffff1673ffffffffffffffffffffffffffffffffffffffff1681526020019081526020016000209050338160010160006101000a81548173ffffffffffffffffffffffffffffffffffffffff021916908373ffffffffffffffffffffffffffffffffffffffff1602179055508181600201819055506012600084815260200190815260200160002060050154816000018190555060126000848152602001908152602001600020600501600081548092919061143f9061551a565b919050555081601260008581526020019081526020016000206003015410156114d357816012600085815260200190815260200160002060030181905550336012600085815260200190815260200160002060040160006101000a81548173ffffffffffffffffffffffffffffffffffffffff021916908373ffffffffffffffffffffffffffffffffffffffff1602179055505b505b5050565b6114f483838360405180602001604052806000815250612146565b505050565b611501612b58565b8060108190555050565b6000611515610d0f565b8210611556576040517f08c379a000000000000000000000000000000000000000000000000000000000815260040161154d906150ba565b60405180910390fd5b60088281548110611590577f4e487b7100000000000000000000000000000000000000000000000000000000600052603260045260246000fd5b90600052602060002001549050919050565b6000816012600084815260200190815260200160002060000154146115fc576040517f08c379a00000000000000000000000000000000000000000000000000000000081526004016115f390614e3a565b60405180910390fd5b6012600083815260200190815260200160002060040160009054906101000a900473ffffffffffffffffffffffffffffffffffffffff169050919050565b611642612b58565b61164a611c97565b73ffffffffffffffffffffffffffffffffffffffff166108fc479081150290604051600060405180830381858888f1935050505015801561168f573d6000803e3d6000fd5b50565b60008061169e83612bd6565b9050600073ffffffffffffffffffffffffffffffffffffffff168173ffffffffffffffffffffffffffffffffffffffff161415611710576040517f08c379a00000000000000000000000000000000000000000000000000000000081526004016117079061503a565b60405180910390fd5b80915050919050565b600e8060000154905081565b600f54611730610d0f565b10611770576040517f08c379a000000000000000000000000000000000000000000000000000000000815260040161176790614e1a565b60405180910390fd5b6010543410156117b5576040517f08c379a00000000000000000000000000000000000000000000000000000000081526004016117ac9061511a565b60405180910390fd5b60006117c1600c6127bb565b90506117cd600c61261f565b6117d73382612c13565b6117e18183612c31565b6117e9611c97565b73ffffffffffffffffffffffffffffffffffffffff166108fc349081150290604051600060405180830381858888f1935050505015801561182e573d6000803e3d6000fd5b505050565b60008073ffffffffffffffffffffffffffffffffffffffff168273ffffffffffffffffffffffffffffffffffffffff1614156118a4576040517f08c379a000000000000000000000000000000000000000000000000000000000815260040161189b90614eda565b60405180910390fd5b600360008373ffffffffffffffffffffffffffffffffffffffff1673ffffffffffffffffffffffffffffffffffffffff168152602001908152602001600020549050919050565b6118f3612b58565b6118fd6000612ca5565b565b6060600061190d600e6127bb565b67ffffffffffffffff81111561194c577f4e487b7100000000000000000000000000000000000000000000000000000000600052604160045260246000fd5b60405190808252806020026020018201604052801561197a5781602001602082028036833780820191505090505b5090506000805b61198b600d6127bb565b811015611a835780601260006001846119a49190615365565b8152602001908152602001600020600601541415611a705760001515601260006001846119d19190615365565b815260200190815260200160002060070160009054906101000a900460ff1615151415611a6f5760126000600183611a099190615365565b815260200190815260200160002060000154838381518110611a54577f4e487b7100000000000000000000000000000000000000000000000000000000600052603260045260246000fd5b6020026020010181815250508180611a6b9061551a565b9250505b5b8080611a7b9061551a565b915050611981565b50819250505090565b611a9581611692565b73ffffffffffffffffffffffffffffffffffffffff163373ffffffffffffffffffffffffffffffffffffffff1614611b02576040517f08c379a0000000000000000000000000000000000000000000000000000000008152600401611af990614e9a565b60405180910390fd5b80601260008381526020019081526020016000206000015414611b5a576040517f08c379a0000000000000000000000000000000000000000000000000000000008152600401611b5190614efa565b60405180910390fd5b426011546012600084815260200190815260200160002060010154611b7f9190615365565b108015611bad57506012600082815260200190815260200160002060070160009054906101000a900460ff16155b611bec576040517f08c379a0000000000000000000000000000000000000000000000000000000008152600401611be39061513a565b60405180910390fd5b60016012600083815260200190815260200160002060070160006101000a81548160ff02191690831515021790555060016012600083815260200190815260200160002060070160016101000a81548160ff021916908315150217905550611c54600e612d6b565b611c946012600083815260200190815260200160002060040160009054906101000a900473ffffffffffffffffffffffffffffffffffffffff1682610a43565b50565b6000600b60009054906101000a900473ffffffffffffffffffffffffffffffffffffffff16905090565b60126020528060005260406000206000915090508060000154908060010154908060020160009054906101000a900473ffffffffffffffffffffffffffffffffffffffff16908060030154908060040160009054906101000a900473ffffffffffffffffffffffffffffffffffffffff16908060050154908060060154908060070160009054906101000a900460ff16908060070160019054906101000a900460ff16905089565b606060018054611d78906154b7565b80601f0160208091040260200160405190810160405280929190818152602001828054611da4906154b7565b8015611df15780601f10611dc657610100808354040283529160200191611df1565b820191906000526020600020905b815481529060010190602001808311611dd457829003601f168201915b5050505050905090565b3373ffffffffffffffffffffffffffffffffffffffff16611e1b83611692565b73ffffffffffffffffffffffffffffffffffffffff1614611e71576040517f08c379a0000000000000000000000000000000000000000000000000000000008152600401611e6890614f7a565b60405180910390fd5b611e7b8282612c31565b5050565b611e91611e8a6126fa565b8383612dc7565b5050565b60006012600083815260200190815260200160002060040160009054906101000a900473ffffffffffffffffffffffffffffffffffffffff1673ffffffffffffffffffffffffffffffffffffffff163373ffffffffffffffffffffffffffffffffffffffff1614611f3b576040517f08c379a0000000000000000000000000000000000000000000000000000000008152600401611f3290614cfa565b60405180910390fd5b6012600083815260200190815260200160002060070160019054906101000a900460ff169050919050565b60606000611f74600e6127bb565b611f7e600d6127bb565b611f8891906153bb565b67ffffffffffffffff811115611fc7577f4e487b7100000000000000000000000000000000000000000000000000000000600052604160045260246000fd5b604051908082528060200260200182016040528015611ff55781602001602082028036833780820191505090505b5090506000805b612006600d6127bb565b81101561213d57806012600060018461201f9190615365565b815260200190815260200160002060060154141561212a57600115156012600060018461204c9190615365565b815260200190815260200160002060070160009054906101000a900460ff1615151480156120ad5750600115156012600060018461208a9190615365565b815260200190815260200160002060070160019054906101000a900460ff161515145b1561212957601260006001836120c39190615365565b81526020019081526020016000206000015483838151811061210e577f4e487b7100000000000000000000000000000000000000000000000000000000600052603260045260246000fd5b60200260200101818152505081806121259061551a565b9250505b5b80806121359061551a565b915050611ffc565b50819250505090565b6121576121516126fa565b836127c9565b612196576040517f08c379a000000000000000000000000000000000000000000000000000000000815260040161218d90614d1a565b60405180910390fd5b6121a284848484612f34565b50505050565b60105481565b60606121b982612f90565b6121f8576040517f08c379a00000000000000000000000000000000000000000000000000000000081526004016121ef90614fda565b60405180910390fd5b61220182612fd1565b9050919050565b3373ffffffffffffffffffffffffffffffffffffffff1661222882611692565b73ffffffffffffffffffffffffffffffffffffffff161461227e576040517f08c379a00000000000000000000000000000000000000000000000000000000081526004016122759061507a565b60405180910390fd5b806012600083815260200190815260200160002060000154146122d6576040517f08c379a00000000000000000000000000000000000000000000000000000000081526004016122cd90614dfa565b60405180910390fd5b6012600082815260200190815260200160002060070160009054906101000a900460ff16612339576040517f08c379a0000000000000000000000000000000000000000000000000000000008152600401612330906150da565b60405180910390fd5b600060126000838152602001908152602001600020600301541115612393576040517f08c379a000000000000000000000000000000000000000000000000000000000815260040161238a90614f3a565b60405180910390fd5b60006012600083815260200190815260200160002060070160006101000a81548160ff02191690831515021790555060006012600083815260200190815260200160002060070160016101000a81548160ff0219169083151502179055506123fb600e61261f565b50565b60008082601260008581526020019081526020016000206000015414612459576040517f08c379a000000000000000000000000000000000000000000000000000000000815260040161245090614e3a565b60405180910390fd5b60126000848152602001908152602001600020600301546012600085815260200190815260200160002060040160009054906101000a900473ffffffffffffffffffffffffffffffffffffffff1691509150915091565b6000600560008473ffffffffffffffffffffffffffffffffffffffff1673ffffffffffffffffffffffffffffffffffffffff16815260200190815260200160002060008373ffffffffffffffffffffffffffffffffffffffff1673ffffffffffffffffffffffffffffffffffffffff16815260200190815260200160002060009054906101000a900460ff16905092915050565b6013602052816000526040600020602052806000526040600020600091509150508060000154908060010160009054906101000a900473ffffffffffffffffffffffffffffffffffffffff16908060020154905083565b6125a3612b58565b600073ffffffffffffffffffffffffffffffffffffffff168173ffffffffffffffffffffffffffffffffffffffff161415612613576040517f08c379a000000000000000000000000000000000000000000000000000000000815260040161260a90614d9a565b60405180910390fd5b61261c81612ca5565b50565b6001816000016000828254019250508190555050565b60007f780e9d63000000000000000000000000000000000000000000000000000000007bffffffffffffffffffffffffffffffffffffffffffffffffffffffff1916827bffffffffffffffffffffffffffffffffffffffffffffffffffffffff191614806126a857506126a7826130e4565b5b9050919050565b6126b881612f90565b6126f7576040517f08c379a00000000000000000000000000000000000000000000000000000000081526004016126ee9061503a565b60405180910390fd5b50565b600033905090565b816004600083815260200190815260200160002060006101000a81548173ffffffffffffffffffffffffffffffffffffffff021916908373ffffffffffffffffffffffffffffffffffffffff160217905550808273ffffffffffffffffffffffffffffffffffffffff1661277583611692565b73ffffffffffffffffffffffffffffffffffffffff167f8c5be1e5ebec7d5bd14f71427d1e84f3dd0314c0f7b2291e5b200ac8c7c3b92560405160405180910390a45050565b600081600001549050919050565b6000806127d583611692565b90508073ffffffffffffffffffffffffffffffffffffffff168473ffffffffffffffffffffffffffffffffffffffff161480612817575061281681856124b0565b5b8061285557508373ffffffffffffffffffffffffffffffffffffffff1661283d846109fd565b73ffffffffffffffffffffffffffffffffffffffff16145b91505092915050565b8273ffffffffffffffffffffffffffffffffffffffff1661287e82611692565b73ffffffffffffffffffffffffffffffffffffffff16146128d4576040517f08c379a00000000000000000000000000000000000000000000000000000000081526004016128cb90614dba565b60405180910390fd5b600073ffffffffffffffffffffffffffffffffffffffff168273ffffffffffffffffffffffffffffffffffffffff161415612944576040517f08c379a000000000000000000000000000000000000000000000000000000000815260040161293b90614e5a565b60405180910390fd5b61295183838360016131c6565b8273ffffffffffffffffffffffffffffffffffffffff1661297182611692565b73ffffffffffffffffffffffffffffffffffffffff16146129c7576040517f08c379a00000000000000000000000000000000000000000000000000000000081526004016129be90614dba565b60405180910390fd5b6004600082815260200190815260200160002060006101000a81549073ffffffffffffffffffffffffffffffffffffffff02191690556001600360008573ffffffffffffffffffffffffffffffffffffffff1673ffffffffffffffffffffffffffffffffffffffff168152602001908152602001600020600082825403925050819055506001600360008473ffffffffffffffffffffffffffffffffffffffff1673ffffffffffffffffffffffffffffffffffffffff16815260200190815260200160002060008282540192505081905550816002600083815260200190815260200160002060006101000a81548173ffffffffffffffffffffffffffffffffffffffff021916908373ffffffffffffffffffffffffffffffffffffffff160217905550808273ffffffffffffffffffffffffffffffffffffffff168473ffffffffffffffffffffffffffffffffffffffff167fddf252ad1be2c89b69c2b068fc378daa952ba7f163c4a11628f55a4df523b3ef60405160405180910390a4612b5383838360016131d8565b505050565b612b606126fa565b73ffffffffffffffffffffffffffffffffffffffff16612b7e611c97565b73ffffffffffffffffffffffffffffffffffffffff1614612bd4576040517f08c379a0000000000000000000000000000000000000000000000000000000008152600401612bcb90614fba565b60405180910390fd5b565b60006002600083815260200190815260200160002060009054906101000a900473ffffffffffffffffffffffffffffffffffffffff169050919050565b612c2d8282604051806020016040528060008152506131de565b5050565b612c3a82612f90565b612c79576040517f08c379a0000000000000000000000000000000000000000000000000000000008152600401612c7090614f1a565b60405180910390fd5b80600a60008481526020019081526020016000209080519060200190612ca0929190614053565b505050565b6000600b60009054906101000a900473ffffffffffffffffffffffffffffffffffffffff16905081600b60006101000a81548173ffffffffffffffffffffffffffffffffffffffff021916908373ffffffffffffffffffffffffffffffffffffffff1602179055508173ffffffffffffffffffffffffffffffffffffffff168173ffffffffffffffffffffffffffffffffffffffff167f8be0079c531659141344cd1fd0a4f28419497f9722a3daafe3b4186f6b6457e060405160405180910390a35050565b60008160000154905060008111612db7576040517f08c379a0000000000000000000000000000000000000000000000000000000008152600401612dae90614d5a565b60405180910390fd5b6001810382600001819055505050565b8173ffffffffffffffffffffffffffffffffffffffff168373ffffffffffffffffffffffffffffffffffffffff161415612e36576040517f08c379a0000000000000000000000000000000000000000000000000000000008152600401612e2d90614e7a565b60405180910390fd5b80600560008573ffffffffffffffffffffffffffffffffffffffff1673ffffffffffffffffffffffffffffffffffffffff16815260200190815260200160002060008473ffffffffffffffffffffffffffffffffffffffff1673ffffffffffffffffffffffffffffffffffffffff16815260200190815260200160002060006101000a81548160ff0219169083151502179055508173ffffffffffffffffffffffffffffffffffffffff168373ffffffffffffffffffffffffffffffffffffffff167f17307eab39ab6107e8899845ad3d59bd9653f200f220920489ca2b5937696c3183604051612f279190614c9d565b60405180910390a3505050565b612f3f84848461285e565b612f4b84848484613239565b612f8a576040517f08c379a0000000000000000000000000000000000000000000000000000000008152600401612f8190614d7a565b60405180910390fd5b50505050565b60008073ffffffffffffffffffffffffffffffffffffffff16612fb283612bd6565b73ffffffffffffffffffffffffffffffffffffffff1614159050919050565b6060612fdc826126af565b6000600a60008481526020019081526020016000208054612ffc906154b7565b80601f0160208091040260200160405190810160405280929190818152602001828054613028906154b7565b80156130755780601f1061304a57610100808354040283529160200191613075565b820191906000526020600020905b81548152906001019060200180831161305857829003601f168201915b5050505050905060006130866133d0565b905060008151141561309c5781925050506130df565b6000825111156130d15780826040516020016130b9929190614bf0565b604051602081830303815290604052925050506130df565b6130da846133e7565b925050505b919050565b60007f80ac58cd000000000000000000000000000000000000000000000000000000007bffffffffffffffffffffffffffffffffffffffffffffffffffffffff1916827bffffffffffffffffffffffffffffffffffffffffffffffffffffffff191614806131af57507f5b5e139f000000000000000000000000000000000000000000000000000000007bffffffffffffffffffffffffffffffffffffffffffffffffffffffff1916827bffffffffffffffffffffffffffffffffffffffffffffffffffffffff1916145b806131bf57506131be8261344f565b5b9050919050565b6131d2848484846134b9565b50505050565b50505050565b6131e88383613619565b6131f56000848484613239565b613234576040517f08c379a000000000000000000000000000000000000000000000000000000000815260040161322b90614d7a565b60405180910390fd5b505050565b600061325a8473ffffffffffffffffffffffffffffffffffffffff16613837565b156133c3578373ffffffffffffffffffffffffffffffffffffffff1663150b7a026132836126fa565b8786866040518563ffffffff1660e01b81526004016132a59493929190614c2f565b602060405180830381600087803b1580156132bf57600080fd5b505af19250505080156132f057506040513d601f19601f820116820180604052508101906132ed9190614450565b60015b613373573d8060008114613320576040519150601f19603f3d011682016040523d82523d6000602084013e613325565b606091505b5060008151141561336b576040517f08c379a000000000000000000000000000000000000000000000000000000000815260040161336290614d7a565b60405180910390fd5b805181602001fd5b63150b7a0260e01b7bffffffffffffffffffffffffffffffffffffffffffffffffffffffff1916817bffffffffffffffffffffffffffffffffffffffffffffffffffffffff1916149150506133c8565b600190505b949350505050565b606060405180602001604052806000815250905090565b60606133f2826126af565b60006133fc6133d0565b9050600081511161341c5760405180602001604052806000815250613447565b806134268461385a565b604051602001613437929190614bf0565b6040516020818303038152906040525b915050919050565b60007f01ffc9a7000000000000000000000000000000000000000000000000000000007bffffffffffffffffffffffffffffffffffffffffffffffffffffffff1916827bffffffffffffffffffffffffffffffffffffffffffffffffffffffff1916149050919050565b6134c58484848461397e565b6001811115613509576040517f08c379a0000000000000000000000000000000000000000000000000000000008152600401613500906150fa565b60405180910390fd5b6000829050600073ffffffffffffffffffffffffffffffffffffffff168573ffffffffffffffffffffffffffffffffffffffff1614156135515761354c81613aa4565b613590565b8373ffffffffffffffffffffffffffffffffffffffff168573ffffffffffffffffffffffffffffffffffffffff161461358f5761358e8582613aed565b5b5b600073ffffffffffffffffffffffffffffffffffffffff168473ffffffffffffffffffffffffffffffffffffffff1614156135d3576135ce81613c5a565b613612565b8473ffffffffffffffffffffffffffffffffffffffff168473ffffffffffffffffffffffffffffffffffffffff1614613611576136108482613d9d565b5b5b5050505050565b600073ffffffffffffffffffffffffffffffffffffffff168273ffffffffffffffffffffffffffffffffffffffff161415613689576040517f08c379a000000000000000000000000000000000000000000000000000000000815260040161368090614f9a565b60405180910390fd5b61369281612f90565b156136d2576040517f08c379a00000000000000000000000000000000000000000000000000000000081526004016136c990614dda565b60405180910390fd5b6136e06000838360016131c6565b6136e981612f90565b15613729576040517f08c379a000000000000000000000000000000000000000000000000000000000815260040161372090614dda565b60405180910390fd5b6001600360008473ffffffffffffffffffffffffffffffffffffffff1673ffffffffffffffffffffffffffffffffffffffff16815260200190815260200160002060008282540192505081905550816002600083815260200190815260200160002060006101000a81548173ffffffffffffffffffffffffffffffffffffffff021916908373ffffffffffffffffffffffffffffffffffffffff160217905550808273ffffffffffffffffffffffffffffffffffffffff16600073ffffffffffffffffffffffffffffffffffffffff167fddf252ad1be2c89b69c2b068fc378daa952ba7f163c4a11628f55a4df523b3ef60405160405180910390a46138336000838360016131d8565b5050565b6000808273ffffffffffffffffffffffffffffffffffffffff163b119050919050565b60606000600161386984613e1c565b01905060008167ffffffffffffffff8111156138ae577f4e487b7100000000000000000000000000000000000000000000000000000000600052604160045260246000fd5b6040519080825280601f01601f1916602001820160405280156138e05781602001600182028036833780820191505090505b509050600082602001820190505b600115613973578080600190039150507f3031323334353637383961626364656600000000000000000000000000000000600a86061a8153600a858161395d577f4e487b7100000000000000000000000000000000000000000000000000000000600052601260045260246000fd5b049450600085141561396e57613973565b6138ee565b819350505050919050565b6001811115613a9e57600073ffffffffffffffffffffffffffffffffffffffff168473ffffffffffffffffffffffffffffffffffffffff1614613a125780600360008673ffffffffffffffffffffffffffffffffffffffff1673ffffffffffffffffffffffffffffffffffffffff1681526020019081526020016000206000828254613a0a91906153bb565b925050819055505b600073ffffffffffffffffffffffffffffffffffffffff168373ffffffffffffffffffffffffffffffffffffffff1614613a9d5780600360008573ffffffffffffffffffffffffffffffffffffffff1673ffffffffffffffffffffffffffffffffffffffff1681526020019081526020016000206000828254613a959190615365565b925050819055505b5b50505050565b6008805490506009600083815260200190815260200160002081905550600881908060018154018082558091505060019003906000526020600020016000909190919091505550565b60006001613afa84611833565b613b0491906153bb565b9050600060076000848152602001908152602001600020549050818114613be9576000600660008673ffffffffffffffffffffffffffffffffffffffff1673ffffffffffffffffffffffffffffffffffffffff168152602001908152602001600020600084815260200190815260200160002054905080600660008773ffffffffffffffffffffffffffffffffffffffff1673ffffffffffffffffffffffffffffffffffffffff168152602001908152602001600020600084815260200190815260200160002081905550816007600083815260200190815260200160002081905550505b6007600084815260200190815260200160002060009055600660008573ffffffffffffffffffffffffffffffffffffffff1673ffffffffffffffffffffffffffffffffffffffff16815260200190815260200160002060008381526020019081526020016000206000905550505050565b60006001600880549050613c6e91906153bb565b9050600060096000848152602001908152602001600020549050600060088381548110613cc4577f4e487b7100000000000000000000000000000000000000000000000000000000600052603260045260246000fd5b906000526020600020015490508060088381548110613d0c577f4e487b7100000000000000000000000000000000000000000000000000000000600052603260045260246000fd5b906000526020600020018190555081600960008381526020019081526020016000208190555060096000858152602001908152602001600020600090556008805480613d81577f4e487b7100000000000000000000000000000000000000000000000000000000600052603160045260246000fd5b6001900381819060005260206000200160009055905550505050565b6000613da883611833565b905081600660008573ffffffffffffffffffffffffffffffffffffffff1673ffffffffffffffffffffffffffffffffffffffff168152602001908152602001600020600083815260200190815260200160002081905550806007600084815260200190815260200160002081905550505050565b600080600090507a184f03e93ff9f4daa797ed6e38ed64bf6a1f0100000000000000008310613ea0577a184f03e93ff9f4daa797ed6e38ed64bf6a1f0100000000000000008381613e96577f4e487b7100000000000000000000000000000000000000000000000000000000600052601260045260246000fd5b0492506040810190505b6d04ee2d6d415b85acef81000000008310613f03576d04ee2d6d415b85acef81000000008381613ef9577f4e487b7100000000000000000000000000000000000000000000000000000000600052601260045260246000fd5b0492506020810190505b662386f26fc100008310613f5857662386f26fc100008381613f4e577f4e487b7100000000000000000000000000000000000000000000000000000000600052601260045260246000fd5b0492506010810190505b6305f5e1008310613fa7576305f5e1008381613f9d577f4e487b7100000000000000000000000000000000000000000000000000000000600052601260045260246000fd5b0492506008810190505b6127108310613ff2576127108381613fe8577f4e487b7100000000000000000000000000000000000000000000000000000000600052601260045260246000fd5b0492506004810190505b6064831061403b5760648381614031577f4e487b7100000000000000000000000000000000000000000000000000000000600052601260045260246000fd5b0492506002810190505b600a831061404a576001810190505b80915050919050565b82805461405f906154b7565b90600052602060002090601f01602090048101928261408157600085556140c8565b82601f1061409a57805160ff19168380011785556140c8565b828001600101855582156140c8579182015b828111156140c75782518255916020019190600101906140ac565b5b5090506140d591906140d9565b5090565b5b808211156140f25760008160009055506001016140da565b5090565b600061410961410484615287565b615262565b90508281526020810184848401111561412157600080fd5b61412c848285615475565b509392505050565b6000614147614142846152b8565b615262565b90508281526020810184848401111561415f57600080fd5b61416a848285615475565b509392505050565b60008135905061418181615f09565b92915050565b60008135905061419681615f20565b92915050565b6000813590506141ab81615f37565b92915050565b6000813590506141c081615f4e565b92915050565b6000815190506141d581615f4e565b92915050565b600082601f8301126141ec57600080fd5b81356141fc8482602086016140f6565b91505092915050565b600082601f83011261421657600080fd5b8135614226848260208601614134565b91505092915050565b60008135905061423e81615f65565b92915050565b60006020828403121561425657600080fd5b600061426484828501614172565b91505092915050565b6000806040838503121561428057600080fd5b600061428e85828601614187565b925050602061429f8582860161422f565b9150509250929050565b600080604083850312156142bc57600080fd5b60006142ca85828601614172565b92505060206142db85828601614172565b9150509250929050565b6000806000606084860312156142fa57600080fd5b600061430886828701614172565b935050602061431986828701614172565b925050604061432a8682870161422f565b9150509250925092565b6000806000806080858703121561434a57600080fd5b600061435887828801614172565b945050602061436987828801614172565b935050604061437a8782880161422f565b925050606085013567ffffffffffffffff81111561439757600080fd5b6143a3878288016141db565b91505092959194509250565b600080604083850312156143c257600080fd5b60006143d085828601614172565b92505060206143e18582860161419c565b9150509250929050565b600080604083850312156143fe57600080fd5b600061440c85828601614172565b925050602061441d8582860161422f565b9150509250929050565b60006020828403121561443957600080fd5b6000614447848285016141b1565b91505092915050565b60006020828403121561446257600080fd5b6000614470848285016141c6565b91505092915050565b60006020828403121561448b57600080fd5b600082013567ffffffffffffffff8111156144a557600080fd5b6144b184828501614205565b91505092915050565b6000602082840312156144cc57600080fd5b60006144da8482850161422f565b91505092915050565b600080604083850312156144f657600080fd5b60006145048582860161422f565b925050602061451585828601614172565b9150509250929050565b6000806040838503121561453257600080fd5b60006145408582860161422f565b925050602083013567ffffffffffffffff81111561455d57600080fd5b61456985828601614205565b9150509250929050565b6000806040838503121561458657600080fd5b60006145948582860161422f565b92505060206145a58582860161422f565b9150509250929050565b60006145bb8383614bd2565b60208301905092915050565b6145d0816153ef565b82525050565b60006145e1826152f9565b6145eb8185615327565b93506145f6836152e9565b8060005b8381101561462757815161460e88826145af565b97506146198361531a565b9250506001810190506145fa565b5085935050505092915050565b61463d81615413565b82525050565b600061464e82615304565b6146588185615338565b9350614668818560208601615484565b614671816155f0565b840191505092915050565b60006146878261530f565b6146918185615349565b93506146a1818560208601615484565b6146aa816155f0565b840191505092915050565b60006146c08261530f565b6146ca818561535a565b93506146da818560208601615484565b80840191505092915050565b60006146f3603383615349565b91506146fe82615601565b604082019050919050565b6000614716602983615349565b915061472182615650565b604082019050919050565b6000614739602d83615349565b91506147448261569f565b604082019050919050565b600061475c602b83615349565b9150614767826156ee565b604082019050919050565b600061477f601b83615349565b915061478a8261573d565b602082019050919050565b60006147a2603283615349565b91506147ad82615766565b604082019050919050565b60006147c5602683615349565b91506147d0826157b5565b604082019050919050565b60006147e8602583615349565b91506147f382615804565b604082019050919050565b600061480b601c83615349565b915061481682615853565b602082019050919050565b600061482e602783615349565b91506148398261587c565b604082019050919050565b6000614851601883615349565b915061485c826158cb565b602082019050919050565b6000614874602683615349565b915061487f826158f4565b604082019050919050565b6000614897602483615349565b91506148a282615943565b604082019050919050565b60006148ba601983615349565b91506148c582615992565b602082019050919050565b60006148dd602083615349565b91506148e8826159bb565b602082019050919050565b6000614900604183615349565b915061490b826159e4565b606082019050919050565b6000614923602983615349565b915061492e82615a59565b604082019050919050565b6000614946602083615349565b915061495182615aa8565b602082019050919050565b6000614969602e83615349565b915061497482615ad1565b604082019050919050565b600061498c601f83615349565b915061499782615b20565b602082019050919050565b60006149af603883615349565b91506149ba82615b49565b604082019050919050565b60006149d2602083615349565b91506149dd82615b98565b602082019050919050565b60006149f5602083615349565b9150614a0082615bc1565b602082019050919050565b6000614a18602083615349565b9150614a2382615bea565b602082019050919050565b6000614a3b602f83615349565b9150614a4682615c13565b604082019050919050565b6000614a5e601e83615349565b9150614a6982615c62565b602082019050919050565b6000614a81603283615349565b9150614a8c82615c8b565b604082019050919050565b6000614aa4601883615349565b9150614aaf82615cda565b602082019050919050565b6000614ac7602183615349565b9150614ad282615d03565b604082019050919050565b6000614aea603583615349565b9150614af582615d52565b604082019050919050565b6000614b0d603d83615349565b9150614b1882615da1565b604082019050919050565b6000614b30602c83615349565b9150614b3b82615df0565b604082019050919050565b6000614b53601e83615349565b9150614b5e82615e3f565b602082019050919050565b6000614b76603583615349565b9150614b8182615e68565b604082019050919050565b6000614b99601c83615349565b9150614ba482615eb7565b602082019050919050565b6000614bbc600e83615349565b9150614bc782615ee0565b602082019050919050565b614bdb8161546b565b82525050565b614bea8161546b565b82525050565b6000614bfc82856146b5565b9150614c0882846146b5565b91508190509392505050565b6000602082019050614c2960008301846145c7565b92915050565b6000608082019050614c4460008301876145c7565b614c5160208301866145c7565b614c5e6040830185614be1565b8181036060830152614c708184614643565b905095945050505050565b60006020820190508181036000830152614c9581846145d6565b905092915050565b6000602082019050614cb26000830184614634565b92915050565b60006020820190508181036000830152614cd2818461467c565b905092915050565b60006020820190508181036000830152614cf3816146e6565b9050919050565b60006020820190508181036000830152614d1381614709565b9050919050565b60006020820190508181036000830152614d338161472c565b9050919050565b60006020820190508181036000830152614d538161474f565b9050919050565b60006020820190508181036000830152614d7381614772565b9050919050565b60006020820190508181036000830152614d9381614795565b9050919050565b60006020820190508181036000830152614db3816147b8565b9050919050565b60006020820190508181036000830152614dd3816147db565b9050919050565b60006020820190508181036000830152614df3816147fe565b9050919050565b60006020820190508181036000830152614e1381614821565b9050919050565b60006020820190508181036000830152614e3381614844565b9050919050565b60006020820190508181036000830152614e5381614867565b9050919050565b60006020820190508181036000830152614e738161488a565b9050919050565b60006020820190508181036000830152614e93816148ad565b9050919050565b60006020820190508181036000830152614eb3816148d0565b9050919050565b60006020820190508181036000830152614ed3816148f3565b9050919050565b60006020820190508181036000830152614ef381614916565b9050919050565b60006020820190508181036000830152614f1381614939565b9050919050565b60006020820190508181036000830152614f338161495c565b9050919050565b60006020820190508181036000830152614f538161497f565b9050919050565b60006020820190508181036000830152614f73816149a2565b9050919050565b60006020820190508181036000830152614f93816149c5565b9050919050565b60006020820190508181036000830152614fb3816149e8565b9050919050565b60006020820190508181036000830152614fd381614a0b565b9050919050565b60006020820190508181036000830152614ff381614a2e565b9050919050565b6000602082019050818103600083015261501381614a51565b9050919050565b6000602082019050818103600083015261503381614a74565b9050919050565b6000602082019050818103600083015261505381614a97565b9050919050565b6000602082019050818103600083015261507381614aba565b9050919050565b6000602082019050818103600083015261509381614add565b9050919050565b600060208201905081810360008301526150b381614b00565b9050919050565b600060208201905081810360008301526150d381614b23565b9050919050565b600060208201905081810360008301526150f381614b46565b9050919050565b6000602082019050818103600083015261511381614b69565b9050919050565b6000602082019050818103600083015261513381614b8c565b9050919050565b6000602082019050818103600083015261515381614baf565b9050919050565b600060208201905061516f6000830184614be1565b92915050565b600060408201905061518a6000830185614be1565b61519760208301846145c7565b9392505050565b60006060820190506151b36000830186614be1565b6151c060208301856145c7565b6151cd6040830184614be1565b949350505050565b6000610120820190506151eb600083018c614be1565b6151f8602083018b614be1565b615205604083018a6145c7565b6152126060830189614be1565b61521f60808301886145c7565b61522c60a0830187614be1565b61523960c0830186614be1565b61524660e0830185614634565b615254610100830184614634565b9a9950505050505050505050565b600061526c61527d565b905061527882826154e9565b919050565b6000604051905090565b600067ffffffffffffffff8211156152a2576152a16155c1565b5b6152ab826155f0565b9050602081019050919050565b600067ffffffffffffffff8211156152d3576152d26155c1565b5b6152dc826155f0565b9050602081019050919050565b6000819050602082019050919050565b600081519050919050565b600081519050919050565b600081519050919050565b6000602082019050919050565b600082825260208201905092915050565b600082825260208201905092915050565b600082825260208201905092915050565b600081905092915050565b60006153708261546b565b915061537b8361546b565b9250827fffffffffffffffffffffffffffffffffffffffffffffffffffffffffffffffff038211156153b0576153af615563565b5b828201905092915050565b60006153c68261546b565b91506153d18361546b565b9250828210156153e4576153e3615563565b5b828203905092915050565b60006153fa8261544b565b9050919050565b600061540c8261544b565b9050919050565b60008115159050919050565b60007fffffffff0000000000000000000000000000000000000000000000000000000082169050919050565b600073ffffffffffffffffffffffffffffffffffffffff82169050919050565b6000819050919050565b82818337600083830152505050565b60005b838110156154a2578082015181840152602081019050615487565b838111156154b1576000848401525b50505050565b600060028204905060018216806154cf57607f821691505b602082108114156154e3576154e2615592565b5b50919050565b6154f2826155f0565b810181811067ffffffffffffffff82111715615511576155106155c1565b5b80604052505050565b60006155258261546b565b91507fffffffffffffffffffffffffffffffffffffffffffffffffffffffffffffffff82141561555857615557615563565b5b600182019050919050565b7f4e487b7100000000000000000000000000000000000000000000000000000000600052601160045260246000fd5b7f4e487b7100000000000000000000000000000000000000000000000000000000600052602260045260246000fd5b7f4e487b7100000000000000000000000000000000000000000000000000000000600052604160045260246000fd5b6000601f19601f8301169050919050565b7f496e76616c6964205061796d656e742c2042696420497320446f6573204e6f7460008201527f20457175616c2048696768746573742042696400000000000000000000000000602082015250565b7f526571756972657320746865206869676865737420426964646572206173207460008201527f68652073656e6465720000000000000000000000000000000000000000000000602082015250565b7f4552433732313a2063616c6c6572206973206e6f7420746f6b656e206f776e6560008201527f72206f7220617070726f76656400000000000000000000000000000000000000602082015250565b7f455243373231456e756d657261626c653a206f776e657220696e646578206f7560008201527f74206f6620626f756e6473000000000000000000000000000000000000000000602082015250565b7f436f756e7465723a2064656372656d656e74206f766572666c6f770000000000600082015250565b7f4552433732313a207472616e7366657220746f206e6f6e20455243373231526560008201527f63656976657220696d706c656d656e7465720000000000000000000000000000602082015250565b7f4f776e61626c653a206e6577206f776e657220697320746865207a65726f206160008201527f6464726573730000000000000000000000000000000000000000000000000000602082015250565b7f4552433732313a207472616e736665722066726f6d20696e636f72726563742060008201527f6f776e6572000000000000000000000000000000000000000000000000000000602082015250565b7f4552433732313a20746f6b656e20616c7265616479206d696e74656400000000600082015250565b7f546f6b656e20486173206e6f74204265656e20416464656420546f205468652060008201527f41756374696f6e00000000000000000000000000000000000000000000000000602082015250565b7f4d617820746f6b656e20737570706c7920726561636865640000000000000000600082015250565b7f496e76616c696420546f6b656e2c204e6f742050617274204f6620546865204160008201527f756374696f6e0000000000000000000000000000000000000000000000000000602082015250565b7f4552433732313a207472616e7366657220746f20746865207a65726f2061646460008201527f7265737300000000000000000000000000000000000000000000000000000000602082015250565b7f4552433732313a20617070726f766520746f2063616c6c657200000000000000600082015250565b7f526571756972657320746865204f776e6572206173207468652073656e646572600082015250565b7f546f6b656e2048617320416c7265616479204265656e20416464656420546f2060008201527f5468652041756374696f6e204f7220486173204265656e2041756374696f6e6560208201527f6400000000000000000000000000000000000000000000000000000000000000604082015250565b7f4552433732313a2061646472657373207a65726f206973206e6f74206120766160008201527f6c6964206f776e65720000000000000000000000000000000000000000000000602082015250565b7f546f6b656e204973204e6f742050617274204f66205468652041756374696f6e600082015250565b7f45524337323155524953746f726167653a2055524920736574206f66206e6f6e60008201527f6578697374656e7420746f6b656e000000000000000000000000000000000000602082015250565b7f546865726520576173204120426964204f6e20546869732041756374696f6e00600082015250565b7f2043616c6c6172204d7573742062652074686520746f6b656e206f776e65722060008201527f746f2061646420746f6b656e7320746f20417574696f6e730000000000000000602082015250565b7f43616e204f6e6c7920557064617465204f776e65727320546f6b656e20557269600082015250565b7f4552433732313a206d696e7420746f20746865207a65726f2061646472657373600082015250565b7f4f776e61626c653a2063616c6c6572206973206e6f7420746865206f776e6572600082015250565b7f4552433732314d657461646174613a2055524920717565727920666f72206e6f60008201527f6e6578697374656e7420746f6b656e0000000000000000000000000000000000602082015250565b7f596f752043616e7420626964206f6e20796f7572206f776e20746f6b656e0000600082015250565b7f496e76616c696420416464726573732c2043616c6c6572204953204e6f74205460008201527f6865204869676874657374204249646465720000000000000000000000000000602082015250565b7f4552433732313a20696e76616c696420746f6b656e2049440000000000000000600082015250565b7f4552433732313a20617070726f76616c20746f2063757272656e74206f776e6560008201527f7200000000000000000000000000000000000000000000000000000000000000602082015250565b7f596f75204d7573742042652054686520546f6b656e204f776e657220546f205260008201527f656163746976617465205468652041756374696f6e0000000000000000000000602082015250565b7f4552433732313a20617070726f76652063616c6c6572206973206e6f7420746f60008201527f6b656e206f776e6572206f7220617070726f76656420666f7220616c6c000000602082015250565b7f455243373231456e756d657261626c653a20676c6f62616c20696e646578206f60008201527f7574206f6620626f756e64730000000000000000000000000000000000000000602082015250565b7f5468697320546f6b656e204973205374696c6c204f6e2041756374696f6e0000600082015250565b7f455243373231456e756d657261626c653a20636f6e736563757469766520747260008201527f616e7366657273206e6f7420737570706f727465640000000000000000000000602082015250565b7f496e7375666963656e742066756e647320666f72206d696e74696e6700000000600082015250565b7f696e76616c69642074696d696e67000000000000000000000000000000000000600082015250565b615f12816153ef565b8114615f1d57600080fd5b50565b615f2981615401565b8114615f3457600080fd5b50565b615f4081615413565b8114615f4b57600080fd5b50565b615f578161541f565b8114615f6257600080fd5b50565b615f6e8161546b565b8114615f7957600080fd5b5056fea2646970667358221220916cc2c5ca62fd1e41971d31b1e8d96e6743090698cc1c0a86fccb0ebcaea5d364736f6c63430008040033",
  "linkReferences": {},
  "deployedLinkReferences": {}
}